{
  "_format": "hh-sol-artifact-1",
  "contractName": "ERC1155Base",
  "sourceName": "@thirdweb-dev/contracts/base/ERC1155Base.sol",
  "abi": [
    {
      "inputs": [
        {
          "internalType": "string",
          "name": "_name",
          "type": "string"
        },
        {
          "internalType": "string",
          "name": "_symbol",
          "type": "string"
        },
        {
          "internalType": "address",
          "name": "_royaltyRecipient",
          "type": "address"
        },
        {
          "internalType": "uint128",
          "name": "_royaltyBps",
          "type": "uint128"
        }
      ],
      "stateMutability": "nonpayable",
      "type": "constructor"
    },
    {
      "inputs": [
        {
          "internalType": "address",
          "name": "operator",
          "type": "address"
        }
      ],
      "name": "OperatorNotAllowed",
      "type": "error"
    },
    {
      "anonymous": false,
      "inputs": [
        {
          "indexed": true,
          "internalType": "address",
          "name": "_owner",
          "type": "address"
        },
        {
          "indexed": true,
          "internalType": "address",
          "name": "_operator",
          "type": "address"
        },
        {
          "indexed": false,
          "internalType": "bool",
          "name": "_approved",
          "type": "bool"
        }
      ],
      "name": "ApprovalForAll",
      "type": "event"
    },
    {
      "anonymous": false,
      "inputs": [
        {
          "indexed": false,
          "internalType": "string",
          "name": "prevURI",
          "type": "string"
        },
        {
          "indexed": false,
          "internalType": "string",
          "name": "newURI",
          "type": "string"
        }
      ],
      "name": "ContractURIUpdated",
      "type": "event"
    },
    {
      "anonymous": false,
      "inputs": [
        {
          "indexed": true,
          "internalType": "address",
          "name": "newRoyaltyRecipient",
          "type": "address"
        },
        {
          "indexed": false,
          "internalType": "uint256",
          "name": "newRoyaltyBps",
          "type": "uint256"
        }
      ],
      "name": "DefaultRoyalty",
      "type": "event"
    },
    {
      "anonymous": false,
      "inputs": [
        {
          "indexed": false,
          "internalType": "bool",
          "name": "restriction",
          "type": "bool"
        }
      ],
      "name": "OperatorRestriction",
      "type": "event"
    },
    {
      "anonymous": false,
      "inputs": [
        {
          "indexed": true,
          "internalType": "address",
          "name": "prevOwner",
          "type": "address"
        },
        {
          "indexed": true,
          "internalType": "address",
          "name": "newOwner",
          "type": "address"
        }
      ],
      "name": "OwnerUpdated",
      "type": "event"
    },
    {
      "anonymous": false,
      "inputs": [
        {
          "indexed": true,
          "internalType": "uint256",
          "name": "tokenId",
          "type": "uint256"
        },
        {
          "indexed": true,
          "internalType": "address",
          "name": "royaltyRecipient",
          "type": "address"
        },
        {
          "indexed": false,
          "internalType": "uint256",
          "name": "royaltyBps",
          "type": "uint256"
        }
      ],
      "name": "RoyaltyForToken",
      "type": "event"
    },
    {
      "anonymous": false,
      "inputs": [
        {
          "indexed": true,
          "internalType": "address",
          "name": "_operator",
          "type": "address"
        },
        {
          "indexed": true,
          "internalType": "address",
          "name": "_from",
          "type": "address"
        },
        {
          "indexed": true,
          "internalType": "address",
          "name": "_to",
          "type": "address"
        },
        {
          "indexed": false,
          "internalType": "uint256[]",
          "name": "_ids",
          "type": "uint256[]"
        },
        {
          "indexed": false,
          "internalType": "uint256[]",
          "name": "_values",
          "type": "uint256[]"
        }
      ],
      "name": "TransferBatch",
      "type": "event"
    },
    {
      "anonymous": false,
      "inputs": [
        {
          "indexed": true,
          "internalType": "address",
          "name": "_operator",
          "type": "address"
        },
        {
          "indexed": true,
          "internalType": "address",
          "name": "_from",
          "type": "address"
        },
        {
          "indexed": true,
          "internalType": "address",
          "name": "_to",
          "type": "address"
        },
        {
          "indexed": false,
          "internalType": "uint256",
          "name": "_id",
          "type": "uint256"
        },
        {
          "indexed": false,
          "internalType": "uint256",
          "name": "_value",
          "type": "uint256"
        }
      ],
      "name": "TransferSingle",
      "type": "event"
    },
    {
      "anonymous": false,
      "inputs": [
        {
          "indexed": false,
          "internalType": "string",
          "name": "_value",
          "type": "string"
        },
        {
          "indexed": true,
          "internalType": "uint256",
          "name": "_id",
          "type": "uint256"
        }
      ],
      "name": "URI",
      "type": "event"
    },
    {
      "inputs": [],
      "name": "OPERATOR_FILTER_REGISTRY",
      "outputs": [
        {
          "internalType": "contract IOperatorFilterRegistry",
          "name": "",
          "type": "address"
        }
      ],
      "stateMutability": "view",
      "type": "function"
    },
    {
      "inputs": [
        {
          "internalType": "address",
          "name": "",
          "type": "address"
        },
        {
          "internalType": "uint256",
          "name": "",
          "type": "uint256"
        }
      ],
      "name": "balanceOf",
      "outputs": [
        {
          "internalType": "uint256",
          "name": "",
          "type": "uint256"
        }
      ],
      "stateMutability": "view",
      "type": "function"
    },
    {
      "inputs": [
        {
          "internalType": "address[]",
          "name": "accounts",
          "type": "address[]"
        },
        {
          "internalType": "uint256[]",
          "name": "ids",
          "type": "uint256[]"
        }
      ],
      "name": "balanceOfBatch",
      "outputs": [
        {
          "internalType": "uint256[]",
          "name": "",
          "type": "uint256[]"
        }
      ],
      "stateMutability": "view",
      "type": "function"
    },
    {
      "inputs": [
        {
          "internalType": "address",
          "name": "_to",
          "type": "address"
        },
        {
          "internalType": "uint256[]",
          "name": "_tokenIds",
          "type": "uint256[]"
        },
        {
          "internalType": "uint256[]",
          "name": "_amounts",
          "type": "uint256[]"
        },
        {
          "internalType": "string",
          "name": "_baseURI",
          "type": "string"
        }
      ],
      "name": "batchMintTo",
      "outputs": [],
      "stateMutability": "nonpayable",
      "type": "function"
    },
    {
      "inputs": [
        {
          "internalType": "address",
          "name": "_owner",
          "type": "address"
        },
        {
          "internalType": "uint256",
          "name": "_tokenId",
          "type": "uint256"
        },
        {
          "internalType": "uint256",
          "name": "_amount",
          "type": "uint256"
        }
      ],
      "name": "burn",
      "outputs": [],
      "stateMutability": "nonpayable",
      "type": "function"
    },
    {
      "inputs": [
        {
          "internalType": "address",
          "name": "_owner",
          "type": "address"
        },
        {
          "internalType": "uint256[]",
          "name": "_tokenIds",
          "type": "uint256[]"
        },
        {
          "internalType": "uint256[]",
          "name": "_amounts",
          "type": "uint256[]"
        }
      ],
      "name": "burnBatch",
      "outputs": [],
      "stateMutability": "nonpayable",
      "type": "function"
    },
    {
      "inputs": [],
      "name": "contractURI",
      "outputs": [
        {
          "internalType": "string",
          "name": "",
          "type": "string"
        }
      ],
      "stateMutability": "view",
      "type": "function"
    },
    {
      "inputs": [],
      "name": "getBaseURICount",
      "outputs": [
        {
          "internalType": "uint256",
          "name": "",
          "type": "uint256"
        }
      ],
      "stateMutability": "view",
      "type": "function"
    },
    {
      "inputs": [
        {
          "internalType": "uint256",
          "name": "_index",
          "type": "uint256"
        }
      ],
      "name": "getBatchIdAtIndex",
      "outputs": [
        {
          "internalType": "uint256",
          "name": "",
          "type": "uint256"
        }
      ],
      "stateMutability": "view",
      "type": "function"
    },
    {
      "inputs": [],
      "name": "getDefaultRoyaltyInfo",
      "outputs": [
        {
          "internalType": "address",
          "name": "",
          "type": "address"
        },
        {
          "internalType": "uint16",
          "name": "",
          "type": "uint16"
        }
      ],
      "stateMutability": "view",
      "type": "function"
    },
    {
      "inputs": [
        {
          "internalType": "uint256",
          "name": "_tokenId",
          "type": "uint256"
        }
      ],
      "name": "getRoyaltyInfoForToken",
      "outputs": [
        {
          "internalType": "address",
          "name": "",
          "type": "address"
        },
        {
          "internalType": "uint16",
          "name": "",
          "type": "uint16"
        }
      ],
      "stateMutability": "view",
      "type": "function"
    },
    {
      "inputs": [
        {
          "internalType": "address",
          "name": "",
          "type": "address"
        },
        {
          "internalType": "address",
          "name": "",
          "type": "address"
        }
      ],
      "name": "isApprovedForAll",
      "outputs": [
        {
          "internalType": "bool",
          "name": "",
          "type": "bool"
        }
      ],
      "stateMutability": "view",
      "type": "function"
    },
    {
      "inputs": [
        {
          "internalType": "address",
          "name": "_to",
          "type": "address"
        },
        {
          "internalType": "uint256",
          "name": "_tokenId",
          "type": "uint256"
        },
        {
          "internalType": "string",
          "name": "_tokenURI",
          "type": "string"
        },
        {
          "internalType": "uint256",
          "name": "_amount",
          "type": "uint256"
        }
      ],
      "name": "mintTo",
      "outputs": [],
      "stateMutability": "nonpayable",
      "type": "function"
    },
    {
      "inputs": [
        {
          "internalType": "bytes[]",
          "name": "data",
          "type": "bytes[]"
        }
      ],
      "name": "multicall",
      "outputs": [
        {
          "internalType": "bytes[]",
          "name": "results",
          "type": "bytes[]"
        }
      ],
      "stateMutability": "nonpayable",
      "type": "function"
    },
    {
      "inputs": [],
      "name": "name",
      "outputs": [
        {
          "internalType": "string",
          "name": "",
          "type": "string"
        }
      ],
      "stateMutability": "view",
      "type": "function"
    },
    {
      "inputs": [],
      "name": "nextTokenIdToMint",
      "outputs": [
        {
          "internalType": "uint256",
          "name": "",
          "type": "uint256"
        }
      ],
      "stateMutability": "view",
      "type": "function"
    },
    {
      "inputs": [],
      "name": "operatorRestriction",
      "outputs": [
        {
          "internalType": "bool",
          "name": "",
          "type": "bool"
        }
      ],
      "stateMutability": "view",
      "type": "function"
    },
    {
      "inputs": [],
      "name": "owner",
      "outputs": [
        {
          "internalType": "address",
          "name": "",
          "type": "address"
        }
      ],
      "stateMutability": "view",
      "type": "function"
    },
    {
      "inputs": [
        {
          "internalType": "uint256",
          "name": "tokenId",
          "type": "uint256"
        },
        {
          "internalType": "uint256",
          "name": "salePrice",
          "type": "uint256"
        }
      ],
      "name": "royaltyInfo",
      "outputs": [
        {
          "internalType": "address",
          "name": "receiver",
          "type": "address"
        },
        {
          "internalType": "uint256",
          "name": "royaltyAmount",
          "type": "uint256"
        }
      ],
      "stateMutability": "view",
      "type": "function"
    },
    {
      "inputs": [
        {
          "internalType": "address",
          "name": "from",
          "type": "address"
        },
        {
          "internalType": "address",
          "name": "to",
          "type": "address"
        },
        {
          "internalType": "uint256[]",
          "name": "ids",
          "type": "uint256[]"
        },
        {
          "internalType": "uint256[]",
          "name": "amounts",
          "type": "uint256[]"
        },
        {
          "internalType": "bytes",
          "name": "data",
          "type": "bytes"
        }
      ],
      "name": "safeBatchTransferFrom",
      "outputs": [],
      "stateMutability": "nonpayable",
      "type": "function"
    },
    {
      "inputs": [
        {
          "internalType": "address",
          "name": "from",
          "type": "address"
        },
        {
          "internalType": "address",
          "name": "to",
          "type": "address"
        },
        {
          "internalType": "uint256",
          "name": "id",
          "type": "uint256"
        },
        {
          "internalType": "uint256",
          "name": "amount",
          "type": "uint256"
        },
        {
          "internalType": "bytes",
          "name": "data",
          "type": "bytes"
        }
      ],
      "name": "safeTransferFrom",
      "outputs": [],
      "stateMutability": "nonpayable",
      "type": "function"
    },
    {
      "inputs": [
        {
          "internalType": "address",
          "name": "operator",
          "type": "address"
        },
        {
          "internalType": "bool",
          "name": "approved",
          "type": "bool"
        }
      ],
      "name": "setApprovalForAll",
      "outputs": [],
      "stateMutability": "nonpayable",
      "type": "function"
    },
    {
      "inputs": [
        {
          "internalType": "string",
          "name": "_uri",
          "type": "string"
        }
      ],
      "name": "setContractURI",
      "outputs": [],
      "stateMutability": "nonpayable",
      "type": "function"
    },
    {
      "inputs": [
        {
          "internalType": "address",
          "name": "_royaltyRecipient",
          "type": "address"
        },
        {
          "internalType": "uint256",
          "name": "_royaltyBps",
          "type": "uint256"
        }
      ],
      "name": "setDefaultRoyaltyInfo",
      "outputs": [],
      "stateMutability": "nonpayable",
      "type": "function"
    },
    {
      "inputs": [
        {
          "internalType": "bool",
          "name": "_restriction",
          "type": "bool"
        }
      ],
      "name": "setOperatorRestriction",
      "outputs": [],
      "stateMutability": "nonpayable",
      "type": "function"
    },
    {
      "inputs": [
        {
          "internalType": "address",
          "name": "_newOwner",
          "type": "address"
        }
      ],
      "name": "setOwner",
      "outputs": [],
      "stateMutability": "nonpayable",
      "type": "function"
    },
    {
      "inputs": [
        {
          "internalType": "uint256",
          "name": "_tokenId",
          "type": "uint256"
        },
        {
          "internalType": "address",
          "name": "_recipient",
          "type": "address"
        },
        {
          "internalType": "uint256",
          "name": "_bps",
          "type": "uint256"
        }
      ],
      "name": "setRoyaltyInfoForToken",
      "outputs": [],
      "stateMutability": "nonpayable",
      "type": "function"
    },
    {
      "inputs": [
        {
          "internalType": "bytes4",
          "name": "interfaceId",
          "type": "bytes4"
        }
      ],
      "name": "supportsInterface",
      "outputs": [
        {
          "internalType": "bool",
          "name": "",
          "type": "bool"
        }
      ],
      "stateMutability": "view",
      "type": "function"
    },
    {
      "inputs": [],
      "name": "symbol",
      "outputs": [
        {
          "internalType": "string",
          "name": "",
          "type": "string"
        }
      ],
      "stateMutability": "view",
      "type": "function"
    },
    {
      "inputs": [
        {
          "internalType": "uint256",
          "name": "",
          "type": "uint256"
        }
      ],
      "name": "totalSupply",
      "outputs": [
        {
          "internalType": "uint256",
          "name": "",
          "type": "uint256"
        }
      ],
      "stateMutability": "view",
      "type": "function"
    },
    {
      "inputs": [
        {
          "internalType": "uint256",
          "name": "_tokenId",
          "type": "uint256"
        }
      ],
      "name": "uri",
      "outputs": [
        {
          "internalType": "string",
          "name": "",
          "type": "string"
        }
      ],
      "stateMutability": "view",
      "type": "function"
    }
  ],
  "bytecode": "0x60806040523480156200001157600080fd5b50604051620038cc380380620038cc8339810160408190526200003491620003f4565b733cc6cdda760b79bafa08df41ecfa224f810dceb66001858560006200005b83826200052f565b5060016200006a82826200052f565b5050506daaeb6d7670e522a718067333cd4e3b15620001b25780156200010057604051633e9f1edf60e11b81523060048201526001600160a01b03831660248201526daaeb6d7670e522a718067333cd4e90637d3e3dbe906044015b600060405180830381600087803b158015620000e157600080fd5b505af1158015620000f6573d6000803e3d6000fd5b50505050620001b2565b6001600160a01b03821615620001515760405163a0af290360e01b81523060048201526001600160a01b03831660248201526daaeb6d7670e522a718067333cd4e9063a0af290390604401620000c6565b604051632210724360e11b81523060048201526daaeb6d7670e522a718067333cd4e90634420e48690602401600060405180830381600087803b1580156200019857600080fd5b505af1158015620001ad573d6000803e3d6000fd5b505050505b50620001c0905033620001eb565b620001d5826001600160801b0383166200023d565b620001e16001620002e8565b50505050620005fb565b600680546001600160a01b038381166001600160a01b0319831681179093556040519116919082907f8292fce18fa69edf4db7b94ea2e58241df0ae57f97e0a6c9b29067028bf92d7690600090a35050565b612710811115620002865760405162461bcd60e51b815260206004820152600f60248201526e45786365656473206d61782062707360881b604482015260640160405180910390fd5b600780546001600160a01b0384166001600160b01b03199091168117600160a01b61ffff851602179091556040518281527f90d7ec04bcb8978719414f82e52e4cb651db41d0e6f8cea6118c2191e6183adb9060200160405180910390a25050565b600b805460ff19168215159081179091556040519081527f38475885990d8dfe9ca01f0ef160a1b5514426eab9ddbc953a3353410ba780969060200160405180910390a150565b634e487b7160e01b600052604160045260246000fd5b600082601f8301126200035757600080fd5b81516001600160401b03808211156200037457620003746200032f565b604051601f8301601f19908116603f011681019082821181831017156200039f576200039f6200032f565b81604052838152602092508683858801011115620003bc57600080fd5b600091505b83821015620003e05785820183015181830184015290820190620003c1565b600093810190920192909252949350505050565b600080600080608085870312156200040b57600080fd5b84516001600160401b03808211156200042357600080fd5b620004318883890162000345565b955060208701519150808211156200044857600080fd5b50620004578782880162000345565b604087015190945090506001600160a01b03811681146200047757600080fd5b60608601519092506001600160801b03811681146200049557600080fd5b939692955090935050565b600181811c90821680620004b557607f821691505b602082108103620004d657634e487b7160e01b600052602260045260246000fd5b50919050565b601f8211156200052a57600081815260208120601f850160051c81016020861015620005055750805b601f850160051c820191505b81811015620005265782815560010162000511565b5050505b505050565b81516001600160401b038111156200054b576200054b6200032f565b62000563816200055c8454620004a0565b84620004dc565b602080601f8311600181146200059b5760008415620005825750858301515b600019600386901b1c1916600185901b17855562000526565b600085815260208120601f198616915b82811015620005cc57888601518255948401946001909101908401620005ab565b5085821015620005eb5787850151600019600388901b60f8161c191681555b5050505050600190811b01905550565b6132c1806200060b6000396000f3fe608060405234801561001057600080fd5b50600436106101a45760003560e01c806363b45e2d116100ef578063ac9650d811610092578063ac9650d8146103dc578063b03f4528146103fc578063b24f2d391461040f578063bd85b0391461042d578063e8a3d4851461044d578063e985e9c514610455578063f242432a14610483578063f5298aca1461049657600080fd5b806363b45e2d1461035c5780636b20c454146103645780638da5cb5b14610377578063938e3d7b14610388578063949c09f71461039b57806395d89b41146103ae5780639bcf7a15146103b6578063a22cb465146103c957600080fd5b80632eb2c2d6116101575780632eb2c2d61461028c57806332f0cd641461029f5780633b1475a7146102b257806341f43434146102ba5780634cc157df146102e75780634e1273f41461031c578063504c6e011461033c578063600dd5ea1461034957600080fd5b8062fdd58e146101a957806301ffc9a7146101e757806306fdde031461020a5780630e89341c1461021f57806313af4035146102325780632419f51b146102475780632a55205a1461025a575b600080fd5b6101d46101b73660046123cc565b600260209081526000928352604080842090915290825290205481565b6040519081526020015b60405180910390f35b6101fa6101f536600461240c565b6104a9565b60405190151581526020016101de565b610212610516565b6040516101de9190612479565b61021261022d36600461248c565b6105a4565b6102456102403660046124a5565b610692565b005b6101d461025536600461248c565b6106cb565b61026d6102683660046124c0565b610739565b604080516001600160a01b0390931683526020830191909152016101de565b61024561029a36600461262b565b610776565b6102456102ad3660046126e2565b6107a5565b600c546101d4565b6102cf6daaeb6d7670e522a718067333cd4e81565b6040516001600160a01b0390911681526020016101de565b6102fa6102f536600461248c565b610816565b604080516001600160a01b03909316835261ffff9091166020830152016101de565b61032f61032a3660046126ff565b610881565b6040516101de9190612804565b600b546101fa9060ff1681565b6102456103573660046123cc565b610995565b6009546101d4565b610245610372366004612817565b6109c7565b6006546001600160a01b03166102cf565b61024561039636600461288a565b610b1b565b6102456103a93660046128be565b610b48565b610212610cfc565b6102456103c4366004612956565b610d09565b6102456103d736600461298b565b610d3d565b6103ef6103ea3660046129c2565b610d51565b6040516101de9190612a36565b61024561040a366004612a98565b610e45565b6007546001600160a01b03811690600160a01b900461ffff166102fa565b6101d461043b36600461248c565b600d6020526000908152604090205481565b610212610ee9565b6101fa610463366004612af6565b600360209081526000928352604080842090915290825290205460ff1681565b610245610491366004612b29565b610ef6565b6102456104a4366004612b8d565b610f1d565b60006301ffc9a760e01b6001600160e01b0319831614806104da5750636cdb3d1360e11b6001600160e01b03198316145b806104f557506303a24d0760e21b6001600160e01b03198316145b8061051057506001600160e01b0319821663152a902d60e11b145b92915050565b6000805461052390612bc0565b80601f016020809104026020016040519081016040528092919081815260200182805461054f90612bc0565b801561059c5780601f106105715761010080835404028352916020019161059c565b820191906000526020600020905b81548152906001019060200180831161057f57829003601f168201915b505050505081565b6000818152600460205260408120805460609291906105c290612bc0565b80601f01602080910402602001604051908101604052809291908181526020018280546105ee90612bc0565b801561063b5780601f106106105761010080835404028352916020019161063b565b820191906000526020600020905b81548152906001019060200180831161061e57829003601f168201915b505050505090506000815111156106525792915050565b600061065d84610fc4565b90508061066985611160565b60405160200161067a929190612bfa565b60405160208183030381529060405292505050919050565b61069a611268565b6106bf5760405162461bcd60e51b81526004016106b690612c29565b60405180910390fd5b6106c881611295565b50565b60006106d660095490565b82106107145760405162461bcd60e51b815260206004820152600d60248201526c092dcecc2d8d2c840d2dcc8caf609b1b60448201526064016106b6565b6009828154811061072757610727612c51565b90600052602060002001549050919050565b60008060008061074886610816565b90945084925061ffff1690506127106107618287612c7d565b61076b9190612caa565b925050509250929050565b846001600160a01b038116331461079057610790336112e7565b61079d86868686866113ab565b505050505050565b6107ad611268565b61080d5760405162461bcd60e51b815260206004820152602b60248201527f4e6f7420617574686f72697a656420746f20736574206f70657261746f72207260448201526a32b9ba3934b1ba34b7b71760a91b60648201526084016106b6565b6106c881611415565b6000818152600860209081526040808320815180830190925280546001600160a01b03168083526001909101549282019290925282911561085d5780516020820151610877565b6007546001600160a01b03811690600160a01b900461ffff165b9250925050915091565b606081518351146108a45760405162461bcd60e51b81526004016106b690612cbe565b600083516001600160401b038111156108bf576108bf6124e2565b6040519080825280602002602001820160405280156108e8578160200160208202803683370190505b50905060005b845181101561098d576002600086838151811061090d5761090d612c51565b60200260200101516001600160a01b03166001600160a01b03168152602001908152602001600020600085838151811061094957610949612c51565b602002602001015181526020019081526020016000205482828151811061097257610972612c51565b602090810291909101015261098681612ce7565b90506108ee565b509392505050565b61099d611268565b6109b95760405162461bcd60e51b81526004016106b690612c29565b6109c3828261145c565b5050565b336001600160a01b038416811480610a0457506001600160a01b0380851660009081526003602090815260408083209385168352929052205460ff165b610a205760405162461bcd60e51b81526004016106b690612d00565b8151835114610a635760405162461bcd60e51b815260206004820152600f60248201526e098cadccee8d040dad2e6dac2e8c6d608b1b60448201526064016106b6565b60005b8351811015610b0957828181518110610a8157610a81612c51565b602002602001015160026000876001600160a01b03166001600160a01b031681526020019081526020016000206000868481518110610ac257610ac2612c51565b60200260200101518152602001908152602001600020541015610af75760405162461bcd60e51b81526004016106b690612d2b565b610b02600182612d5c565b9050610a66565b50610b158484846114e0565b50505050565b610b23611268565b610b3f5760405162461bcd60e51b81526004016106b690612c29565b6106c881611662565b610b50611268565b610b6c5760405162461bcd60e51b81526004016106b690612d6f565b6000825111610bb45760405162461bcd60e51b815260206004820152601460248201527326b4b73a34b733903d32b937903a37b5b2b7399760611b60448201526064016106b6565b8151835114610bf85760405162461bcd60e51b815260206004820152601060248201526f2632b733ba341036b4b9b6b0ba31b41760811b60448201526064016106b6565b6000610c03600c5490565b9050806000805b8651811015610cbc57600019878281518110610c2857610c28612c51565b602002602001015103610c725783878281518110610c4857610c48612c51565b6020908102919091010152610c5e600185612d5c565b9350610c6b600183612d5c565b9150610caa565b83878281518110610c8557610c85612c51565b602002602001015110610caa5760405162461bcd60e51b81526004016106b690612da0565b610cb5600182612d5c565b9050610c0a565b508015610cd157610cce82828661173e565b50505b82600c81905550610cf3878787604051806020016040528060008152506117a2565b50505050505050565b6001805461052390612bc0565b610d11611268565b610d2d5760405162461bcd60e51b81526004016106b690612c29565b610d388383836118eb565b505050565b81610d47816112e7565b610d388383611993565b6060816001600160401b03811115610d6b57610d6b6124e2565b604051908082528060200260200182016040528015610d9e57816020015b6060815260200190600190039081610d895790505b50905060005b82811015610e3e57610e0e30858584818110610dc257610dc2612c51565b9050602002810190610dd49190612dc4565b8080601f016020809104026020016040519081016040528093929190818152602001838380828437600092019190915250611a4292505050565b828281518110610e2057610e20612c51565b60200260200101819052508080610e3690612ce7565b915050610da4565b5092915050565b610e4d611268565b610e695760405162461bcd60e51b81526004016106b690612d6f565b600080610e75600c5490565b90506000198503610eab578091506001600c6000828254610e969190612d5c565b90915550610ea690508185611a6e565b610ece565b808510610eca5760405162461bcd60e51b81526004016106b690612da0565b8491505b61079d86838560405180602001604052806000815250611a86565b6005805461052390612bc0565b846001600160a01b0381163314610f1057610f10336112e7565b61079d8686868686611b4d565b336001600160a01b038416811480610f5a57506001600160a01b0380851660009081526003602090815260408083209385168352929052205460ff165b610f765760405162461bcd60e51b81526004016106b690612d00565b6001600160a01b0384166000908152600260209081526040808320868452909152902054821115610fb95760405162461bcd60e51b81526004016106b690612d2b565b610b15848484611bb0565b60606000610fd160095490565b90506000600980548060200260200160405190810160405280929190818152602001828054801561102157602002820191906000526020600020905b81548152602001906001019080831161100d575b5050505050905060005b828110156111255781818151811061104557611045612c51565b602002602001015185101561111357600a600083838151811061106a5761106a612c51565b60200260200101518152602001908152602001600020805461108b90612bc0565b80601f01602080910402602001604051908101604052809291908181526020018280546110b790612bc0565b80156111045780601f106110d957610100808354040283529160200191611104565b820191906000526020600020905b8154815290600101906020018083116110e757829003601f168201915b50505050509350505050919050565b61111e600182612d5c565b905061102b565b5060405162461bcd60e51b815260206004820152600f60248201526e125b9d985b1a59081d1bdad95b9259608a1b60448201526064016106b6565b6060816000036111875750506040805180820190915260018152600360fc1b602082015290565b8160005b81156111b1578061119b81612ce7565b91506111aa9050600a83612caa565b915061118b565b6000816001600160401b038111156111cb576111cb6124e2565b6040519080825280601f01601f1916602001820160405280156111f5576020820181803683370190505b5090505b84156112605761120a600183612e11565b9150611217600a86612e24565b611222906030612d5c565b60f81b81838151811061123757611237612c51565b60200101906001600160f81b031916908160001a905350611259600a86612caa565b94506111f9565b949350505050565b600061127c6006546001600160a01b031690565b6001600160a01b0316336001600160a01b031614905090565b600680546001600160a01b038381166001600160a01b0319831681179093556040519116919082907f8292fce18fa69edf4db7b94ea2e58241df0ae57f97e0a6c9b29067028bf92d7690600090a35050565b600b5460ff16156106c8576daaeb6d7670e522a718067333cd4e3b156106c857604051633185c44d60e21b81523060048201526001600160a01b03821660248201526daaeb6d7670e522a718067333cd4e9063c617113490604401602060405180830381865afa15801561135f573d6000803e3d6000fd5b505050506040513d601f19601f820116820180604052508101906113839190612e38565b6106c857604051633b79c77360e21b81526001600160a01b03821660048201526024016106b6565b6001600160a01b0385163314806113e557506001600160a01b038516600090815260036020908152604080832033845290915290205460ff165b6114015760405162461bcd60e51b81526004016106b690612e55565b61140e8585858585611ca2565b5050505050565b600b805460ff19168215159081179091556040519081527f38475885990d8dfe9ca01f0ef160a1b5514426eab9ddbc953a3353410ba780969060200160405180910390a150565b61271081111561147e5760405162461bcd60e51b81526004016106b690612e81565b600780546001600160a01b0384166001600160b01b03199091168117600160a01b61ffff851602179091556040518281527f90d7ec04bcb8978719414f82e52e4cb651db41d0e6f8cea6118c2191e6183adb9060200160405180910390a25050565b6001600160a01b0383166115065760405162461bcd60e51b81526004016106b690612eaa565b80518251146115275760405162461bcd60e51b81526004016106b690612cbe565b600033905061154a81856000868660405180602001604052806000815250611e43565b60005b835181101561161557600084828151811061156a5761156a612c51565b60200260200101519050600084838151811061158857611588612c51565b6020908102919091018101516001600160a01b03891660009081526002835260408082208683529093529190912054909150818110156115da5760405162461bcd60e51b81526004016106b690612ed2565b6001600160a01b038816600090815260026020908152604080832095835294905292909220910390558061160d81612ce7565b91505061154d565b5060006001600160a01b0316846001600160a01b0316826001600160a01b03166000805160206132258339815191528686604051611654929190612efc565b60405180910390a450505050565b60006005805461167190612bc0565b80601f016020809104026020016040519081016040528092919081815260200182805461169d90612bc0565b80156116ea5780601f106116bf576101008083540402835291602001916116ea565b820191906000526020600020905b8154815290600101906020018083116116cd57829003601f168201915b5050505050905081600590816117009190612f70565b507fc9c7c3fe08b88b4df9d4d47ef47d2c43d55c025a0ba88ca442580ed9e7348a16818360405161173292919061302f565b60405180910390a15050565b60008061174b8486612d5c565b60098054600181019091557f6e1540171b6c0c960b71a7020d9f60077f6af931a8bbf590da0223dacf75c7af018190556000818152600a602052604090209092508291506117998482612f70565b50935093915050565b6001600160a01b0384166117c85760405162461bcd60e51b81526004016106b690613054565b81518351146117e95760405162461bcd60e51b81526004016106b690612cbe565b336117f981600087878787611e43565b60005b84518110156118955783818151811061181757611817612c51565b602002602001015160026000886001600160a01b03166001600160a01b03168152602001908152602001600020600087848151811061185857611858612c51565b60200260200101518152602001908152602001600020600082825461187d9190612d5c565b9091555081905061188d81612ce7565b9150506117fc565b50846001600160a01b031660006001600160a01b0316826001600160a01b031660008051602061322583398151915287876040516118d4929190612efc565b60405180910390a461140e81600087878787611f4f565b61271081111561190d5760405162461bcd60e51b81526004016106b690612e81565b6040805180820182526001600160a01b038481168083526020808401868152600089815260088352869020945185546001600160a01b031916941693909317845591516001909301929092559151838152909185917f7365cf4122f072a3365c20d54eff9b38d73c096c28e1892ec8f5b0e403a0f12d91015b60405180910390a3505050565b336001600160a01b03831681036119dd5760405162461bcd60e51b815260206004820152600e60248201526d20a8282927ab24a723afa9a2a62360911b60448201526064016106b6565b6001600160a01b03818116600081815260036020908152604080832094881680845294825291829020805460ff191687151590811790915591519182527f17307eab39ab6107e8899845ad3d59bd9653f200f220920489ca2b5937696c319101611986565b6060611a67838360405180606001604052806027815260200161326560279139612080565b9392505050565b6000828152600460205260409020610d388282612f70565b6001600160a01b038416611aac5760405162461bcd60e51b81526004016106b690613054565b33611acc81600087611abd8861215d565b611ac68861215d565b87611e43565b6001600160a01b038516600090815260026020908152604080832087845290915281208054859290611aff908490612d5c565b909155505060408051858152602081018590526001600160a01b038088169260009291851691600080516020613245833981519152910160405180910390a461140e816000878787876121a8565b6001600160a01b038516331480611b8757506001600160a01b038516600090815260036020908152604080832033845290915290205460ff165b611ba35760405162461bcd60e51b81526004016106b690612e55565b61140e8585858585612263565b6001600160a01b038316611bd65760405162461bcd60e51b81526004016106b690612eaa565b33611c0581856000611be78761215d565b611bf08761215d565b60405180602001604052806000815250611e43565b6001600160a01b038416600090815260026020908152604080832086845290915290205482811015611c495760405162461bcd60e51b81526004016106b690612ed2565b6001600160a01b0385811660008181526002602090815260408083208984528252808320888703905580518981529182018890529193861691600080516020613245833981519152910160405180910390a45050505050565b8151835114611cc35760405162461bcd60e51b81526004016106b690612cbe565b6001600160a01b038416611ce95760405162461bcd60e51b81526004016106b690613054565b33611cf8818787878787611e43565b60005b8451811015611def576000858281518110611d1857611d18612c51565b602002602001015190506000858381518110611d3657611d36612c51565b6020908102919091018101516001600160a01b038b166000908152600283526040808220868352909352919091205490915081811015611d885760405162461bcd60e51b81526004016106b690612ed2565b6001600160a01b03808b16600090815260026020818152604080842088855282528084208787039055938d16835290815282822086835290529081208054849290611dd4908490612d5c565b9250508190555050505080611de890612ce7565b9050611cfb565b50846001600160a01b0316866001600160a01b0316826001600160a01b03166000805160206132258339815191528787604051611e2d929190612efc565b60405180910390a461079d818787878787611f4f565b6001600160a01b038516611eca5760005b8351811015611ec857828181518110611e6f57611e6f612c51565b6020026020010151600d6000868481518110611e8d57611e8d612c51565b602002602001015181526020019081526020016000206000828254611eb29190612d5c565b90915550611ec1905081612ce7565b9050611e54565b505b6001600160a01b03841661079d5760005b8351811015610cf357828181518110611ef657611ef6612c51565b6020026020010151600d6000868481518110611f1457611f14612c51565b602002602001015181526020019081526020016000206000828254611f399190612e11565b90915550611f48905081612ce7565b9050611edb565b6001600160a01b0384163b1561079d5760405163bc197c8160e01b81526001600160a01b0385169063bc197c8190611f93908990899088908890889060040161307a565b6020604051808303816000875af1925050508015611fce575060408051601f3d908101601f19168201909252611fcb918101906130d8565b60015b61205057611fda6130f5565b806308c379a0036120135750611fee613111565b80611ff95750612015565b8060405162461bcd60e51b81526004016106b69190612479565b505b60405162461bcd60e51b815260206004820152601060248201526f10a2a92198989a9aa922a1a2a4ab22a960811b60448201526064016106b6565b6001600160e01b0319811663bc197c8160e01b14610cf35760405162461bcd60e51b81526004016106b69061319a565b60606001600160a01b0384163b6120e85760405162461bcd60e51b815260206004820152602660248201527f416464726573733a2064656c65676174652063616c6c20746f206e6f6e2d636f6044820152651b9d1c9858dd60d21b60648201526084016106b6565b600080856001600160a01b03168560405161210391906131c3565b600060405180830381855af49150503d806000811461213e576040519150601f19603f3d011682016040523d82523d6000602084013e612143565b606091505b5091509150612153828286612377565b9695505050505050565b6040805160018082528183019092526060916000919060208083019080368337019050509050828160008151811061219757612197612c51565b602090810291909101015292915050565b6001600160a01b0384163b1561079d5760405163f23a6e6160e01b81526001600160a01b0385169063f23a6e61906121ec90899089908890889088906004016131df565b6020604051808303816000875af1925050508015612227575060408051601f3d908101601f19168201909252612224918101906130d8565b60015b61223357611fda6130f5565b6001600160e01b0319811663f23a6e6160e01b14610cf35760405162461bcd60e51b81526004016106b69061319a565b6001600160a01b0384166122895760405162461bcd60e51b81526004016106b690613054565b33612299818787611abd8861215d565b6001600160a01b0386166000908152600260209081526040808320878452909152902054838110156122dd5760405162461bcd60e51b81526004016106b690612ed2565b6001600160a01b0380881660009081526002602081815260408084208a855282528084208987039055938a16835290815282822088835290529081208054869290612329908490612d5c565b909155505060408051868152602081018690526001600160a01b03808916928a82169291861691600080516020613245833981519152910160405180910390a4610cf38288888888886121a8565b60608315612386575081611a67565b8251156123965782518084602001fd5b8160405162461bcd60e51b81526004016106b69190612479565b80356001600160a01b03811681146123c757600080fd5b919050565b600080604083850312156123df57600080fd5b6123e8836123b0565b946020939093013593505050565b6001600160e01b0319811681146106c857600080fd5b60006020828403121561241e57600080fd5b8135611a67816123f6565b60005b8381101561244457818101518382015260200161242c565b50506000910152565b60008151808452612465816020860160208601612429565b601f01601f19169290920160200192915050565b602081526000611a67602083018461244d565b60006020828403121561249e57600080fd5b5035919050565b6000602082840312156124b757600080fd5b611a67826123b0565b600080604083850312156124d357600080fd5b50508035926020909101359150565b634e487b7160e01b600052604160045260246000fd5b601f8201601f191681016001600160401b038111828210171561251d5761251d6124e2565b6040525050565b60006001600160401b0382111561253d5761253d6124e2565b5060051b60200190565b600082601f83011261255857600080fd5b8135602061256582612524565b60405161257282826124f8565b83815260059390931b850182019282810191508684111561259257600080fd5b8286015b848110156125ad5780358352918301918301612596565b509695505050505050565b600082601f8301126125c957600080fd5b81356001600160401b038111156125e2576125e26124e2565b6040516125f9601f8301601f1916602001826124f8565b81815284602083860101111561260e57600080fd5b816020850160208301376000918101602001919091529392505050565b600080600080600060a0868803121561264357600080fd5b61264c866123b0565b945061265a602087016123b0565b935060408601356001600160401b038082111561267657600080fd5b61268289838a01612547565b9450606088013591508082111561269857600080fd5b6126a489838a01612547565b935060808801359150808211156126ba57600080fd5b506126c7888289016125b8565b9150509295509295909350565b80151581146106c857600080fd5b6000602082840312156126f457600080fd5b8135611a67816126d4565b6000806040838503121561271257600080fd5b82356001600160401b038082111561272957600080fd5b818501915085601f83011261273d57600080fd5b8135602061274a82612524565b60405161275782826124f8565b83815260059390931b850182019282810191508984111561277757600080fd5b948201945b8386101561279c5761278d866123b0565b8252948201949082019061277c565b965050860135925050808211156127b257600080fd5b506127bf85828601612547565b9150509250929050565b600081518084526020808501945080840160005b838110156127f9578151875295820195908201906001016127dd565b509495945050505050565b602081526000611a6760208301846127c9565b60008060006060848603121561282c57600080fd5b612835846123b0565b925060208401356001600160401b038082111561285157600080fd5b61285d87838801612547565b9350604086013591508082111561287357600080fd5b5061288086828701612547565b9150509250925092565b60006020828403121561289c57600080fd5b81356001600160401b038111156128b257600080fd5b611260848285016125b8565b600080600080608085870312156128d457600080fd5b6128dd856123b0565b935060208501356001600160401b03808211156128f957600080fd5b61290588838901612547565b9450604087013591508082111561291b57600080fd5b61292788838901612547565b9350606087013591508082111561293d57600080fd5b5061294a878288016125b8565b91505092959194509250565b60008060006060848603121561296b57600080fd5b8335925061297b602085016123b0565b9150604084013590509250925092565b6000806040838503121561299e57600080fd5b6129a7836123b0565b915060208301356129b7816126d4565b809150509250929050565b600080602083850312156129d557600080fd5b82356001600160401b03808211156129ec57600080fd5b818501915085601f830112612a0057600080fd5b813581811115612a0f57600080fd5b8660208260051b8501011115612a2457600080fd5b60209290920196919550909350505050565b6000602080830181845280855180835260408601915060408160051b870101925083870160005b82811015612a8b57603f19888603018452612a7985835161244d565b94509285019290850190600101612a5d565b5092979650505050505050565b60008060008060808587031215612aae57600080fd5b612ab7856123b0565b93506020850135925060408501356001600160401b03811115612ad957600080fd5b612ae5878288016125b8565b949793965093946060013593505050565b60008060408385031215612b0957600080fd5b612b12836123b0565b9150612b20602084016123b0565b90509250929050565b600080600080600060a08688031215612b4157600080fd5b612b4a866123b0565b9450612b58602087016123b0565b9350604086013592506060860135915060808601356001600160401b03811115612b8157600080fd5b6126c7888289016125b8565b600080600060608486031215612ba257600080fd5b612bab846123b0565b95602085013595506040909401359392505050565b600181811c90821680612bd457607f821691505b602082108103612bf457634e487b7160e01b600052602260045260246000fd5b50919050565b60008351612c0c818460208801612429565b835190830190612c20818360208801612429565b01949350505050565b6020808252600e908201526d139bdd08185d5d1a1bdc9a5e995960921b604082015260600190565b634e487b7160e01b600052603260045260246000fd5b634e487b7160e01b600052601160045260246000fd5b808202811582820484141761051057610510612c67565b634e487b7160e01b600052601260045260246000fd5b600082612cb957612cb9612c94565b500490565b6020808252600f908201526e0988a9c8ea890be9a92a69a82a8869608b1b604082015260600190565b600060018201612cf957612cf9612c67565b5060010190565b6020808252601190820152702ab730b8383937bb32b21031b0b63632b960791b604082015260600190565b602080825260179082015276139bdd08195b9bdd59da081d1bdad95b9cc81bdddb9959604a1b604082015260600190565b8082018082111561051057610510612c67565b6020808252601790820152762737ba1030baba3437b934bd32b2103a379036b4b73a1760491b604082015260600190565b6020808252600a90820152691a5b9d985b1a59081a5960b21b604082015260600190565b6000808335601e19843603018112612ddb57600080fd5b8301803591506001600160401b03821115612df557600080fd5b602001915036819003821315612e0a57600080fd5b9250929050565b8181038181111561051057610510612c67565b600082612e3357612e33612c94565b500690565b600060208284031215612e4a57600080fd5b8151611a67816126d4565b6020808252601290820152710853d5d3915497d3d497d054141493d5915160721b604082015260600190565b6020808252600f908201526e45786365656473206d61782062707360881b604082015260600190565b6020808252600e908201526d232927a6afad22a927afa0a2222960911b604082015260600190565b60208082526010908201526f125394d551919250d251539517d0905360821b604082015260600190565b604081526000612f0f60408301856127c9565b8281036020840152612f2181856127c9565b95945050505050565b601f821115610d3857600081815260208120601f850160051c81016020861015612f515750805b601f850160051c820191505b8181101561079d57828155600101612f5d565b81516001600160401b03811115612f8957612f896124e2565b612f9d81612f978454612bc0565b84612f2a565b602080601f831160018114612fd25760008415612fba5750858301515b600019600386901b1c1916600185901b17855561079d565b600085815260208120601f198616915b8281101561300157888601518255948401946001909101908401612fe2565b508582101561301f5787850151600019600388901b60f8161c191681555b5050505050600190811b01905550565b604081526000613042604083018561244d565b8281036020840152612f21818561244d565b6020808252600c908201526b2a27afad22a927afa0a2222960a11b604082015260600190565b6001600160a01b0386811682528516602082015260a0604082018190526000906130a6908301866127c9565b82810360608401526130b881866127c9565b905082810360808401526130cc818561244d565b98975050505050505050565b6000602082840312156130ea57600080fd5b8151611a67816123f6565b600060033d111561310e5760046000803e5060005160e01c5b90565b600060443d101561311f5790565b6040516003193d81016004833e81513d6001600160401b03816024840111818411171561314e57505050505090565b82850191508151818111156131665750505050505090565b843d87010160208285010111156131805750505050505090565b61318f602082860101876124f8565b509095945050505050565b6020808252600f908201526e1513d2d15394d7d491529150d51151608a1b604082015260600190565b600082516131d5818460208701612429565b9190910192915050565b6001600160a01b03868116825285166020820152604081018490526060810183905260a0608082018190526000906132199083018461244d565b97965050505050505056fe4a39dc06d4c0dbc64b70af90fd698a233a518aa5d07e595d983b8c0526c8f7fbc3d58168c5ae7397731d063d5bbf3d657854427343f4c083240f7aacaa2d0f62416464726573733a206c6f772d6c6576656c2064656c65676174652063616c6c206661696c6564a26469706673582212208d8e561e3c803516687bd42281504e183b20f2ab16a7d5ab2ced20018eca8b9964736f6c63430008110033",
  "linkReferences": {},
  "deployedLinkReferences": {}
}