{
  "_format": "hh-sol-artifact-1",
  "contractName": "ERC1155",
  "sourceName": "@thirdweb-dev/contracts/eip/ERC1155.sol",
  "abi": [
    {
      "inputs": [
        {
          "internalType": "string",
          "name": "_name",
          "type": "string"
        },
        {
          "internalType": "string",
          "name": "_symbol",
          "type": "string"
        }
      ],
      "stateMutability": "nonpayable",
      "type": "constructor"
    },
    {
      "anonymous": false,
      "inputs": [
        {
          "indexed": true,
          "internalType": "address",
          "name": "_owner",
          "type": "address"
        },
        {
          "indexed": true,
          "internalType": "address",
          "name": "_operator",
          "type": "address"
        },
        {
          "indexed": false,
          "internalType": "bool",
          "name": "_approved",
          "type": "bool"
        }
      ],
      "name": "ApprovalForAll",
      "type": "event"
    },
    {
      "anonymous": false,
      "inputs": [
        {
          "indexed": true,
          "internalType": "address",
          "name": "_operator",
          "type": "address"
        },
        {
          "indexed": true,
          "internalType": "address",
          "name": "_from",
          "type": "address"
        },
        {
          "indexed": true,
          "internalType": "address",
          "name": "_to",
          "type": "address"
        },
        {
          "indexed": false,
          "internalType": "uint256[]",
          "name": "_ids",
          "type": "uint256[]"
        },
        {
          "indexed": false,
          "internalType": "uint256[]",
          "name": "_values",
          "type": "uint256[]"
        }
      ],
      "name": "TransferBatch",
      "type": "event"
    },
    {
      "anonymous": false,
      "inputs": [
        {
          "indexed": true,
          "internalType": "address",
          "name": "_operator",
          "type": "address"
        },
        {
          "indexed": true,
          "internalType": "address",
          "name": "_from",
          "type": "address"
        },
        {
          "indexed": true,
          "internalType": "address",
          "name": "_to",
          "type": "address"
        },
        {
          "indexed": false,
          "internalType": "uint256",
          "name": "_id",
          "type": "uint256"
        },
        {
          "indexed": false,
          "internalType": "uint256",
          "name": "_value",
          "type": "uint256"
        }
      ],
      "name": "TransferSingle",
      "type": "event"
    },
    {
      "anonymous": false,
      "inputs": [
        {
          "indexed": false,
          "internalType": "string",
          "name": "_value",
          "type": "string"
        },
        {
          "indexed": true,
          "internalType": "uint256",
          "name": "_id",
          "type": "uint256"
        }
      ],
      "name": "URI",
      "type": "event"
    },
    {
      "inputs": [
        {
          "internalType": "address",
          "name": "",
          "type": "address"
        },
        {
          "internalType": "uint256",
          "name": "",
          "type": "uint256"
        }
      ],
      "name": "balanceOf",
      "outputs": [
        {
          "internalType": "uint256",
          "name": "",
          "type": "uint256"
        }
      ],
      "stateMutability": "view",
      "type": "function"
    },
    {
      "inputs": [
        {
          "internalType": "address[]",
          "name": "accounts",
          "type": "address[]"
        },
        {
          "internalType": "uint256[]",
          "name": "ids",
          "type": "uint256[]"
        }
      ],
      "name": "balanceOfBatch",
      "outputs": [
        {
          "internalType": "uint256[]",
          "name": "",
          "type": "uint256[]"
        }
      ],
      "stateMutability": "view",
      "type": "function"
    },
    {
      "inputs": [
        {
          "internalType": "address",
          "name": "",
          "type": "address"
        },
        {
          "internalType": "address",
          "name": "",
          "type": "address"
        }
      ],
      "name": "isApprovedForAll",
      "outputs": [
        {
          "internalType": "bool",
          "name": "",
          "type": "bool"
        }
      ],
      "stateMutability": "view",
      "type": "function"
    },
    {
      "inputs": [],
      "name": "name",
      "outputs": [
        {
          "internalType": "string",
          "name": "",
          "type": "string"
        }
      ],
      "stateMutability": "view",
      "type": "function"
    },
    {
      "inputs": [
        {
          "internalType": "address",
          "name": "from",
          "type": "address"
        },
        {
          "internalType": "address",
          "name": "to",
          "type": "address"
        },
        {
          "internalType": "uint256[]",
          "name": "ids",
          "type": "uint256[]"
        },
        {
          "internalType": "uint256[]",
          "name": "amounts",
          "type": "uint256[]"
        },
        {
          "internalType": "bytes",
          "name": "data",
          "type": "bytes"
        }
      ],
      "name": "safeBatchTransferFrom",
      "outputs": [],
      "stateMutability": "nonpayable",
      "type": "function"
    },
    {
      "inputs": [
        {
          "internalType": "address",
          "name": "from",
          "type": "address"
        },
        {
          "internalType": "address",
          "name": "to",
          "type": "address"
        },
        {
          "internalType": "uint256",
          "name": "id",
          "type": "uint256"
        },
        {
          "internalType": "uint256",
          "name": "amount",
          "type": "uint256"
        },
        {
          "internalType": "bytes",
          "name": "data",
          "type": "bytes"
        }
      ],
      "name": "safeTransferFrom",
      "outputs": [],
      "stateMutability": "nonpayable",
      "type": "function"
    },
    {
      "inputs": [
        {
          "internalType": "address",
          "name": "operator",
          "type": "address"
        },
        {
          "internalType": "bool",
          "name": "approved",
          "type": "bool"
        }
      ],
      "name": "setApprovalForAll",
      "outputs": [],
      "stateMutability": "nonpayable",
      "type": "function"
    },
    {
      "inputs": [
        {
          "internalType": "bytes4",
          "name": "interfaceId",
          "type": "bytes4"
        }
      ],
      "name": "supportsInterface",
      "outputs": [
        {
          "internalType": "bool",
          "name": "",
          "type": "bool"
        }
      ],
      "stateMutability": "view",
      "type": "function"
    },
    {
      "inputs": [],
      "name": "symbol",
      "outputs": [
        {
          "internalType": "string",
          "name": "",
          "type": "string"
        }
      ],
      "stateMutability": "view",
      "type": "function"
    },
    {
      "inputs": [
        {
          "internalType": "uint256",
          "name": "tokenId",
          "type": "uint256"
        }
      ],
      "name": "uri",
      "outputs": [
        {
          "internalType": "string",
          "name": "",
          "type": "string"
        }
      ],
      "stateMutability": "view",
      "type": "function"
    }
  ],
  "bytecode": "0x60806040523480156200001157600080fd5b50604051620015f7380380620015f783398101604081905262000034916200011f565b600062000042838262000218565b50600162000051828262000218565b505050620002e4565b634e487b7160e01b600052604160045260246000fd5b600082601f8301126200008257600080fd5b81516001600160401b03808211156200009f576200009f6200005a565b604051601f8301601f19908116603f01168101908282118183101715620000ca57620000ca6200005a565b81604052838152602092508683858801011115620000e757600080fd5b600091505b838210156200010b5785820183015181830184015290820190620000ec565b600093810190920192909252949350505050565b600080604083850312156200013357600080fd5b82516001600160401b03808211156200014b57600080fd5b620001598683870162000070565b935060208501519150808211156200017057600080fd5b506200017f8582860162000070565b9150509250929050565b600181811c908216806200019e57607f821691505b602082108103620001bf57634e487b7160e01b600052602260045260246000fd5b50919050565b601f8211156200021357600081815260208120601f850160051c81016020861015620001ee5750805b601f850160051c820191505b818110156200020f57828155600101620001fa565b5050505b505050565b81516001600160401b038111156200023457620002346200005a565b6200024c8162000245845462000189565b84620001c5565b602080601f8311600181146200028457600084156200026b5750858301515b600019600386901b1c1916600185901b1785556200020f565b600085815260208120601f198616915b82811015620002b55788860151825594840194600190910190840162000294565b5085821015620002d45787850151600019600388901b60f8161c191681555b5050505050600190811b01905550565b61130380620002f46000396000f3fe608060405234801561001057600080fd5b506004361061009d5760003560e01c80634e1273f4116100665780634e1273f41461014057806395d89b4114610160578063a22cb46514610168578063e985e9c51461017b578063f242432a146101a957600080fd5b8062fdd58e146100a257806301ffc9a7146100e057806306fdde03146101035780630e89341c146101185780632eb2c2d61461012b575b600080fd5b6100cd6100b0366004610b24565b600260209081526000928352604080842090915290825290205481565b6040519081526020015b60405180910390f35b6100f36100ee366004610b67565b6101bc565b60405190151581526020016100d7565b61010b61020e565b6040516100d79190610bd1565b61010b610126366004610be4565b61029c565b61013e610139366004610d46565b61033e565b005b61015361014e366004610def565b6103b1565b6040516100d79190610ef4565b61010b6104c5565b61013e610176366004610f07565b6104d2565b6100f3610189366004610f43565b600360209081526000928352604080842090915290825290205460ff1681565b61013e6101b7366004610f76565b610589565b60006301ffc9a760e01b6001600160e01b0319831614806101ed5750636cdb3d1360e11b6001600160e01b03198316145b8061020857506303a24d0760e21b6001600160e01b03198316145b92915050565b6000805461021b90610fda565b80601f016020809104026020016040519081016040528092919081815260200182805461024790610fda565b80156102945780601f1061026957610100808354040283529160200191610294565b820191906000526020600020905b81548152906001019060200180831161027757829003601f168201915b505050505081565b60008181526004602052604090208054606091906102b990610fda565b80601f01602080910402602001604051908101604052809291908181526020018280546102e590610fda565b80156103325780601f1061030757610100808354040283529160200191610332565b820191906000526020600020905b81548152906001019060200180831161031557829003601f168201915b50505050509050919050565b6001600160a01b03851633148061037857506001600160a01b038516600090815260036020908152604080832033845290915290205460ff165b61039d5760405162461bcd60e51b815260040161039490611014565b60405180910390fd5b6103aa85858585856105ec565b5050505050565b606081518351146103d45760405162461bcd60e51b815260040161039490611040565b600083516001600160401b038111156103ef576103ef610bfd565b604051908082528060200260200182016040528015610418578160200160208202803683370190505b50905060005b84518110156104bd576002600086838151811061043d5761043d611069565b60200260200101516001600160a01b03166001600160a01b03168152602001908152602001600020600085838151811061047957610479611069565b60200260200101518152602001908152602001600020548282815181106104a2576104a2611069565b60209081029190910101526104b681611095565b905061041e565b509392505050565b6001805461021b90610fda565b336001600160a01b038316810361051c5760405162461bcd60e51b815260206004820152600e60248201526d20a8282927ab24a723afa9a2a62360911b6044820152606401610394565b6001600160a01b03818116600081815260036020908152604080832094881680845294825291829020805460ff191687151590811790915591519182527f17307eab39ab6107e8899845ad3d59bd9653f200f220920489ca2b5937696c31910160405180910390a3505050565b6001600160a01b0385163314806105c357506001600160a01b038516600090815260036020908152604080832033845290915290205460ff165b6105df5760405162461bcd60e51b815260040161039490611014565b6103aa8585858585610799565b815183511461060d5760405162461bcd60e51b815260040161039490611040565b6001600160a01b0384166106335760405162461bcd60e51b8152600401610394906110ae565b3360005b845181101561072b57600085828151811061065457610654611069565b60200260200101519050600085838151811061067257610672611069565b6020908102919091018101516001600160a01b038b1660009081526002835260408082208683529093529190912054909150818110156106c45760405162461bcd60e51b8152600401610394906110d4565b6001600160a01b03808b16600090815260026020818152604080842088855282528084208787039055938d168352908152828220868352905290812080548492906107109084906110fe565b925050819055505050508061072490611095565b9050610637565b50846001600160a01b0316866001600160a01b0316826001600160a01b03167f4a39dc06d4c0dbc64b70af90fd698a233a518aa5d07e595d983b8c0526c8f7fb878760405161077b929190611111565b60405180910390a46107918187878787876108d1565b505050505050565b6001600160a01b0384166107bf5760405162461bcd60e51b8152600401610394906110ae565b336107d88187876107cf88610a02565b6103aa88610a02565b6001600160a01b03861660009081526002602090815260408083208784529091529020548381101561081c5760405162461bcd60e51b8152600401610394906110d4565b6001600160a01b0380881660009081526002602081815260408084208a855282528084208987039055938a168352908152828220888352905290812080548692906108689084906110fe565b909155505060408051868152602081018690526001600160a01b03808916928a821692918616917fc3d58168c5ae7397731d063d5bbf3d657854427343f4c083240f7aacaa2d0f62910160405180910390a46108c8828888888888610a4d565b50505050505050565b6001600160a01b0384163b156107915760405163bc197c8160e01b81526001600160a01b0385169063bc197c8190610915908990899088908890889060040161113f565b6020604051808303816000875af1925050508015610950575060408051601f3d908101601f1916820190925261094d9181019061119d565b60015b6109d25761095c6111ba565b806308c379a00361099557506109706111d6565b8061097b5750610997565b8060405162461bcd60e51b81526004016103949190610bd1565b505b60405162461bcd60e51b815260206004820152601060248201526f10a2a92198989a9aa922a1a2a4ab22a960811b6044820152606401610394565b6001600160e01b0319811663bc197c8160e01b146108c85760405162461bcd60e51b81526004016103949061125f565b60408051600180825281830190925260609160009190602080830190803683370190505090508281600081518110610a3c57610a3c611069565b602090810291909101015292915050565b6001600160a01b0384163b156107915760405163f23a6e6160e01b81526001600160a01b0385169063f23a6e6190610a919089908990889088908890600401611288565b6020604051808303816000875af1925050508015610acc575060408051601f3d908101601f19168201909252610ac99181019061119d565b60015b610ad85761095c6111ba565b6001600160e01b0319811663f23a6e6160e01b146108c85760405162461bcd60e51b81526004016103949061125f565b80356001600160a01b0381168114610b1f57600080fd5b919050565b60008060408385031215610b3757600080fd5b610b4083610b08565b946020939093013593505050565b6001600160e01b031981168114610b6457600080fd5b50565b600060208284031215610b7957600080fd5b8135610b8481610b4e565b9392505050565b6000815180845260005b81811015610bb157602081850181015186830182015201610b95565b506000602082860101526020601f19601f83011685010191505092915050565b602081526000610b846020830184610b8b565b600060208284031215610bf657600080fd5b5035919050565b634e487b7160e01b600052604160045260246000fd5b601f8201601f191681016001600160401b0381118282101715610c3857610c38610bfd565b6040525050565b60006001600160401b03821115610c5857610c58610bfd565b5060051b60200190565b600082601f830112610c7357600080fd5b81356020610c8082610c3f565b604051610c8d8282610c13565b83815260059390931b8501820192828101915086841115610cad57600080fd5b8286015b84811015610cc85780358352918301918301610cb1565b509695505050505050565b600082601f830112610ce457600080fd5b81356001600160401b03811115610cfd57610cfd610bfd565b604051610d14601f8301601f191660200182610c13565b818152846020838601011115610d2957600080fd5b816020850160208301376000918101602001919091529392505050565b600080600080600060a08688031215610d5e57600080fd5b610d6786610b08565b9450610d7560208701610b08565b935060408601356001600160401b0380821115610d9157600080fd5b610d9d89838a01610c62565b94506060880135915080821115610db357600080fd5b610dbf89838a01610c62565b93506080880135915080821115610dd557600080fd5b50610de288828901610cd3565b9150509295509295909350565b60008060408385031215610e0257600080fd5b82356001600160401b0380821115610e1957600080fd5b818501915085601f830112610e2d57600080fd5b81356020610e3a82610c3f565b604051610e478282610c13565b83815260059390931b8501820192828101915089841115610e6757600080fd5b948201945b83861015610e8c57610e7d86610b08565b82529482019490820190610e6c565b96505086013592505080821115610ea257600080fd5b50610eaf85828601610c62565b9150509250929050565b600081518084526020808501945080840160005b83811015610ee957815187529582019590820190600101610ecd565b509495945050505050565b602081526000610b846020830184610eb9565b60008060408385031215610f1a57600080fd5b610f2383610b08565b915060208301358015158114610f3857600080fd5b809150509250929050565b60008060408385031215610f5657600080fd5b610f5f83610b08565b9150610f6d60208401610b08565b90509250929050565b600080600080600060a08688031215610f8e57600080fd5b610f9786610b08565b9450610fa560208701610b08565b9350604086013592506060860135915060808601356001600160401b03811115610fce57600080fd5b610de288828901610cd3565b600181811c90821680610fee57607f821691505b60208210810361100e57634e487b7160e01b600052602260045260246000fd5b50919050565b6020808252601290820152710853d5d3915497d3d497d054141493d5915160721b604082015260600190565b6020808252600f908201526e0988a9c8ea890be9a92a69a82a8869608b1b604082015260600190565b634e487b7160e01b600052603260045260246000fd5b634e487b7160e01b600052601160045260246000fd5b6000600182016110a7576110a761107f565b5060010190565b6020808252600c908201526b2a27afad22a927afa0a2222960a11b604082015260600190565b60208082526010908201526f125394d551919250d251539517d0905360821b604082015260600190565b808201808211156102085761020861107f565b6040815260006111246040830185610eb9565b82810360208401526111368185610eb9565b95945050505050565b6001600160a01b0386811682528516602082015260a06040820181905260009061116b90830186610eb9565b828103606084015261117d8186610eb9565b905082810360808401526111918185610b8b565b98975050505050505050565b6000602082840312156111af57600080fd5b8151610b8481610b4e565b600060033d11156111d35760046000803e5060005160e01c5b90565b600060443d10156111e45790565b6040516003193d81016004833e81513d6001600160401b03816024840111818411171561121357505050505090565b828501915081518181111561122b5750505050505090565b843d87010160208285010111156112455750505050505090565b61125460208286010187610c13565b509095945050505050565b6020808252600f908201526e1513d2d15394d7d491529150d51151608a1b604082015260600190565b6001600160a01b03868116825285166020820152604081018490526060810183905260a0608082018190526000906112c290830184610b8b565b97965050505050505056fea2646970667358221220d0b96d4a25bbdaf2f17eadac9ad86ca8910c73774385cf81d889f26deefbf2aa64736f6c63430008110033",
  "linkReferences": {},
  "deployedLinkReferences": {}
}