{"contracts/web3GAME.sol":{"web3GAME":{"abi":[{"inputs":[{"internalType":"string","name":"_name","type":"string"},{"internalType":"string","name":"_symbol","type":"string"},{"internalType":"address","name":"_royaltyRecipient","type":"address"},{"internalType":"uint128","name":"_royaltyBps","type":"uint128"}],"stateMutability":"nonpayable","type":"constructor"},{"inputs":[{"internalType":"address","name":"operator","type":"address"}],"name":"OperatorNotAllowed","type":"error"},{"anonymous":false,"inputs":[{"indexed":true,"internalType":"address","name":"_owner","type":"address"},{"indexed":true,"internalType":"address","name":"_operator","type":"address"},{"indexed":false,"internalType":"bool","name":"_approved","type":"bool"}],"name":"ApprovalForAll","type":"event"},{"anonymous":false,"inputs":[{"indexed":false,"internalType":"string","name":"prevURI","type":"string"},{"indexed":false,"internalType":"string","name":"newURI","type":"string"}],"name":"ContractURIUpdated","type":"event"},{"anonymous":false,"inputs":[{"indexed":true,"internalType":"address","name":"newRoyaltyRecipient","type":"address"},{"indexed":false,"internalType":"uint256","name":"newRoyaltyBps","type":"uint256"}],"name":"DefaultRoyalty","type":"event"},{"anonymous":false,"inputs":[{"indexed":false,"internalType":"bool","name":"restriction","type":"bool"}],"name":"OperatorRestriction","type":"event"},{"anonymous":false,"inputs":[{"indexed":true,"internalType":"address","name":"prevOwner","type":"address"},{"indexed":true,"internalType":"address","name":"newOwner","type":"address"}],"name":"OwnerUpdated","type":"event"},{"anonymous":false,"inputs":[{"indexed":true,"internalType":"uint256","name":"tokenId","type":"uint256"},{"indexed":true,"internalType":"address","name":"royaltyRecipient","type":"address"},{"indexed":false,"internalType":"uint256","name":"royaltyBps","type":"uint256"}],"name":"RoyaltyForToken","type":"event"},{"anonymous":false,"inputs":[{"indexed":true,"internalType":"address","name":"_operator","type":"address"},{"indexed":true,"internalType":"address","name":"_from","type":"address"},{"indexed":true,"internalType":"address","name":"_to","type":"address"},{"indexed":false,"internalType":"uint256[]","name":"_ids","type":"uint256[]"},{"indexed":false,"internalType":"uint256[]","name":"_values","type":"uint256[]"}],"name":"TransferBatch","type":"event"},{"anonymous":false,"inputs":[{"indexed":true,"internalType":"address","name":"_operator","type":"address"},{"indexed":true,"internalType":"address","name":"_from","type":"address"},{"indexed":true,"internalType":"address","name":"_to","type":"address"},{"indexed":false,"internalType":"uint256","name":"_id","type":"uint256"},{"indexed":false,"internalType":"uint256","name":"_value","type":"uint256"}],"name":"TransferSingle","type":"event"},{"anonymous":false,"inputs":[{"indexed":false,"internalType":"string","name":"_value","type":"string"},{"indexed":true,"internalType":"uint256","name":"_id","type":"uint256"}],"name":"URI","type":"event"},{"inputs":[],"name":"OPERATOR_FILTER_REGISTRY","outputs":[{"internalType":"contract IOperatorFilterRegistry","name":"","type":"address"}],"stateMutability":"view","type":"function"},{"inputs":[{"internalType":"address","name":"","type":"address"},{"internalType":"uint256","name":"","type":"uint256"}],"name":"balanceOf","outputs":[{"internalType":"uint256","name":"","type":"uint256"}],"stateMutability":"view","type":"function"},{"inputs":[{"internalType":"address[]","name":"accounts","type":"address[]"},{"internalType":"uint256[]","name":"ids","type":"uint256[]"}],"name":"balanceOfBatch","outputs":[{"internalType":"uint256[]","name":"","type":"uint256[]"}],"stateMutability":"view","type":"function"},{"inputs":[{"internalType":"address","name":"_to","type":"address"},{"internalType":"uint256[]","name":"_tokenIds","type":"uint256[]"},{"internalType":"uint256[]","name":"_amounts","type":"uint256[]"},{"internalType":"string","name":"_baseURI","type":"string"}],"name":"batchMintTo","outputs":[],"stateMutability":"nonpayable","type":"function"},{"inputs":[{"internalType":"address","name":"_owner","type":"address"},{"internalType":"uint256","name":"_tokenId","type":"uint256"},{"internalType":"uint256","name":"_amount","type":"uint256"}],"name":"burn","outputs":[],"stateMutability":"nonpayable","type":"function"},{"inputs":[{"internalType":"address","name":"_owner","type":"address"},{"internalType":"uint256[]","name":"_tokenIds","type":"uint256[]"},{"internalType":"uint256[]","name":"_amounts","type":"uint256[]"}],"name":"burnBatch","outputs":[],"stateMutability":"nonpayable","type":"function"},{"inputs":[],"name":"contractURI","outputs":[{"internalType":"string","name":"","type":"string"}],"stateMutability":"view","type":"function"},{"inputs":[{"internalType":"string","name":"_code","type":"string"},{"internalType":"string","name":"_uri","type":"string"},{"internalType":"uint256","name":"_experience","type":"uint256"}],"name":"createRedeemableItem","outputs":[],"stateMutability":"nonpayable","type":"function"},{"inputs":[{"internalType":"uint256","name":"","type":"uint256"}],"name":"experience","outputs":[{"internalType":"uint256","name":"","type":"uint256"}],"stateMutability":"view","type":"function"},{"inputs":[],"name":"getBaseURICount","outputs":[{"internalType":"uint256","name":"","type":"uint256"}],"stateMutability":"view","type":"function"},{"inputs":[{"internalType":"uint256","name":"_index","type":"uint256"}],"name":"getBatchIdAtIndex","outputs":[{"internalType":"uint256","name":"","type":"uint256"}],"stateMutability":"view","type":"function"},{"inputs":[{"internalType":"uint256","name":"_id","type":"uint256"}],"name":"getBokemon","outputs":[{"internalType":"string","name":"","type":"string"},{"internalType":"uint256","name":"","type":"uint256"}],"stateMutability":"view","type":"function"},{"inputs":[{"internalType":"address","name":"_user","type":"address"}],"name":"getBokemonPerUser","outputs":[{"internalType":"uint256[]","name":"","type":"uint256[]"}],"stateMutability":"view","type":"function"},{"inputs":[{"internalType":"uint256","name":"_id","type":"uint256"}],"name":"getBokemonUri","outputs":[{"internalType":"string","name":"","type":"string"}],"stateMutability":"view","type":"function"},{"inputs":[],"name":"getDefaultRoyaltyInfo","outputs":[{"internalType":"address","name":"","type":"address"},{"internalType":"uint16","name":"","type":"uint16"}],"stateMutability":"view","type":"function"},{"inputs":[{"internalType":"uint256","name":"_tokenId","type":"uint256"}],"name":"getRoyaltyInfoForToken","outputs":[{"internalType":"address","name":"","type":"address"},{"internalType":"uint16","name":"","type":"uint16"}],"stateMutability":"view","type":"function"},{"inputs":[{"internalType":"uint256","name":"_id","type":"uint256"},{"internalType":"uint256","name":"_experience","type":"uint256"}],"name":"increaseExperience","outputs":[],"stateMutability":"nonpayable","type":"function"},{"inputs":[{"internalType":"uint256[]","name":"_ids","type":"uint256[]"},{"internalType":"uint256[]","name":"_experience","type":"uint256[]"}],"name":"increaseExperienceBatch","outputs":[],"stateMutability":"nonpayable","type":"function"},{"inputs":[{"internalType":"address","name":"","type":"address"},{"internalType":"address","name":"","type":"address"}],"name":"isApprovedForAll","outputs":[{"internalType":"bool","name":"","type":"bool"}],"stateMutability":"view","type":"function"},{"inputs":[{"internalType":"address","name":"account","type":"address"},{"internalType":"string","name":"uri","type":"string"},{"internalType":"uint256","name":"_experience","type":"uint256"}],"name":"mint","outputs":[{"internalType":"uint256","name":"","type":"uint256"}],"stateMutability":"nonpayable","type":"function"},{"inputs":[{"internalType":"address","name":"account","type":"address"},{"internalType":"string","name":"uri","type":"string"},{"internalType":"uint256","name":"_experience","type":"uint256"},{"internalType":"uint256","name":"_id","type":"uint256"}],"name":"mintSimilar","outputs":[{"internalType":"uint256","name":"","type":"uint256"}],"stateMutability":"nonpayable","type":"function"},{"inputs":[{"internalType":"address","name":"_to","type":"address"},{"internalType":"uint256","name":"_tokenId","type":"uint256"},{"internalType":"string","name":"_tokenURI","type":"string"},{"internalType":"uint256","name":"_amount","type":"uint256"}],"name":"mintTo","outputs":[],"stateMutability":"nonpayable","type":"function"},{"inputs":[{"internalType":"bytes[]","name":"data","type":"bytes[]"}],"name":"multicall","outputs":[{"internalType":"bytes[]","name":"results","type":"bytes[]"}],"stateMutability":"nonpayable","type":"function"},{"inputs":[],"name":"name","outputs":[{"internalType":"string","name":"","type":"string"}],"stateMutability":"view","type":"function"},{"inputs":[],"name":"nextTokenIdToMint","outputs":[{"internalType":"uint256","name":"","type":"uint256"}],"stateMutability":"view","type":"function"},{"inputs":[],"name":"operatorRestriction","outputs":[{"internalType":"bool","name":"","type":"bool"}],"stateMutability":"view","type":"function"},{"inputs":[],"name":"owner","outputs":[{"internalType":"address","name":"","type":"address"}],"stateMutability":"view","type":"function"},{"inputs":[{"internalType":"string","name":"_code","type":"string"}],"name":"redeemItem","outputs":[],"stateMutability":"nonpayable","type":"function"},{"inputs":[{"internalType":"uint256","name":"tokenId","type":"uint256"},{"internalType":"uint256","name":"salePrice","type":"uint256"}],"name":"royaltyInfo","outputs":[{"internalType":"address","name":"receiver","type":"address"},{"internalType":"uint256","name":"royaltyAmount","type":"uint256"}],"stateMutability":"view","type":"function"},{"inputs":[{"internalType":"address","name":"from","type":"address"},{"internalType":"address","name":"to","type":"address"},{"internalType":"uint256[]","name":"ids","type":"uint256[]"},{"internalType":"uint256[]","name":"amounts","type":"uint256[]"},{"internalType":"bytes","name":"data","type":"bytes"}],"name":"safeBatchTransferFrom","outputs":[],"stateMutability":"nonpayable","type":"function"},{"inputs":[{"internalType":"address","name":"from","type":"address"},{"internalType":"address","name":"to","type":"address"},{"internalType":"uint256","name":"id","type":"uint256"},{"internalType":"uint256","name":"amount","type":"uint256"},{"internalType":"bytes","name":"data","type":"bytes"}],"name":"safeTransferFrom","outputs":[],"stateMutability":"nonpayable","type":"function"},{"inputs":[{"internalType":"address","name":"operator","type":"address"},{"internalType":"bool","name":"approved","type":"bool"}],"name":"setApprovalForAll","outputs":[],"stateMutability":"nonpayable","type":"function"},{"inputs":[{"internalType":"string","name":"_uri","type":"string"}],"name":"setContractURI","outputs":[],"stateMutability":"nonpayable","type":"function"},{"inputs":[{"internalType":"address","name":"_royaltyRecipient","type":"address"},{"internalType":"uint256","name":"_royaltyBps","type":"uint256"}],"name":"setDefaultRoyaltyInfo","outputs":[],"stateMutability":"nonpayable","type":"function"},{"inputs":[{"internalType":"bool","name":"_restriction","type":"bool"}],"name":"setOperatorRestriction","outputs":[],"stateMutability":"nonpayable","type":"function"},{"inputs":[{"internalType":"address","name":"_newOwner","type":"address"}],"name":"setOwner","outputs":[],"stateMutability":"nonpayable","type":"function"},{"inputs":[{"internalType":"uint256","name":"_tokenId","type":"uint256"},{"internalType":"address","name":"_recipient","type":"address"},{"internalType":"uint256","name":"_bps","type":"uint256"}],"name":"setRoyaltyInfoForToken","outputs":[],"stateMutability":"nonpayable","type":"function"},{"inputs":[{"internalType":"bytes4","name":"interfaceId","type":"bytes4"}],"name":"supportsInterface","outputs":[{"internalType":"bool","name":"","type":"bool"}],"stateMutability":"view","type":"function"},{"inputs":[],"name":"symbol","outputs":[{"internalType":"string","name":"","type":"string"}],"stateMutability":"view","type":"function"},{"inputs":[{"internalType":"uint256","name":"","type":"uint256"}],"name":"totalSupply","outputs":[{"internalType":"uint256","name":"","type":"uint256"}],"stateMutability":"view","type":"function"},{"inputs":[{"internalType":"uint256","name":"_tokenId","type":"uint256"}],"name":"uri","outputs":[{"internalType":"string","name":"","type":"string"}],"stateMutability":"view","type":"function"}],"evm":{"bytecode":{"linkReferences":{},"object":"60806040523480156200001157600080fd5b5060405162004303380380620043038339810160408190526200003491620003fc565b83838383733cc6cdda760b79bafa08df41ecfa224f810dceb66001858560006200005f838262000537565b5060016200006e828262000537565b5050506daaeb6d7670e522a718067333cd4e3b15620001b65780156200010457604051633e9f1edf60e11b81523060048201526001600160a01b03831660248201526daaeb6d7670e522a718067333cd4e90637d3e3dbe906044015b600060405180830381600087803b158015620000e557600080fd5b505af1158015620000fa573d6000803e3d6000fd5b50505050620001b6565b6001600160a01b03821615620001555760405163a0af290360e01b81523060048201526001600160a01b03831660248201526daaeb6d7670e522a718067333cd4e9063a0af290390604401620000ca565b604051632210724360e11b81523060048201526daaeb6d7670e522a718067333cd4e90634420e48690602401600060405180830381600087803b1580156200019c57600080fd5b505af1158015620001b1573d6000803e3d6000fd5b505050505b50620001c4905033620001f3565b620001d9826001600160801b03831662000245565b620001e56001620002f0565b505050505050505062000603565b600680546001600160a01b038381166001600160a01b0319831681179093556040519116919082907f8292fce18fa69edf4db7b94ea2e58241df0ae57f97e0a6c9b29067028bf92d7690600090a35050565b6127108111156200028e5760405162461bcd60e51b815260206004820152600f60248201526e45786365656473206d61782062707360881b604482015260640160405180910390fd5b600780546001600160a01b0384166001600160b01b03199091168117600160a01b61ffff851602179091556040518281527f90d7ec04bcb8978719414f82e52e4cb651db41d0e6f8cea6118c2191e6183adb9060200160405180910390a25050565b600b805460ff19168215159081179091556040519081527f38475885990d8dfe9ca01f0ef160a1b5514426eab9ddbc953a3353410ba780969060200160405180910390a150565b634e487b7160e01b600052604160045260246000fd5b600082601f8301126200035f57600080fd5b81516001600160401b03808211156200037c576200037c62000337565b604051601f8301601f19908116603f01168101908282118183101715620003a757620003a762000337565b81604052838152602092508683858801011115620003c457600080fd5b600091505b83821015620003e85785820183015181830184015290820190620003c9565b600093810190920192909252949350505050565b600080600080608085870312156200041357600080fd5b84516001600160401b03808211156200042b57600080fd5b62000439888389016200034d565b955060208701519150808211156200045057600080fd5b506200045f878288016200034d565b604087015190945090506001600160a01b03811681146200047f57600080fd5b60608601519092506001600160801b03811681146200049d57600080fd5b939692955090935050565b600181811c90821680620004bd57607f821691505b602082108103620004de57634e487b7160e01b600052602260045260246000fd5b50919050565b601f8211156200053257600081815260208120601f850160051c810160208610156200050d5750805b601f850160051c820191505b818110156200052e5782815560010162000519565b5050505b505050565b81516001600160401b0381111562000553576200055362000337565b6200056b81620005648454620004a8565b84620004e4565b602080601f831160018114620005a357600084156200058a5750858301515b600019600386901b1c1916600185901b1785556200052e565b600085815260208120601f198616915b82811015620005d457888601518255948401946001909101908401620005b3565b5085821015620005f35787850151600019600388901b60f8161c191681555b5050505050600190811b01905550565b613cf080620006136000396000f3fe608060405234801561001057600080fd5b50600436106102525760003560e01c80638da5cb5b11610146578063b4f09b98116100c3578063e8a3d48511610087578063e8a3d485146105ae578063e985e9c5146105b6578063f242432a146105e4578063f5298aca146105f7578063f8508a0b1461060a578063fc2c738d1461061d57600080fd5b8063b4f09b9814610527578063ba7aef431461053a578063bd85b0391461054d578063ce5f036a1461056d578063d3e971651461058e57600080fd5b8063a22cb4651161010a578063a22cb465146104b0578063ac60345b146104c3578063ac9650d8146104d6578063b03f4528146104f6578063b24f2d391461050957600080fd5b80638da5cb5b1461045e578063938e3d7b1461046f578063949c09f71461048257806395d89b41146104955780639bcf7a151461049d57600080fd5b80632eb2c2d6116101d45780634e1273f4116101985780634e1273f414610410578063504c6e0114610423578063600dd5ea1461043057806363b45e2d146104435780636b20c4541461044b57600080fd5b80632eb2c2d61461038057806332f0cd64146103935780633b1475a7146103a657806341f43434146103ae5780634cc157df146103db57600080fd5b80630e89341c1161021b5780630e89341c1461030057806313af4035146103135780632419f51b14610328578063243a7c7b1461033b5780632a55205a1461034e57600080fd5b8062fdd58e146102575780630134671b1461029557806301ffc9a7146102b557806306fdde03146102d85780630cb0fc4d146102ed575b600080fd5b610282610265366004612bee565b600260209081526000928352604080842090915290825290205481565b6040519081526020015b60405180910390f35b6102a86102a3366004612c18565b610630565b60405161028c9190612c6e565b6102c86102c3366004612c97565b610753565b604051901515815260200161028c565b6102e06107c0565b60405161028c9190612d04565b6102826102fb366004612dcc565b61084e565b6102e061030e366004612e29565b610948565b610326610321366004612c18565b610a36565b005b610282610336366004612e29565b610a66565b610326610349366004612e42565b610ad4565b61036161035c366004612e42565b610afb565b604080516001600160a01b03909316835260208301919091520161028c565b61032661038e366004612ef8565b610b38565b6103266103a1366004612faf565b610b67565b600c54610282565b6103c36daaeb6d7670e522a718067333cd4e81565b6040516001600160a01b03909116815260200161028c565b6103ee6103e9366004612e29565b610bd8565b604080516001600160a01b03909316835261ffff90911660208301520161028c565b6102a861041e366004612fcc565b610c43565b600b546102c89060ff1681565b61032661043e366004612bee565b610d57565b600954610282565b610326610459366004613096565b610d89565b6006546001600160a01b03166103c3565b61032661047d366004613109565b610edd565b61032661049036600461313d565b610f0a565b6102e06110e8565b6103266104ab3660046131d5565b6110f5565b6103266104be36600461320a565b611129565b6103266104d1366004613109565b61113d565b6104e96104e4366004613241565b61137d565b60405161028c91906132b5565b610326610504366004613317565b611471565b6007546001600160a01b03811690600160a01b900461ffff166103ee565b610326610535366004613375565b6114f1565b6102826105483660046133c1565b61156a565b61028261055b366004612e29565b600d6020526000908152604090205481565b61058061057b366004612e29565b611617565b60405161028c929190613417565b61028261059c366004612e29565b600f6020526000908152604090205481565b6102e061163b565b6102c86105c4366004613439565b600360209081526000928352604080842090915290825290205460ff1681565b6103266105f236600461346c565b611648565b6103266106053660046134d0565b61166f565b6102e0610618366004612e29565b611716565b61032661062b366004613503565b611721565b60606000805b600e5481101561068b576001600160a01b0384166000908152600260209081526040808320848452909152902054600103610679578161067581613574565b9250505b8061068381613574565b915050610636565b506000816001600160401b038111156106a6576106a6612d17565b6040519080825280602002602001820160405280156106cf578160200160208202803683370190505b5090506000805b600e54811015610749576001600160a01b0386166000908152600260209081526040808320848452909152902054600103610737578083838151811061071e5761071e61358d565b60209081029190910101528161073381613574565b9250505b8061074181613574565b9150506106d6565b5090949350505050565b60006301ffc9a760e01b6001600160e01b0319831614806107845750636cdb3d1360e11b6001600160e01b03198316145b8061079f57506303a24d0760e21b6001600160e01b03198316145b806107ba57506001600160e01b0319821663152a902d60e11b145b92915050565b600080546107cd906135a3565b80601f01602080910402602001604051908101604052809291908181526020018280546107f9906135a3565b80156108465780601f1061081b57610100808354040283529160200191610846565b820191906000526020600020905b81548152906001019060200180831161082957829003601f168201915b505050505081565b6000808451116108795760405162461bcd60e51b8152600401610870906135dd565b60405180910390fd5b600083116108995760405162461bcd60e51b815260040161087090613610565b6001600160a01b0385166108bf5760405162461bcd60e51b815260040161087090613647565b600e5482106109065760405162461bcd60e51b81526020600482015260136024820152721259081b5d5cdd081899481c1c9bdd9a591959606a1b6044820152606401610870565b6000610911600e5490565b90506109208684876001611471565b6000818152600f6020526040902084905561093f600e80546001019055565b95945050505050565b600081815260046020526040812080546060929190610966906135a3565b80601f0160208091040260200160405190810160405280929190818152602001828054610992906135a3565b80156109df5780601f106109b4576101008083540402835291602001916109df565b820191906000526020600020905b8154815290600101906020018083116109c257829003601f168201915b505050505090506000815111156109f65792915050565b6000610a01846117ed565b905080610a0d85611989565b604051602001610a1e929190613679565b60405160208183030381529060405292505050919050565b610a3e611a91565b610a5a5760405162461bcd60e51b8152600401610870906136a8565b610a6381611abe565b50565b6000610a7160095490565b8210610aaf5760405162461bcd60e51b815260206004820152600d60248201526c092dcecc2d8d2c840d2dcc8caf609b1b6044820152606401610870565b60098281548110610ac257610ac261358d565b90600052602060002001549050919050565b6000828152600f602052604081208054839290610af29084906136d0565b90915550505050565b600080600080610b0a86610bd8565b90945084925061ffff169050612710610b2382876136e3565b610b2d9190613710565b925050509250929050565b846001600160a01b0381163314610b5257610b5233611b10565b610b5f8686868686611bd4565b505050505050565b610b6f611a91565b610bcf5760405162461bcd60e51b815260206004820152602b60248201527f4e6f7420617574686f72697a656420746f20736574206f70657261746f72207260448201526a32b9ba3934b1ba34b7b71760a91b6064820152608401610870565b610a6381611c3e565b6000818152600860209081526040808320815180830190925280546001600160a01b031680835260019091015492820192909252829115610c1f5780516020820151610c39565b6007546001600160a01b03811690600160a01b900461ffff165b9250925050915091565b60608151835114610c665760405162461bcd60e51b815260040161087090613724565b600083516001600160401b03811115610c8157610c81612d17565b604051908082528060200260200182016040528015610caa578160200160208202803683370190505b50905060005b8451811015610d4f5760026000868381518110610ccf57610ccf61358d565b60200260200101516001600160a01b03166001600160a01b031681526020019081526020016000206000858381518110610d0b57610d0b61358d565b6020026020010151815260200190815260200160002054828281518110610d3457610d3461358d565b6020908102919091010152610d4881613574565b9050610cb0565b509392505050565b610d5f611a91565b610d7b5760405162461bcd60e51b8152600401610870906136a8565b610d858282611c85565b5050565b336001600160a01b038416811480610dc657506001600160a01b0380851660009081526003602090815260408083209385168352929052205460ff165b610de25760405162461bcd60e51b81526004016108709061374d565b8151835114610e255760405162461bcd60e51b815260206004820152600f60248201526e098cadccee8d040dad2e6dac2e8c6d608b1b6044820152606401610870565b60005b8351811015610ecb57828181518110610e4357610e4361358d565b602002602001015160026000876001600160a01b03166001600160a01b031681526020019081526020016000206000868481518110610e8457610e8461358d565b60200260200101518152602001908152602001600020541015610eb95760405162461bcd60e51b815260040161087090613778565b610ec46001826136d0565b9050610e28565b50610ed7848484611d09565b50505050565b610ee5611a91565b610f015760405162461bcd60e51b8152600401610870906136a8565b610a6381611e8b565b610f12611a91565b610f585760405162461bcd60e51b81526020600482015260176024820152762737ba1030baba3437b934bd32b2103a379036b4b73a1760491b6044820152606401610870565b6000825111610fa05760405162461bcd60e51b815260206004820152601460248201527326b4b73a34b733903d32b937903a37b5b2b7399760611b6044820152606401610870565b8151835114610fe45760405162461bcd60e51b815260206004820152601060248201526f2632b733ba341036b4b9b6b0ba31b41760811b6044820152606401610870565b6000610fef600c5490565b9050806000805b86518110156110a8576000198782815181106110145761101461358d565b60200260200101510361105e57838782815181106110345761103461358d565b602090810291909101015261104a6001856136d0565b93506110576001836136d0565b9150611096565b838782815181106110715761107161358d565b6020026020010151106110965760405162461bcd60e51b8152600401610870906137a9565b6110a16001826136d0565b9050610ff6565b5080156110bd576110ba828286611f67565b50505b82600c819055506110df87878760405180602001604052806000815250611fcb565b50505050505050565b600180546107cd906135a3565b6110fd611a91565b6111195760405162461bcd60e51b8152600401610870906136a8565b611124838383612114565b505050565b8161113381611b10565b61112483836121bc565b600081511161115e5760405162461bcd60e51b8152600401610870906137cd565b60108160405161116e91906137fc565b9081526020016040518091039020546000036111c25760405162461bcd60e51b815260206004820152601360248201527210dbd91948191bd95cc81b9bdd08195e1a5cdd606a1b6044820152606401610870565b601360006010836040516111d691906137fc565b908152604080516020928190038301902054835290820192909252016000205460ff161561123e5760405162461bcd60e51b8152602060048201526015602482015274125d195b48185b1c9958591e481c995919595b5959605a1b6044820152606401610870565b60016013600060108460405161125491906137fc565b908152602001604051809103902054815260200190815260200160002060006101000a81548160ff021916908315150217905550610d8533601160006010856040516112a091906137fc565b908152602001604051809103902054815260200190815260200160002080546112c8906135a3565b80601f01602080910402602001604051908101604052809291908181526020018280546112f4906135a3565b80156113415780601f1061131657610100808354040283529160200191611341565b820191906000526020600020905b81548152906001019060200180831161132457829003601f168201915b50505050506012600060108660405161135a91906137fc565b90815260200160405180910390205481526020019081526020016000205461156a565b6060816001600160401b0381111561139757611397612d17565b6040519080825280602002602001820160405280156113ca57816020015b60608152602001906001900390816113b55790505b50905060005b8281101561146a5761143a308585848181106113ee576113ee61358d565b90506020028101906114009190613818565b8080601f01602080910402602001604051908101604052809392919081815260200183838082843760009201919091525061226b92505050565b82828151811061144c5761144c61358d565b6020026020010181905250808061146290613574565b9150506113d0565b5092915050565b60008061147d600c5490565b905060001985036114b3578091506001600c600082825461149e91906136d0565b909155506114ae90508185612290565b6114d6565b8085106114d25760405162461bcd60e51b8152600401610870906137a9565b8491505b610b5f868385604051806020016040528060008152506122a8565b60005b82518110156111245781818151811061150f5761150f61358d565b6020026020010151600f600085848151811061152d5761152d61358d565b60200260200101518152602001908152602001600020600082825461155291906136d0565b9091555081905061156281613574565b9150506114f4565b60008083511161158c5760405162461bcd60e51b8152600401610870906135dd565b600082116115ac5760405162461bcd60e51b815260040161087090613610565b6001600160a01b0384166115d25760405162461bcd60e51b815260040161087090613647565b60006115dd600e5490565b90506115ee85600019866001611471565b6000818152600f6020526040902083905561160d600e80546001019055565b90505b9392505050565b6060600061162483610948565b6000938452600f6020526040909320549293915050565b600580546107cd906135a3565b846001600160a01b03811633146116625761166233611b10565b610b5f868686868661236f565b336001600160a01b0384168114806116ac57506001600160a01b0380851660009081526003602090815260408083209385168352929052205460ff165b6116c85760405162461bcd60e51b81526004016108709061374d565b6001600160a01b038416600090815260026020908152604080832086845290915290205482111561170b5760405162461bcd60e51b815260040161087090613778565b610ed78484846123d2565b60606107ba82610948565b60008351116117425760405162461bcd60e51b8152600401610870906137cd565b60008251116117635760405162461bcd60e51b8152600401610870906135dd565b600081116117835760405162461bcd60e51b815260040161087090613610565b611791601480546001019055565b600061179c60145490565b9050806010856040516117af91906137fc565b90815260408051602092819003830190209290925560008381526011909152206117d984826138ab565b506000908152601260205260409020555050565b606060006117fa60095490565b90506000600980548060200260200160405190810160405280929190818152602001828054801561184a57602002820191906000526020600020905b815481526020019060010190808311611836575b5050505050905060005b8281101561194e5781818151811061186e5761186e61358d565b602002602001015185101561193c57600a60008383815181106118935761189361358d565b6020026020010151815260200190815260200160002080546118b4906135a3565b80601f01602080910402602001604051908101604052809291908181526020018280546118e0906135a3565b801561192d5780601f106119025761010080835404028352916020019161192d565b820191906000526020600020905b81548152906001019060200180831161191057829003601f168201915b50505050509350505050919050565b6119476001826136d0565b9050611854565b5060405162461bcd60e51b815260206004820152600f60248201526e125b9d985b1a59081d1bdad95b9259608a1b6044820152606401610870565b6060816000036119b05750506040805180820190915260018152600360fc1b602082015290565b8160005b81156119da57806119c481613574565b91506119d39050600a83613710565b91506119b4565b6000816001600160401b038111156119f4576119f4612d17565b6040519080825280601f01601f191660200182016040528015611a1e576020820181803683370190505b5090505b8415611a8957611a3360018361396a565b9150611a40600a8661397d565b611a4b9060306136d0565b60f81b818381518110611a6057611a6061358d565b60200101906001600160f81b031916908160001a905350611a82600a86613710565b9450611a22565b949350505050565b6000611aa56006546001600160a01b031690565b6001600160a01b0316336001600160a01b031614905090565b600680546001600160a01b038381166001600160a01b0319831681179093556040519116919082907f8292fce18fa69edf4db7b94ea2e58241df0ae57f97e0a6c9b29067028bf92d7690600090a35050565b600b5460ff1615610a63576daaeb6d7670e522a718067333cd4e3b15610a6357604051633185c44d60e21b81523060048201526001600160a01b03821660248201526daaeb6d7670e522a718067333cd4e9063c617113490604401602060405180830381865afa158015611b88573d6000803e3d6000fd5b505050506040513d601f19601f82011682018060405250810190611bac9190613991565b610a6357604051633b79c77360e21b81526001600160a01b0382166004820152602401610870565b6001600160a01b038516331480611c0e57506001600160a01b038516600090815260036020908152604080832033845290915290205460ff165b611c2a5760405162461bcd60e51b8152600401610870906139ae565b611c3785858585856124c4565b5050505050565b600b805460ff19168215159081179091556040519081527f38475885990d8dfe9ca01f0ef160a1b5514426eab9ddbc953a3353410ba780969060200160405180910390a150565b612710811115611ca75760405162461bcd60e51b8152600401610870906139da565b600780546001600160a01b0384166001600160b01b03199091168117600160a01b61ffff851602179091556040518281527f90d7ec04bcb8978719414f82e52e4cb651db41d0e6f8cea6118c2191e6183adb9060200160405180910390a25050565b6001600160a01b038316611d2f5760405162461bcd60e51b815260040161087090613a03565b8051825114611d505760405162461bcd60e51b815260040161087090613724565b6000339050611d7381856000868660405180602001604052806000815250612665565b60005b8351811015611e3e576000848281518110611d9357611d9361358d565b602002602001015190506000848381518110611db157611db161358d565b6020908102919091018101516001600160a01b0389166000908152600283526040808220868352909352919091205490915081811015611e035760405162461bcd60e51b815260040161087090613a2b565b6001600160a01b0388166000908152600260209081526040808320958352949052929092209103905580611e3681613574565b915050611d76565b5060006001600160a01b0316846001600160a01b0316826001600160a01b0316600080516020613c548339815191528686604051611e7d929190613a55565b60405180910390a450505050565b600060058054611e9a906135a3565b80601f0160208091040260200160405190810160405280929190818152602001828054611ec6906135a3565b8015611f135780601f10611ee857610100808354040283529160200191611f13565b820191906000526020600020905b815481529060010190602001808311611ef657829003601f168201915b505050505090508160059081611f2991906138ab565b507fc9c7c3fe08b88b4df9d4d47ef47d2c43d55c025a0ba88ca442580ed9e7348a168183604051611f5b929190613a7a565b60405180910390a15050565b600080611f7484866136d0565b60098054600181019091557f6e1540171b6c0c960b71a7020d9f60077f6af931a8bbf590da0223dacf75c7af018190556000818152600a60205260409020909250829150611fc284826138ab565b50935093915050565b6001600160a01b038416611ff15760405162461bcd60e51b815260040161087090613a9f565b81518351146120125760405162461bcd60e51b815260040161087090613724565b3361202281600087878787612665565b60005b84518110156120be578381815181106120405761204061358d565b602002602001015160026000886001600160a01b03166001600160a01b0316815260200190815260200160002060008784815181106120815761208161358d565b6020026020010151815260200190815260200160002060008282546120a691906136d0565b909155508190506120b681613574565b915050612025565b50846001600160a01b031660006001600160a01b0316826001600160a01b0316600080516020613c5483398151915287876040516120fd929190613a55565b60405180910390a4611c3781600087878787612771565b6127108111156121365760405162461bcd60e51b8152600401610870906139da565b6040805180820182526001600160a01b038481168083526020808401868152600089815260088352869020945185546001600160a01b031916941693909317845591516001909301929092559151838152909185917f7365cf4122f072a3365c20d54eff9b38d73c096c28e1892ec8f5b0e403a0f12d91015b60405180910390a3505050565b336001600160a01b03831681036122065760405162461bcd60e51b815260206004820152600e60248201526d20a8282927ab24a723afa9a2a62360911b6044820152606401610870565b6001600160a01b03818116600081815260036020908152604080832094881680845294825291829020805460ff191687151590811790915591519182527f17307eab39ab6107e8899845ad3d59bd9653f200f220920489ca2b5937696c3191016121af565b60606116108383604051806060016040528060278152602001613c94602791396128a2565b600082815260046020526040902061112482826138ab565b6001600160a01b0384166122ce5760405162461bcd60e51b815260040161087090613a9f565b336122ee816000876122df8861297f565b6122e88861297f565b87612665565b6001600160a01b0385166000908152600260209081526040808320878452909152812080548592906123219084906136d0565b909155505060408051858152602081018590526001600160a01b038088169260009291851691600080516020613c74833981519152910160405180910390a4611c37816000878787876129ca565b6001600160a01b0385163314806123a957506001600160a01b038516600090815260036020908152604080832033845290915290205460ff165b6123c55760405162461bcd60e51b8152600401610870906139ae565b611c378585858585612a85565b6001600160a01b0383166123f85760405162461bcd60e51b815260040161087090613a03565b33612427818560006124098761297f565b6124128761297f565b60405180602001604052806000815250612665565b6001600160a01b03841660009081526002602090815260408083208684529091529020548281101561246b5760405162461bcd60e51b815260040161087090613a2b565b6001600160a01b0385811660008181526002602090815260408083208984528252808320888703905580518981529182018890529193861691600080516020613c74833981519152910160405180910390a45050505050565b81518351146124e55760405162461bcd60e51b815260040161087090613724565b6001600160a01b03841661250b5760405162461bcd60e51b815260040161087090613a9f565b3361251a818787878787612665565b60005b845181101561261157600085828151811061253a5761253a61358d565b6020026020010151905060008583815181106125585761255861358d565b6020908102919091018101516001600160a01b038b1660009081526002835260408082208683529093529190912054909150818110156125aa5760405162461bcd60e51b815260040161087090613a2b565b6001600160a01b03808b16600090815260026020818152604080842088855282528084208787039055938d168352908152828220868352905290812080548492906125f69084906136d0565b925050819055505050508061260a90613574565b905061251d565b50846001600160a01b0316866001600160a01b0316826001600160a01b0316600080516020613c54833981519152878760405161264f929190613a55565b60405180910390a4610b5f818787878787612771565b6001600160a01b0385166126ec5760005b83518110156126ea578281815181106126915761269161358d565b6020026020010151600d60008684815181106126af576126af61358d565b6020026020010151815260200190815260200160002060008282546126d491906136d0565b909155506126e3905081613574565b9050612676565b505b6001600160a01b038416610b5f5760005b83518110156110df578281815181106127185761271861358d565b6020026020010151600d60008684815181106127365761273661358d565b60200260200101518152602001908152602001600020600082825461275b919061396a565b9091555061276a905081613574565b90506126fd565b6001600160a01b0384163b15610b5f5760405163bc197c8160e01b81526001600160a01b0385169063bc197c81906127b59089908990889088908890600401613ac5565b6020604051808303816000875af19250505080156127f0575060408051601f3d908101601f191682019092526127ed91810190613b23565b60015b612872576127fc613b40565b806308c379a0036128355750612810613b5c565b8061281b5750612837565b8060405162461bcd60e51b81526004016108709190612d04565b505b60405162461bcd60e51b815260206004820152601060248201526f10a2a92198989a9aa922a1a2a4ab22a960811b6044820152606401610870565b6001600160e01b0319811663bc197c8160e01b146110df5760405162461bcd60e51b815260040161087090613be5565b60606001600160a01b0384163b61290a5760405162461bcd60e51b815260206004820152602660248201527f416464726573733a2064656c65676174652063616c6c20746f206e6f6e2d636f6044820152651b9d1c9858dd60d21b6064820152608401610870565b600080856001600160a01b03168560405161292591906137fc565b600060405180830381855af49150503d8060008114612960576040519150601f19603f3d011682016040523d82523d6000602084013e612965565b606091505b5091509150612975828286612b99565b9695505050505050565b604080516001808252818301909252606091600091906020808301908036833701905050905082816000815181106129b9576129b961358d565b602090810291909101015292915050565b6001600160a01b0384163b15610b5f5760405163f23a6e6160e01b81526001600160a01b0385169063f23a6e6190612a0e9089908990889088908890600401613c0e565b6020604051808303816000875af1925050508015612a49575060408051601f3d908101601f19168201909252612a4691810190613b23565b60015b612a55576127fc613b40565b6001600160e01b0319811663f23a6e6160e01b146110df5760405162461bcd60e51b815260040161087090613be5565b6001600160a01b038416612aab5760405162461bcd60e51b815260040161087090613a9f565b33612abb8187876122df8861297f565b6001600160a01b038616600090815260026020908152604080832087845290915290205483811015612aff5760405162461bcd60e51b815260040161087090613a2b565b6001600160a01b0380881660009081526002602081815260408084208a855282528084208987039055938a16835290815282822088835290529081208054869290612b4b9084906136d0565b909155505060408051868152602081018690526001600160a01b03808916928a82169291861691600080516020613c74833981519152910160405180910390a46110df8288888888886129ca565b60608315612ba8575081611610565b825115612bb85782518084602001fd5b8160405162461bcd60e51b81526004016108709190612d04565b80356001600160a01b0381168114612be957600080fd5b919050565b60008060408385031215612c0157600080fd5b612c0a83612bd2565b946020939093013593505050565b600060208284031215612c2a57600080fd5b61161082612bd2565b600081518084526020808501945080840160005b83811015612c6357815187529582019590820190600101612c47565b509495945050505050565b6020815260006116106020830184612c33565b6001600160e01b031981168114610a6357600080fd5b600060208284031215612ca957600080fd5b813561161081612c81565b60005b83811015612ccf578181015183820152602001612cb7565b50506000910152565b60008151808452612cf0816020860160208601612cb4565b601f01601f19169290920160200192915050565b6020815260006116106020830184612cd8565b634e487b7160e01b600052604160045260246000fd5b601f8201601f191681016001600160401b0381118282101715612d5257612d52612d17565b6040525050565b600082601f830112612d6a57600080fd5b81356001600160401b03811115612d8357612d83612d17565b604051612d9a601f8301601f191660200182612d2d565b818152846020838601011115612daf57600080fd5b816020850160208301376000918101602001919091529392505050565b60008060008060808587031215612de257600080fd5b612deb85612bd2565b935060208501356001600160401b03811115612e0657600080fd5b612e1287828801612d59565b949794965050505060408301359260600135919050565b600060208284031215612e3b57600080fd5b5035919050565b60008060408385031215612e5557600080fd5b50508035926020909101359150565b60006001600160401b03821115612e7d57612e7d612d17565b5060051b60200190565b600082601f830112612e9857600080fd5b81356020612ea582612e64565b604051612eb28282612d2d565b83815260059390931b8501820192828101915086841115612ed257600080fd5b8286015b84811015612eed5780358352918301918301612ed6565b509695505050505050565b600080600080600060a08688031215612f1057600080fd5b612f1986612bd2565b9450612f2760208701612bd2565b935060408601356001600160401b0380821115612f4357600080fd5b612f4f89838a01612e87565b94506060880135915080821115612f6557600080fd5b612f7189838a01612e87565b93506080880135915080821115612f8757600080fd5b50612f9488828901612d59565b9150509295509295909350565b8015158114610a6357600080fd5b600060208284031215612fc157600080fd5b813561161081612fa1565b60008060408385031215612fdf57600080fd5b82356001600160401b0380821115612ff657600080fd5b818501915085601f83011261300a57600080fd5b8135602061301782612e64565b6040516130248282612d2d565b83815260059390931b850182019282810191508984111561304457600080fd5b948201945b838610156130695761305a86612bd2565b82529482019490820190613049565b9650508601359250508082111561307f57600080fd5b5061308c85828601612e87565b9150509250929050565b6000806000606084860312156130ab57600080fd5b6130b484612bd2565b925060208401356001600160401b03808211156130d057600080fd5b6130dc87838801612e87565b935060408601359150808211156130f257600080fd5b506130ff86828701612e87565b9150509250925092565b60006020828403121561311b57600080fd5b81356001600160401b0381111561313157600080fd5b611a8984828501612d59565b6000806000806080858703121561315357600080fd5b61315c85612bd2565b935060208501356001600160401b038082111561317857600080fd5b61318488838901612e87565b9450604087013591508082111561319a57600080fd5b6131a688838901612e87565b935060608701359150808211156131bc57600080fd5b506131c987828801612d59565b91505092959194509250565b6000806000606084860312156131ea57600080fd5b833592506131fa60208501612bd2565b9150604084013590509250925092565b6000806040838503121561321d57600080fd5b61322683612bd2565b9150602083013561323681612fa1565b809150509250929050565b6000806020838503121561325457600080fd5b82356001600160401b038082111561326b57600080fd5b818501915085601f83011261327f57600080fd5b81358181111561328e57600080fd5b8660208260051b85010111156132a357600080fd5b60209290920196919550909350505050565b6000602080830181845280855180835260408601915060408160051b870101925083870160005b8281101561330a57603f198886030184526132f8858351612cd8565b945092850192908501906001016132dc565b5092979650505050505050565b6000806000806080858703121561332d57600080fd5b61333685612bd2565b93506020850135925060408501356001600160401b0381111561335857600080fd5b61336487828801612d59565b949793965093946060013593505050565b6000806040838503121561338857600080fd5b82356001600160401b038082111561339f57600080fd5b6133ab86838701612e87565b9350602085013591508082111561307f57600080fd5b6000806000606084860312156133d657600080fd5b6133df84612bd2565b925060208401356001600160401b038111156133fa57600080fd5b61340686828701612d59565b925050604084013590509250925092565b60408152600061342a6040830185612cd8565b90508260208301529392505050565b6000806040838503121561344c57600080fd5b61345583612bd2565b915061346360208401612bd2565b90509250929050565b600080600080600060a0868803121561348457600080fd5b61348d86612bd2565b945061349b60208701612bd2565b9350604086013592506060860135915060808601356001600160401b038111156134c457600080fd5b612f9488828901612d59565b6000806000606084860312156134e557600080fd5b6134ee84612bd2565b95602085013595506040909401359392505050565b60008060006060848603121561351857600080fd5b83356001600160401b038082111561352f57600080fd5b61353b87838801612d59565b9450602086013591508082111561355157600080fd5b5061340686828701612d59565b634e487b7160e01b600052601160045260246000fd5b6000600182016135865761358661355e565b5060010190565b634e487b7160e01b600052603260045260246000fd5b600181811c908216806135b757607f821691505b6020821081036135d757634e487b7160e01b600052602260045260246000fd5b50919050565b60208082526019908201527813595d1859185d18481b5d5cdd081899481c1c9bdd9a591959603a1b604082015260600190565b6020808252601b908201527f457870657269656e6365206d7573742062652070726f76696465640000000000604082015260600190565b6020808252601890820152771058d8dbdd5b9d081b5d5cdd081899481c1c9bdd9a59195960421b604082015260600190565b6000835161368b818460208801612cb4565b83519083019061369f818360208801612cb4565b01949350505050565b6020808252600e908201526d139bdd08185d5d1a1bdc9a5e995960921b604082015260600190565b808201808211156107ba576107ba61355e565b80820281158282048414176107ba576107ba61355e565b634e487b7160e01b600052601260045260246000fd5b60008261371f5761371f6136fa565b500490565b6020808252600f908201526e0988a9c8ea890be9a92a69a82a8869608b1b604082015260600190565b6020808252601190820152702ab730b8383937bb32b21031b0b63632b960791b604082015260600190565b602080825260179082015276139bdd08195b9bdd59da081d1bdad95b9cc81bdddb9959604a1b604082015260600190565b6020808252600a90820152691a5b9d985b1a59081a5960b21b604082015260600190565b60208082526015908201527410dbd919481b5d5cdd081899481c1c9bdd9a591959605a1b604082015260600190565b6000825161380e818460208701612cb4565b9190910192915050565b6000808335601e1984360301811261382f57600080fd5b8301803591506001600160401b0382111561384957600080fd5b60200191503681900382131561385e57600080fd5b9250929050565b601f82111561112457600081815260208120601f850160051c8101602086101561388c5750805b601f850160051c820191505b81811015610b5f57828155600101613898565b81516001600160401b038111156138c4576138c4612d17565b6138d8816138d284546135a3565b84613865565b602080601f83116001811461390d57600084156138f55750858301515b600019600386901b1c1916600185901b178555610b5f565b600085815260208120601f198616915b8281101561393c5788860151825594840194600190910190840161391d565b508582101561395a5787850151600019600388901b60f8161c191681555b5050505050600190811b01905550565b818103818111156107ba576107ba61355e565b60008261398c5761398c6136fa565b500690565b6000602082840312156139a357600080fd5b815161161081612fa1565b6020808252601290820152710853d5d3915497d3d497d054141493d5915160721b604082015260600190565b6020808252600f908201526e45786365656473206d61782062707360881b604082015260600190565b6020808252600e908201526d232927a6afad22a927afa0a2222960911b604082015260600190565b60208082526010908201526f125394d551919250d251539517d0905360821b604082015260600190565b604081526000613a686040830185612c33565b828103602084015261093f8185612c33565b604081526000613a8d6040830185612cd8565b828103602084015261093f8185612cd8565b6020808252600c908201526b2a27afad22a927afa0a2222960a11b604082015260600190565b6001600160a01b0386811682528516602082015260a060408201819052600090613af190830186612c33565b8281036060840152613b038186612c33565b90508281036080840152613b178185612cd8565b98975050505050505050565b600060208284031215613b3557600080fd5b815161161081612c81565b600060033d1115613b595760046000803e5060005160e01c5b90565b600060443d1015613b6a5790565b6040516003193d81016004833e81513d6001600160401b038160248401118184111715613b9957505050505090565b8285019150815181811115613bb15750505050505090565b843d8701016020828501011115613bcb5750505050505090565b613bda60208286010187612d2d565b509095945050505050565b6020808252600f908201526e1513d2d15394d7d491529150d51151608a1b604082015260600190565b6001600160a01b03868116825285166020820152604081018490526060810183905260a060808201819052600090613c4890830184612cd8565b97965050505050505056fe4a39dc06d4c0dbc64b70af90fd698a233a518aa5d07e595d983b8c0526c8f7fbc3d58168c5ae7397731d063d5bbf3d657854427343f4c083240f7aacaa2d0f62416464726573733a206c6f772d6c6576656c2064656c65676174652063616c6c206661696c6564a2646970667358221220954ecfaedbeda882c3e6df3de7de334e12bdb2a484ab1794669ddd659210ecbb64736f6c63430008110033","opcodes":"PUSH1 0x80 PUSH1 0x40 MSTORE CALLVALUE DUP1 ISZERO PUSH3 0x11 JUMPI PUSH1 0x0 DUP1 REVERT JUMPDEST POP PUSH1 0x40 MLOAD PUSH3 0x4303 CODESIZE SUB DUP1 PUSH3 0x4303 DUP4 CODECOPY DUP2 ADD PUSH1 0x40 DUP2 SWAP1 MSTORE PUSH3 0x34 SWAP2 PUSH3 0x3FC JUMP JUMPDEST DUP4 DUP4 DUP4 DUP4 PUSH20 0x3CC6CDDA760B79BAFA08DF41ECFA224F810DCEB6 PUSH1 0x1 DUP6 DUP6 PUSH1 0x0 PUSH3 0x5F DUP4 DUP3 PUSH3 0x537 JUMP JUMPDEST POP PUSH1 0x1 PUSH3 0x6E DUP3 DUP3 PUSH3 0x537 JUMP JUMPDEST POP POP POP PUSH14 0xAAEB6D7670E522A718067333CD4E EXTCODESIZE ISZERO PUSH3 0x1B6 JUMPI DUP1 ISZERO PUSH3 0x104 JUMPI PUSH1 0x40 MLOAD PUSH4 0x3E9F1EDF PUSH1 0xE1 SHL DUP2 MSTORE ADDRESS PUSH1 0x4 DUP3 ADD MSTORE PUSH1 0x1 PUSH1 0x1 PUSH1 0xA0 SHL SUB DUP4 AND PUSH1 0x24 DUP3 ADD MSTORE PUSH14 0xAAEB6D7670E522A718067333CD4E SWAP1 PUSH4 0x7D3E3DBE SWAP1 PUSH1 0x44 ADD JUMPDEST PUSH1 0x0 PUSH1 0x40 MLOAD DUP1 DUP4 SUB DUP2 PUSH1 0x0 DUP8 DUP1 EXTCODESIZE ISZERO DUP1 ISZERO PUSH3 0xE5 JUMPI PUSH1 0x0 DUP1 REVERT JUMPDEST POP GAS CALL ISZERO DUP1 ISZERO PUSH3 0xFA JUMPI RETURNDATASIZE PUSH1 0x0 DUP1 RETURNDATACOPY RETURNDATASIZE PUSH1 0x0 REVERT JUMPDEST POP POP POP POP PUSH3 0x1B6 JUMP JUMPDEST PUSH1 0x1 PUSH1 0x1 PUSH1 0xA0 SHL SUB DUP3 AND ISZERO PUSH3 0x155 JUMPI PUSH1 0x40 MLOAD PUSH4 0xA0AF2903 PUSH1 0xE0 SHL DUP2 MSTORE ADDRESS PUSH1 0x4 DUP3 ADD MSTORE PUSH1 0x1 PUSH1 0x1 PUSH1 0xA0 SHL SUB DUP4 AND PUSH1 0x24 DUP3 ADD MSTORE PUSH14 0xAAEB6D7670E522A718067333CD4E SWAP1 PUSH4 0xA0AF2903 SWAP1 PUSH1 0x44 ADD PUSH3 0xCA JUMP JUMPDEST PUSH1 0x40 MLOAD PUSH4 0x22107243 PUSH1 0xE1 SHL DUP2 MSTORE ADDRESS PUSH1 0x4 DUP3 ADD MSTORE PUSH14 0xAAEB6D7670E522A718067333CD4E SWAP1 PUSH4 0x4420E486 SWAP1 PUSH1 0x24 ADD PUSH1 0x0 PUSH1 0x40 MLOAD DUP1 DUP4 SUB DUP2 PUSH1 0x0 DUP8 DUP1 EXTCODESIZE ISZERO DUP1 ISZERO PUSH3 0x19C JUMPI PUSH1 0x0 DUP1 REVERT JUMPDEST POP GAS CALL ISZERO DUP1 ISZERO PUSH3 0x1B1 JUMPI RETURNDATASIZE PUSH1 0x0 DUP1 RETURNDATACOPY RETURNDATASIZE PUSH1 0x0 REVERT JUMPDEST POP POP POP POP JUMPDEST POP PUSH3 0x1C4 SWAP1 POP CALLER PUSH3 0x1F3 JUMP JUMPDEST PUSH3 0x1D9 DUP3 PUSH1 0x1 PUSH1 0x1 PUSH1 0x80 SHL SUB DUP4 AND PUSH3 0x245 JUMP JUMPDEST PUSH3 0x1E5 PUSH1 0x1 PUSH3 0x2F0 JUMP JUMPDEST POP POP POP POP POP POP POP POP PUSH3 0x603 JUMP JUMPDEST PUSH1 0x6 DUP1 SLOAD PUSH1 0x1 PUSH1 0x1 PUSH1 0xA0 SHL SUB DUP4 DUP2 AND PUSH1 0x1 PUSH1 0x1 PUSH1 0xA0 SHL SUB NOT DUP4 AND DUP2 OR SWAP1 SWAP4 SSTORE PUSH1 0x40 MLOAD SWAP2 AND SWAP2 SWAP1 DUP3 SWAP1 PUSH32 0x8292FCE18FA69EDF4DB7B94EA2E58241DF0AE57F97E0A6C9B29067028BF92D76 SWAP1 PUSH1 0x0 SWAP1 LOG3 POP POP JUMP JUMPDEST PUSH2 0x2710 DUP2 GT ISZERO PUSH3 0x28E JUMPI PUSH1 0x40 MLOAD PUSH3 0x461BCD PUSH1 0xE5 SHL DUP2 MSTORE PUSH1 0x20 PUSH1 0x4 DUP3 ADD MSTORE PUSH1 0xF PUSH1 0x24 DUP3 ADD MSTORE PUSH15 0x45786365656473206D617820627073 PUSH1 0x88 SHL PUSH1 0x44 DUP3 ADD MSTORE PUSH1 0x64 ADD PUSH1 0x40 MLOAD DUP1 SWAP2 SUB SWAP1 REVERT JUMPDEST PUSH1 0x7 DUP1 SLOAD PUSH1 0x1 PUSH1 0x1 PUSH1 0xA0 SHL SUB DUP5 AND PUSH1 0x1 PUSH1 0x1 PUSH1 0xB0 SHL SUB NOT SWAP1 SWAP2 AND DUP2 OR PUSH1 0x1 PUSH1 0xA0 SHL PUSH2 0xFFFF DUP6 AND MUL OR SWAP1 SWAP2 SSTORE PUSH1 0x40 MLOAD DUP3 DUP2 MSTORE PUSH32 0x90D7EC04BCB8978719414F82E52E4CB651DB41D0E6F8CEA6118C2191E6183ADB SWAP1 PUSH1 0x20 ADD PUSH1 0x40 MLOAD DUP1 SWAP2 SUB SWAP1 LOG2 POP POP JUMP JUMPDEST PUSH1 0xB DUP1 SLOAD PUSH1 0xFF NOT AND DUP3 ISZERO ISZERO SWAP1 DUP2 OR SWAP1 SWAP2 SSTORE PUSH1 0x40 MLOAD SWAP1 DUP2 MSTORE PUSH32 0x38475885990D8DFE9CA01F0EF160A1B5514426EAB9DDBC953A3353410BA78096 SWAP1 PUSH1 0x20 ADD PUSH1 0x40 MLOAD DUP1 SWAP2 SUB SWAP1 LOG1 POP JUMP JUMPDEST PUSH4 0x4E487B71 PUSH1 0xE0 SHL PUSH1 0x0 MSTORE PUSH1 0x41 PUSH1 0x4 MSTORE PUSH1 0x24 PUSH1 0x0 REVERT JUMPDEST PUSH1 0x0 DUP3 PUSH1 0x1F DUP4 ADD SLT PUSH3 0x35F JUMPI PUSH1 0x0 DUP1 REVERT JUMPDEST DUP2 MLOAD PUSH1 0x1 PUSH1 0x1 PUSH1 0x40 SHL SUB DUP1 DUP3 GT ISZERO PUSH3 0x37C JUMPI PUSH3 0x37C PUSH3 0x337 JUMP JUMPDEST PUSH1 0x40 MLOAD PUSH1 0x1F DUP4 ADD PUSH1 0x1F NOT SWAP1 DUP2 AND PUSH1 0x3F ADD AND DUP2 ADD SWAP1 DUP3 DUP3 GT DUP2 DUP4 LT OR ISZERO PUSH3 0x3A7 JUMPI PUSH3 0x3A7 PUSH3 0x337 JUMP JUMPDEST DUP2 PUSH1 0x40 MSTORE DUP4 DUP2 MSTORE PUSH1 0x20 SWAP3 POP DUP7 DUP4 DUP6 DUP9 ADD ADD GT ISZERO PUSH3 0x3C4 JUMPI PUSH1 0x0 DUP1 REVERT JUMPDEST PUSH1 0x0 SWAP2 POP JUMPDEST DUP4 DUP3 LT ISZERO PUSH3 0x3E8 JUMPI DUP6 DUP3 ADD DUP4 ADD MLOAD DUP2 DUP4 ADD DUP5 ADD MSTORE SWAP1 DUP3 ADD SWAP1 PUSH3 0x3C9 JUMP JUMPDEST PUSH1 0x0 SWAP4 DUP2 ADD SWAP1 SWAP3 ADD SWAP3 SWAP1 SWAP3 MSTORE SWAP5 SWAP4 POP POP POP POP JUMP JUMPDEST PUSH1 0x0 DUP1 PUSH1 0x0 DUP1 PUSH1 0x80 DUP6 DUP8 SUB SLT ISZERO PUSH3 0x413 JUMPI PUSH1 0x0 DUP1 REVERT JUMPDEST DUP5 MLOAD PUSH1 0x1 PUSH1 0x1 PUSH1 0x40 SHL SUB DUP1 DUP3 GT ISZERO PUSH3 0x42B JUMPI PUSH1 0x0 DUP1 REVERT JUMPDEST PUSH3 0x439 DUP9 DUP4 DUP10 ADD PUSH3 0x34D JUMP JUMPDEST SWAP6 POP PUSH1 0x20 DUP8 ADD MLOAD SWAP2 POP DUP1 DUP3 GT ISZERO PUSH3 0x450 JUMPI PUSH1 0x0 DUP1 REVERT JUMPDEST POP PUSH3 0x45F DUP8 DUP3 DUP9 ADD PUSH3 0x34D JUMP JUMPDEST PUSH1 0x40 DUP8 ADD MLOAD SWAP1 SWAP5 POP SWAP1 POP PUSH1 0x1 PUSH1 0x1 PUSH1 0xA0 SHL SUB DUP2 AND DUP2 EQ PUSH3 0x47F JUMPI PUSH1 0x0 DUP1 REVERT JUMPDEST PUSH1 0x60 DUP7 ADD MLOAD SWAP1 SWAP3 POP PUSH1 0x1 PUSH1 0x1 PUSH1 0x80 SHL SUB DUP2 AND DUP2 EQ PUSH3 0x49D JUMPI PUSH1 0x0 DUP1 REVERT JUMPDEST SWAP4 SWAP7 SWAP3 SWAP6 POP SWAP1 SWAP4 POP POP JUMP JUMPDEST PUSH1 0x1 DUP2 DUP2 SHR SWAP1 DUP3 AND DUP1 PUSH3 0x4BD JUMPI PUSH1 0x7F DUP3 AND SWAP2 POP JUMPDEST PUSH1 0x20 DUP3 LT DUP2 SUB PUSH3 0x4DE JUMPI PUSH4 0x4E487B71 PUSH1 0xE0 SHL PUSH1 0x0 MSTORE PUSH1 0x22 PUSH1 0x4 MSTORE PUSH1 0x24 PUSH1 0x0 REVERT JUMPDEST POP SWAP2 SWAP1 POP JUMP JUMPDEST PUSH1 0x1F DUP3 GT ISZERO PUSH3 0x532 JUMPI PUSH1 0x0 DUP2 DUP2 MSTORE PUSH1 0x20 DUP2 KECCAK256 PUSH1 0x1F DUP6 ADD PUSH1 0x5 SHR DUP2 ADD PUSH1 0x20 DUP7 LT ISZERO PUSH3 0x50D JUMPI POP DUP1 JUMPDEST PUSH1 0x1F DUP6 ADD PUSH1 0x5 SHR DUP3 ADD SWAP2 POP JUMPDEST DUP2 DUP2 LT ISZERO PUSH3 0x52E JUMPI DUP3 DUP2 SSTORE PUSH1 0x1 ADD PUSH3 0x519 JUMP JUMPDEST POP POP POP JUMPDEST POP POP POP JUMP JUMPDEST DUP2 MLOAD PUSH1 0x1 PUSH1 0x1 PUSH1 0x40 SHL SUB DUP2 GT ISZERO PUSH3 0x553 JUMPI PUSH3 0x553 PUSH3 0x337 JUMP JUMPDEST PUSH3 0x56B DUP2 PUSH3 0x564 DUP5 SLOAD PUSH3 0x4A8 JUMP JUMPDEST DUP5 PUSH3 0x4E4 JUMP JUMPDEST PUSH1 0x20 DUP1 PUSH1 0x1F DUP4 GT PUSH1 0x1 DUP2 EQ PUSH3 0x5A3 JUMPI PUSH1 0x0 DUP5 ISZERO PUSH3 0x58A JUMPI POP DUP6 DUP4 ADD MLOAD JUMPDEST PUSH1 0x0 NOT PUSH1 0x3 DUP7 SWAP1 SHL SHR NOT AND PUSH1 0x1 DUP6 SWAP1 SHL OR DUP6 SSTORE PUSH3 0x52E JUMP JUMPDEST PUSH1 0x0 DUP6 DUP2 MSTORE PUSH1 0x20 DUP2 KECCAK256 PUSH1 0x1F NOT DUP7 AND SWAP2 JUMPDEST DUP3 DUP2 LT ISZERO PUSH3 0x5D4 JUMPI DUP9 DUP7 ADD MLOAD DUP3 SSTORE SWAP5 DUP5 ADD SWAP5 PUSH1 0x1 SWAP1 SWAP2 ADD SWAP1 DUP5 ADD PUSH3 0x5B3 JUMP JUMPDEST POP DUP6 DUP3 LT ISZERO PUSH3 0x5F3 JUMPI DUP8 DUP6 ADD MLOAD PUSH1 0x0 NOT PUSH1 0x3 DUP9 SWAP1 SHL PUSH1 0xF8 AND SHR NOT AND DUP2 SSTORE JUMPDEST POP POP POP POP POP PUSH1 0x1 SWAP1 DUP2 SHL ADD SWAP1 SSTORE POP JUMP JUMPDEST PUSH2 0x3CF0 DUP1 PUSH3 0x613 PUSH1 0x0 CODECOPY PUSH1 0x0 RETURN INVALID PUSH1 0x80 PUSH1 0x40 MSTORE CALLVALUE DUP1 ISZERO PUSH2 0x10 JUMPI PUSH1 0x0 DUP1 REVERT JUMPDEST POP PUSH1 0x4 CALLDATASIZE LT PUSH2 0x252 JUMPI PUSH1 0x0 CALLDATALOAD PUSH1 0xE0 SHR DUP1 PUSH4 0x8DA5CB5B GT PUSH2 0x146 JUMPI DUP1 PUSH4 0xB4F09B98 GT PUSH2 0xC3 JUMPI DUP1 PUSH4 0xE8A3D485 GT PUSH2 0x87 JUMPI DUP1 PUSH4 0xE8A3D485 EQ PUSH2 0x5AE JUMPI DUP1 PUSH4 0xE985E9C5 EQ PUSH2 0x5B6 JUMPI DUP1 PUSH4 0xF242432A EQ PUSH2 0x5E4 JUMPI DUP1 PUSH4 0xF5298ACA EQ PUSH2 0x5F7 JUMPI DUP1 PUSH4 0xF8508A0B EQ PUSH2 0x60A JUMPI DUP1 PUSH4 0xFC2C738D EQ PUSH2 0x61D JUMPI PUSH1 0x0 DUP1 REVERT JUMPDEST DUP1 PUSH4 0xB4F09B98 EQ PUSH2 0x527 JUMPI DUP1 PUSH4 0xBA7AEF43 EQ PUSH2 0x53A JUMPI DUP1 PUSH4 0xBD85B039 EQ PUSH2 0x54D JUMPI DUP1 PUSH4 0xCE5F036A EQ PUSH2 0x56D JUMPI DUP1 PUSH4 0xD3E97165 EQ PUSH2 0x58E JUMPI PUSH1 0x0 DUP1 REVERT JUMPDEST DUP1 PUSH4 0xA22CB465 GT PUSH2 0x10A JUMPI DUP1 PUSH4 0xA22CB465 EQ PUSH2 0x4B0 JUMPI DUP1 PUSH4 0xAC60345B EQ PUSH2 0x4C3 JUMPI DUP1 PUSH4 0xAC9650D8 EQ PUSH2 0x4D6 JUMPI DUP1 PUSH4 0xB03F4528 EQ PUSH2 0x4F6 JUMPI DUP1 PUSH4 0xB24F2D39 EQ PUSH2 0x509 JUMPI PUSH1 0x0 DUP1 REVERT JUMPDEST DUP1 PUSH4 0x8DA5CB5B EQ PUSH2 0x45E JUMPI DUP1 PUSH4 0x938E3D7B EQ PUSH2 0x46F JUMPI DUP1 PUSH4 0x949C09F7 EQ PUSH2 0x482 JUMPI DUP1 PUSH4 0x95D89B41 EQ PUSH2 0x495 JUMPI DUP1 PUSH4 0x9BCF7A15 EQ PUSH2 0x49D JUMPI PUSH1 0x0 DUP1 REVERT JUMPDEST DUP1 PUSH4 0x2EB2C2D6 GT PUSH2 0x1D4 JUMPI DUP1 PUSH4 0x4E1273F4 GT PUSH2 0x198 JUMPI DUP1 PUSH4 0x4E1273F4 EQ PUSH2 0x410 JUMPI DUP1 PUSH4 0x504C6E01 EQ PUSH2 0x423 JUMPI DUP1 PUSH4 0x600DD5EA EQ PUSH2 0x430 JUMPI DUP1 PUSH4 0x63B45E2D EQ PUSH2 0x443 JUMPI DUP1 PUSH4 0x6B20C454 EQ PUSH2 0x44B JUMPI PUSH1 0x0 DUP1 REVERT JUMPDEST DUP1 PUSH4 0x2EB2C2D6 EQ PUSH2 0x380 JUMPI DUP1 PUSH4 0x32F0CD64 EQ PUSH2 0x393 JUMPI DUP1 PUSH4 0x3B1475A7 EQ PUSH2 0x3A6 JUMPI DUP1 PUSH4 0x41F43434 EQ PUSH2 0x3AE JUMPI DUP1 PUSH4 0x4CC157DF EQ PUSH2 0x3DB JUMPI PUSH1 0x0 DUP1 REVERT JUMPDEST DUP1 PUSH4 0xE89341C GT PUSH2 0x21B JUMPI DUP1 PUSH4 0xE89341C EQ PUSH2 0x300 JUMPI DUP1 PUSH4 0x13AF4035 EQ PUSH2 0x313 JUMPI DUP1 PUSH4 0x2419F51B EQ PUSH2 0x328 JUMPI DUP1 PUSH4 0x243A7C7B EQ PUSH2 0x33B JUMPI DUP1 PUSH4 0x2A55205A EQ PUSH2 0x34E JUMPI PUSH1 0x0 DUP1 REVERT JUMPDEST DUP1 PUSH3 0xFDD58E EQ PUSH2 0x257 JUMPI DUP1 PUSH4 0x134671B EQ PUSH2 0x295 JUMPI DUP1 PUSH4 0x1FFC9A7 EQ PUSH2 0x2B5 JUMPI DUP1 PUSH4 0x6FDDE03 EQ PUSH2 0x2D8 JUMPI DUP1 PUSH4 0xCB0FC4D EQ PUSH2 0x2ED JUMPI JUMPDEST PUSH1 0x0 DUP1 REVERT JUMPDEST PUSH2 0x282 PUSH2 0x265 CALLDATASIZE PUSH1 0x4 PUSH2 0x2BEE JUMP JUMPDEST PUSH1 0x2 PUSH1 0x20 SWAP1 DUP2 MSTORE PUSH1 0x0 SWAP3 DUP4 MSTORE PUSH1 0x40 DUP1 DUP5 KECCAK256 SWAP1 SWAP2 MSTORE SWAP1 DUP3 MSTORE SWAP1 KECCAK256 SLOAD DUP2 JUMP JUMPDEST PUSH1 0x40 MLOAD SWAP1 DUP2 MSTORE PUSH1 0x20 ADD JUMPDEST PUSH1 0x40 MLOAD DUP1 SWAP2 SUB SWAP1 RETURN JUMPDEST PUSH2 0x2A8 PUSH2 0x2A3 CALLDATASIZE PUSH1 0x4 PUSH2 0x2C18 JUMP JUMPDEST PUSH2 0x630 JUMP JUMPDEST PUSH1 0x40 MLOAD PUSH2 0x28C SWAP2 SWAP1 PUSH2 0x2C6E JUMP JUMPDEST PUSH2 0x2C8 PUSH2 0x2C3 CALLDATASIZE PUSH1 0x4 PUSH2 0x2C97 JUMP JUMPDEST PUSH2 0x753 JUMP JUMPDEST PUSH1 0x40 MLOAD SWAP1 ISZERO ISZERO DUP2 MSTORE PUSH1 0x20 ADD PUSH2 0x28C JUMP JUMPDEST PUSH2 0x2E0 PUSH2 0x7C0 JUMP JUMPDEST PUSH1 0x40 MLOAD PUSH2 0x28C SWAP2 SWAP1 PUSH2 0x2D04 JUMP JUMPDEST PUSH2 0x282 PUSH2 0x2FB CALLDATASIZE PUSH1 0x4 PUSH2 0x2DCC JUMP JUMPDEST PUSH2 0x84E JUMP JUMPDEST PUSH2 0x2E0 PUSH2 0x30E CALLDATASIZE PUSH1 0x4 PUSH2 0x2E29 JUMP JUMPDEST PUSH2 0x948 JUMP JUMPDEST PUSH2 0x326 PUSH2 0x321 CALLDATASIZE PUSH1 0x4 PUSH2 0x2C18 JUMP JUMPDEST PUSH2 0xA36 JUMP JUMPDEST STOP JUMPDEST PUSH2 0x282 PUSH2 0x336 CALLDATASIZE PUSH1 0x4 PUSH2 0x2E29 JUMP JUMPDEST PUSH2 0xA66 JUMP JUMPDEST PUSH2 0x326 PUSH2 0x349 CALLDATASIZE PUSH1 0x4 PUSH2 0x2E42 JUMP JUMPDEST PUSH2 0xAD4 JUMP JUMPDEST PUSH2 0x361 PUSH2 0x35C CALLDATASIZE PUSH1 0x4 PUSH2 0x2E42 JUMP JUMPDEST PUSH2 0xAFB JUMP JUMPDEST PUSH1 0x40 DUP1 MLOAD PUSH1 0x1 PUSH1 0x1 PUSH1 0xA0 SHL SUB SWAP1 SWAP4 AND DUP4 MSTORE PUSH1 0x20 DUP4 ADD SWAP2 SWAP1 SWAP2 MSTORE ADD PUSH2 0x28C JUMP JUMPDEST PUSH2 0x326 PUSH2 0x38E CALLDATASIZE PUSH1 0x4 PUSH2 0x2EF8 JUMP JUMPDEST PUSH2 0xB38 JUMP JUMPDEST PUSH2 0x326 PUSH2 0x3A1 CALLDATASIZE PUSH1 0x4 PUSH2 0x2FAF JUMP JUMPDEST PUSH2 0xB67 JUMP JUMPDEST PUSH1 0xC SLOAD PUSH2 0x282 JUMP JUMPDEST PUSH2 0x3C3 PUSH14 0xAAEB6D7670E522A718067333CD4E DUP2 JUMP JUMPDEST PUSH1 0x40 MLOAD PUSH1 0x1 PUSH1 0x1 PUSH1 0xA0 SHL SUB SWAP1 SWAP2 AND DUP2 MSTORE PUSH1 0x20 ADD PUSH2 0x28C JUMP JUMPDEST PUSH2 0x3EE PUSH2 0x3E9 CALLDATASIZE PUSH1 0x4 PUSH2 0x2E29 JUMP JUMPDEST PUSH2 0xBD8 JUMP JUMPDEST PUSH1 0x40 DUP1 MLOAD PUSH1 0x1 PUSH1 0x1 PUSH1 0xA0 SHL SUB SWAP1 SWAP4 AND DUP4 MSTORE PUSH2 0xFFFF SWAP1 SWAP2 AND PUSH1 0x20 DUP4 ADD MSTORE ADD PUSH2 0x28C JUMP JUMPDEST PUSH2 0x2A8 PUSH2 0x41E CALLDATASIZE PUSH1 0x4 PUSH2 0x2FCC JUMP JUMPDEST PUSH2 0xC43 JUMP JUMPDEST PUSH1 0xB SLOAD PUSH2 0x2C8 SWAP1 PUSH1 0xFF AND DUP2 JUMP JUMPDEST PUSH2 0x326 PUSH2 0x43E CALLDATASIZE PUSH1 0x4 PUSH2 0x2BEE JUMP JUMPDEST PUSH2 0xD57 JUMP JUMPDEST PUSH1 0x9 SLOAD PUSH2 0x282 JUMP JUMPDEST PUSH2 0x326 PUSH2 0x459 CALLDATASIZE PUSH1 0x4 PUSH2 0x3096 JUMP JUMPDEST PUSH2 0xD89 JUMP JUMPDEST PUSH1 0x6 SLOAD PUSH1 0x1 PUSH1 0x1 PUSH1 0xA0 SHL SUB AND PUSH2 0x3C3 JUMP JUMPDEST PUSH2 0x326 PUSH2 0x47D CALLDATASIZE PUSH1 0x4 PUSH2 0x3109 JUMP JUMPDEST PUSH2 0xEDD JUMP JUMPDEST PUSH2 0x326 PUSH2 0x490 CALLDATASIZE PUSH1 0x4 PUSH2 0x313D JUMP JUMPDEST PUSH2 0xF0A JUMP JUMPDEST PUSH2 0x2E0 PUSH2 0x10E8 JUMP JUMPDEST PUSH2 0x326 PUSH2 0x4AB CALLDATASIZE PUSH1 0x4 PUSH2 0x31D5 JUMP JUMPDEST PUSH2 0x10F5 JUMP JUMPDEST PUSH2 0x326 PUSH2 0x4BE CALLDATASIZE PUSH1 0x4 PUSH2 0x320A JUMP JUMPDEST PUSH2 0x1129 JUMP JUMPDEST PUSH2 0x326 PUSH2 0x4D1 CALLDATASIZE PUSH1 0x4 PUSH2 0x3109 JUMP JUMPDEST PUSH2 0x113D JUMP JUMPDEST PUSH2 0x4E9 PUSH2 0x4E4 CALLDATASIZE PUSH1 0x4 PUSH2 0x3241 JUMP JUMPDEST PUSH2 0x137D JUMP JUMPDEST PUSH1 0x40 MLOAD PUSH2 0x28C SWAP2 SWAP1 PUSH2 0x32B5 JUMP JUMPDEST PUSH2 0x326 PUSH2 0x504 CALLDATASIZE PUSH1 0x4 PUSH2 0x3317 JUMP JUMPDEST PUSH2 0x1471 JUMP JUMPDEST PUSH1 0x7 SLOAD PUSH1 0x1 PUSH1 0x1 PUSH1 0xA0 SHL SUB DUP2 AND SWAP1 PUSH1 0x1 PUSH1 0xA0 SHL SWAP1 DIV PUSH2 0xFFFF AND PUSH2 0x3EE JUMP JUMPDEST PUSH2 0x326 PUSH2 0x535 CALLDATASIZE PUSH1 0x4 PUSH2 0x3375 JUMP JUMPDEST PUSH2 0x14F1 JUMP JUMPDEST PUSH2 0x282 PUSH2 0x548 CALLDATASIZE PUSH1 0x4 PUSH2 0x33C1 JUMP JUMPDEST PUSH2 0x156A JUMP JUMPDEST PUSH2 0x282 PUSH2 0x55B CALLDATASIZE PUSH1 0x4 PUSH2 0x2E29 JUMP JUMPDEST PUSH1 0xD PUSH1 0x20 MSTORE PUSH1 0x0 SWAP1 DUP2 MSTORE PUSH1 0x40 SWAP1 KECCAK256 SLOAD DUP2 JUMP JUMPDEST PUSH2 0x580 PUSH2 0x57B CALLDATASIZE PUSH1 0x4 PUSH2 0x2E29 JUMP JUMPDEST PUSH2 0x1617 JUMP JUMPDEST PUSH1 0x40 MLOAD PUSH2 0x28C SWAP3 SWAP2 SWAP1 PUSH2 0x3417 JUMP JUMPDEST PUSH2 0x282 PUSH2 0x59C CALLDATASIZE PUSH1 0x4 PUSH2 0x2E29 JUMP JUMPDEST PUSH1 0xF PUSH1 0x20 MSTORE PUSH1 0x0 SWAP1 DUP2 MSTORE PUSH1 0x40 SWAP1 KECCAK256 SLOAD DUP2 JUMP JUMPDEST PUSH2 0x2E0 PUSH2 0x163B JUMP JUMPDEST PUSH2 0x2C8 PUSH2 0x5C4 CALLDATASIZE PUSH1 0x4 PUSH2 0x3439 JUMP JUMPDEST PUSH1 0x3 PUSH1 0x20 SWAP1 DUP2 MSTORE PUSH1 0x0 SWAP3 DUP4 MSTORE PUSH1 0x40 DUP1 DUP5 KECCAK256 SWAP1 SWAP2 MSTORE SWAP1 DUP3 MSTORE SWAP1 KECCAK256 SLOAD PUSH1 0xFF AND DUP2 JUMP JUMPDEST PUSH2 0x326 PUSH2 0x5F2 CALLDATASIZE PUSH1 0x4 PUSH2 0x346C JUMP JUMPDEST PUSH2 0x1648 JUMP JUMPDEST PUSH2 0x326 PUSH2 0x605 CALLDATASIZE PUSH1 0x4 PUSH2 0x34D0 JUMP JUMPDEST PUSH2 0x166F JUMP JUMPDEST PUSH2 0x2E0 PUSH2 0x618 CALLDATASIZE PUSH1 0x4 PUSH2 0x2E29 JUMP JUMPDEST PUSH2 0x1716 JUMP JUMPDEST PUSH2 0x326 PUSH2 0x62B CALLDATASIZE PUSH1 0x4 PUSH2 0x3503 JUMP JUMPDEST PUSH2 0x1721 JUMP JUMPDEST PUSH1 0x60 PUSH1 0x0 DUP1 JUMPDEST PUSH1 0xE SLOAD DUP2 LT ISZERO PUSH2 0x68B JUMPI PUSH1 0x1 PUSH1 0x1 PUSH1 0xA0 SHL SUB DUP5 AND PUSH1 0x0 SWAP1 DUP2 MSTORE PUSH1 0x2 PUSH1 0x20 SWAP1 DUP2 MSTORE PUSH1 0x40 DUP1 DUP4 KECCAK256 DUP5 DUP5 MSTORE SWAP1 SWAP2 MSTORE SWAP1 KECCAK256 SLOAD PUSH1 0x1 SUB PUSH2 0x679 JUMPI DUP2 PUSH2 0x675 DUP2 PUSH2 0x3574 JUMP JUMPDEST SWAP3 POP POP JUMPDEST DUP1 PUSH2 0x683 DUP2 PUSH2 0x3574 JUMP JUMPDEST SWAP2 POP POP PUSH2 0x636 JUMP JUMPDEST POP PUSH1 0x0 DUP2 PUSH1 0x1 PUSH1 0x1 PUSH1 0x40 SHL SUB DUP2 GT ISZERO PUSH2 0x6A6 JUMPI PUSH2 0x6A6 PUSH2 0x2D17 JUMP JUMPDEST PUSH1 0x40 MLOAD SWAP1 DUP1 DUP3 MSTORE DUP1 PUSH1 0x20 MUL PUSH1 0x20 ADD DUP3 ADD PUSH1 0x40 MSTORE DUP1 ISZERO PUSH2 0x6CF JUMPI DUP2 PUSH1 0x20 ADD PUSH1 0x20 DUP3 MUL DUP1 CALLDATASIZE DUP4 CALLDATACOPY ADD SWAP1 POP JUMPDEST POP SWAP1 POP PUSH1 0x0 DUP1 JUMPDEST PUSH1 0xE SLOAD DUP2 LT ISZERO PUSH2 0x749 JUMPI PUSH1 0x1 PUSH1 0x1 PUSH1 0xA0 SHL SUB DUP7 AND PUSH1 0x0 SWAP1 DUP2 MSTORE PUSH1 0x2 PUSH1 0x20 SWAP1 DUP2 MSTORE PUSH1 0x40 DUP1 DUP4 KECCAK256 DUP5 DUP5 MSTORE SWAP1 SWAP2 MSTORE SWAP1 KECCAK256 SLOAD PUSH1 0x1 SUB PUSH2 0x737 JUMPI DUP1 DUP4 DUP4 DUP2 MLOAD DUP2 LT PUSH2 0x71E JUMPI PUSH2 0x71E PUSH2 0x358D JUMP JUMPDEST PUSH1 0x20 SWAP1 DUP2 MUL SWAP2 SWAP1 SWAP2 ADD ADD MSTORE DUP2 PUSH2 0x733 DUP2 PUSH2 0x3574 JUMP JUMPDEST SWAP3 POP POP JUMPDEST DUP1 PUSH2 0x741 DUP2 PUSH2 0x3574 JUMP JUMPDEST SWAP2 POP POP PUSH2 0x6D6 JUMP JUMPDEST POP SWAP1 SWAP5 SWAP4 POP POP POP POP JUMP JUMPDEST PUSH1 0x0 PUSH4 0x1FFC9A7 PUSH1 0xE0 SHL PUSH1 0x1 PUSH1 0x1 PUSH1 0xE0 SHL SUB NOT DUP4 AND EQ DUP1 PUSH2 0x784 JUMPI POP PUSH4 0x6CDB3D13 PUSH1 0xE1 SHL PUSH1 0x1 PUSH1 0x1 PUSH1 0xE0 SHL SUB NOT DUP4 AND EQ JUMPDEST DUP1 PUSH2 0x79F JUMPI POP PUSH4 0x3A24D07 PUSH1 0xE2 SHL PUSH1 0x1 PUSH1 0x1 PUSH1 0xE0 SHL SUB NOT DUP4 AND EQ JUMPDEST DUP1 PUSH2 0x7BA JUMPI POP PUSH1 0x1 PUSH1 0x1 PUSH1 0xE0 SHL SUB NOT DUP3 AND PUSH4 0x152A902D PUSH1 0xE1 SHL EQ JUMPDEST SWAP3 SWAP2 POP POP JUMP JUMPDEST PUSH1 0x0 DUP1 SLOAD PUSH2 0x7CD SWAP1 PUSH2 0x35A3 JUMP JUMPDEST DUP1 PUSH1 0x1F ADD PUSH1 0x20 DUP1 SWAP2 DIV MUL PUSH1 0x20 ADD PUSH1 0x40 MLOAD SWAP1 DUP2 ADD PUSH1 0x40 MSTORE DUP1 SWAP3 SWAP2 SWAP1 DUP2 DUP2 MSTORE PUSH1 0x20 ADD DUP3 DUP1 SLOAD PUSH2 0x7F9 SWAP1 PUSH2 0x35A3 JUMP JUMPDEST DUP1 ISZERO PUSH2 0x846 JUMPI DUP1 PUSH1 0x1F LT PUSH2 0x81B JUMPI PUSH2 0x100 DUP1 DUP4 SLOAD DIV MUL DUP4 MSTORE SWAP2 PUSH1 0x20 ADD SWAP2 PUSH2 0x846 JUMP JUMPDEST DUP3 ADD SWAP2 SWAP1 PUSH1 0x0 MSTORE PUSH1 0x20 PUSH1 0x0 KECCAK256 SWAP1 JUMPDEST DUP2 SLOAD DUP2 MSTORE SWAP1 PUSH1 0x1 ADD SWAP1 PUSH1 0x20 ADD DUP1 DUP4 GT PUSH2 0x829 JUMPI DUP3 SWAP1 SUB PUSH1 0x1F AND DUP3 ADD SWAP2 JUMPDEST POP POP POP POP POP DUP2 JUMP JUMPDEST PUSH1 0x0 DUP1 DUP5 MLOAD GT PUSH2 0x879 JUMPI PUSH1 0x40 MLOAD PUSH3 0x461BCD PUSH1 0xE5 SHL DUP2 MSTORE PUSH1 0x4 ADD PUSH2 0x870 SWAP1 PUSH2 0x35DD JUMP JUMPDEST PUSH1 0x40 MLOAD DUP1 SWAP2 SUB SWAP1 REVERT JUMPDEST PUSH1 0x0 DUP4 GT PUSH2 0x899 JUMPI PUSH1 0x40 MLOAD PUSH3 0x461BCD PUSH1 0xE5 SHL DUP2 MSTORE PUSH1 0x4 ADD PUSH2 0x870 SWAP1 PUSH2 0x3610 JUMP JUMPDEST PUSH1 0x1 PUSH1 0x1 PUSH1 0xA0 SHL SUB DUP6 AND PUSH2 0x8BF JUMPI PUSH1 0x40 MLOAD PUSH3 0x461BCD PUSH1 0xE5 SHL DUP2 MSTORE PUSH1 0x4 ADD PUSH2 0x870 SWAP1 PUSH2 0x3647 JUMP JUMPDEST PUSH1 0xE SLOAD DUP3 LT PUSH2 0x906 JUMPI PUSH1 0x40 MLOAD PUSH3 0x461BCD PUSH1 0xE5 SHL DUP2 MSTORE PUSH1 0x20 PUSH1 0x4 DUP3 ADD MSTORE PUSH1 0x13 PUSH1 0x24 DUP3 ADD MSTORE PUSH19 0x1259081B5D5CDD081899481C1C9BDD9A591959 PUSH1 0x6A SHL PUSH1 0x44 DUP3 ADD MSTORE PUSH1 0x64 ADD PUSH2 0x870 JUMP JUMPDEST PUSH1 0x0 PUSH2 0x911 PUSH1 0xE SLOAD SWAP1 JUMP JUMPDEST SWAP1 POP PUSH2 0x920 DUP7 DUP5 DUP8 PUSH1 0x1 PUSH2 0x1471 JUMP JUMPDEST PUSH1 0x0 DUP2 DUP2 MSTORE PUSH1 0xF PUSH1 0x20 MSTORE PUSH1 0x40 SWAP1 KECCAK256 DUP5 SWAP1 SSTORE PUSH2 0x93F PUSH1 0xE DUP1 SLOAD PUSH1 0x1 ADD SWAP1 SSTORE JUMP JUMPDEST SWAP6 SWAP5 POP POP POP POP POP JUMP JUMPDEST PUSH1 0x0 DUP2 DUP2 MSTORE PUSH1 0x4 PUSH1 0x20 MSTORE PUSH1 0x40 DUP2 KECCAK256 DUP1 SLOAD PUSH1 0x60 SWAP3 SWAP2 SWAP1 PUSH2 0x966 SWAP1 PUSH2 0x35A3 JUMP JUMPDEST DUP1 PUSH1 0x1F ADD PUSH1 0x20 DUP1 SWAP2 DIV MUL PUSH1 0x20 ADD PUSH1 0x40 MLOAD SWAP1 DUP2 ADD PUSH1 0x40 MSTORE DUP1 SWAP3 SWAP2 SWAP1 DUP2 DUP2 MSTORE PUSH1 0x20 ADD DUP3 DUP1 SLOAD PUSH2 0x992 SWAP1 PUSH2 0x35A3 JUMP JUMPDEST DUP1 ISZERO PUSH2 0x9DF JUMPI DUP1 PUSH1 0x1F LT PUSH2 0x9B4 JUMPI PUSH2 0x100 DUP1 DUP4 SLOAD DIV MUL DUP4 MSTORE SWAP2 PUSH1 0x20 ADD SWAP2 PUSH2 0x9DF JUMP JUMPDEST DUP3 ADD SWAP2 SWAP1 PUSH1 0x0 MSTORE PUSH1 0x20 PUSH1 0x0 KECCAK256 SWAP1 JUMPDEST DUP2 SLOAD DUP2 MSTORE SWAP1 PUSH1 0x1 ADD SWAP1 PUSH1 0x20 ADD DUP1 DUP4 GT PUSH2 0x9C2 JUMPI DUP3 SWAP1 SUB PUSH1 0x1F AND DUP3 ADD SWAP2 JUMPDEST POP POP POP POP POP SWAP1 POP PUSH1 0x0 DUP2 MLOAD GT ISZERO PUSH2 0x9F6 JUMPI SWAP3 SWAP2 POP POP JUMP JUMPDEST PUSH1 0x0 PUSH2 0xA01 DUP5 PUSH2 0x17ED JUMP JUMPDEST SWAP1 POP DUP1 PUSH2 0xA0D DUP6 PUSH2 0x1989 JUMP JUMPDEST PUSH1 0x40 MLOAD PUSH1 0x20 ADD PUSH2 0xA1E SWAP3 SWAP2 SWAP1 PUSH2 0x3679 JUMP JUMPDEST PUSH1 0x40 MLOAD PUSH1 0x20 DUP2 DUP4 SUB SUB DUP2 MSTORE SWAP1 PUSH1 0x40 MSTORE SWAP3 POP POP POP SWAP2 SWAP1 POP JUMP JUMPDEST PUSH2 0xA3E PUSH2 0x1A91 JUMP JUMPDEST PUSH2 0xA5A JUMPI PUSH1 0x40 MLOAD PUSH3 0x461BCD PUSH1 0xE5 SHL DUP2 MSTORE PUSH1 0x4 ADD PUSH2 0x870 SWAP1 PUSH2 0x36A8 JUMP JUMPDEST PUSH2 0xA63 DUP2 PUSH2 0x1ABE JUMP JUMPDEST POP JUMP JUMPDEST PUSH1 0x0 PUSH2 0xA71 PUSH1 0x9 SLOAD SWAP1 JUMP JUMPDEST DUP3 LT PUSH2 0xAAF JUMPI PUSH1 0x40 MLOAD PUSH3 0x461BCD PUSH1 0xE5 SHL DUP2 MSTORE PUSH1 0x20 PUSH1 0x4 DUP3 ADD MSTORE PUSH1 0xD PUSH1 0x24 DUP3 ADD MSTORE PUSH13 0x92DCECC2D8D2C840D2DCC8CAF PUSH1 0x9B SHL PUSH1 0x44 DUP3 ADD MSTORE PUSH1 0x64 ADD PUSH2 0x870 JUMP JUMPDEST PUSH1 0x9 DUP3 DUP2 SLOAD DUP2 LT PUSH2 0xAC2 JUMPI PUSH2 0xAC2 PUSH2 0x358D JUMP JUMPDEST SWAP1 PUSH1 0x0 MSTORE PUSH1 0x20 PUSH1 0x0 KECCAK256 ADD SLOAD SWAP1 POP SWAP2 SWAP1 POP JUMP JUMPDEST PUSH1 0x0 DUP3 DUP2 MSTORE PUSH1 0xF PUSH1 0x20 MSTORE PUSH1 0x40 DUP2 KECCAK256 DUP1 SLOAD DUP4 SWAP3 SWAP1 PUSH2 0xAF2 SWAP1 DUP5 SWAP1 PUSH2 0x36D0 JUMP JUMPDEST SWAP1 SWAP2 SSTORE POP POP POP POP JUMP JUMPDEST PUSH1 0x0 DUP1 PUSH1 0x0 DUP1 PUSH2 0xB0A DUP7 PUSH2 0xBD8 JUMP JUMPDEST SWAP1 SWAP5 POP DUP5 SWAP3 POP PUSH2 0xFFFF AND SWAP1 POP PUSH2 0x2710 PUSH2 0xB23 DUP3 DUP8 PUSH2 0x36E3 JUMP JUMPDEST PUSH2 0xB2D SWAP2 SWAP1 PUSH2 0x3710 JUMP JUMPDEST SWAP3 POP POP POP SWAP3 POP SWAP3 SWAP1 POP JUMP JUMPDEST DUP5 PUSH1 0x1 PUSH1 0x1 PUSH1 0xA0 SHL SUB DUP2 AND CALLER EQ PUSH2 0xB52 JUMPI PUSH2 0xB52 CALLER PUSH2 0x1B10 JUMP JUMPDEST PUSH2 0xB5F DUP7 DUP7 DUP7 DUP7 DUP7 PUSH2 0x1BD4 JUMP JUMPDEST POP POP POP POP POP POP JUMP JUMPDEST PUSH2 0xB6F PUSH2 0x1A91 JUMP JUMPDEST PUSH2 0xBCF JUMPI PUSH1 0x40 MLOAD PUSH3 0x461BCD PUSH1 0xE5 SHL DUP2 MSTORE PUSH1 0x20 PUSH1 0x4 DUP3 ADD MSTORE PUSH1 0x2B PUSH1 0x24 DUP3 ADD MSTORE PUSH32 0x4E6F7420617574686F72697A656420746F20736574206F70657261746F722072 PUSH1 0x44 DUP3 ADD MSTORE PUSH11 0x32B9BA3934B1BA34B7B717 PUSH1 0xA9 SHL PUSH1 0x64 DUP3 ADD MSTORE PUSH1 0x84 ADD PUSH2 0x870 JUMP JUMPDEST PUSH2 0xA63 DUP2 PUSH2 0x1C3E JUMP JUMPDEST PUSH1 0x0 DUP2 DUP2 MSTORE PUSH1 0x8 PUSH1 0x20 SWAP1 DUP2 MSTORE PUSH1 0x40 DUP1 DUP4 KECCAK256 DUP2 MLOAD DUP1 DUP4 ADD SWAP1 SWAP3 MSTORE DUP1 SLOAD PUSH1 0x1 PUSH1 0x1 PUSH1 0xA0 SHL SUB AND DUP1 DUP4 MSTORE PUSH1 0x1 SWAP1 SWAP2 ADD SLOAD SWAP3 DUP3 ADD SWAP3 SWAP1 SWAP3 MSTORE DUP3 SWAP2 ISZERO PUSH2 0xC1F JUMPI DUP1 MLOAD PUSH1 0x20 DUP3 ADD MLOAD PUSH2 0xC39 JUMP JUMPDEST PUSH1 0x7 SLOAD PUSH1 0x1 PUSH1 0x1 PUSH1 0xA0 SHL SUB DUP2 AND SWAP1 PUSH1 0x1 PUSH1 0xA0 SHL SWAP1 DIV PUSH2 0xFFFF AND JUMPDEST SWAP3 POP SWAP3 POP POP SWAP2 POP SWAP2 JUMP JUMPDEST PUSH1 0x60 DUP2 MLOAD DUP4 MLOAD EQ PUSH2 0xC66 JUMPI PUSH1 0x40 MLOAD PUSH3 0x461BCD PUSH1 0xE5 SHL DUP2 MSTORE PUSH1 0x4 ADD PUSH2 0x870 SWAP1 PUSH2 0x3724 JUMP JUMPDEST PUSH1 0x0 DUP4 MLOAD PUSH1 0x1 PUSH1 0x1 PUSH1 0x40 SHL SUB DUP2 GT ISZERO PUSH2 0xC81 JUMPI PUSH2 0xC81 PUSH2 0x2D17 JUMP JUMPDEST PUSH1 0x40 MLOAD SWAP1 DUP1 DUP3 MSTORE DUP1 PUSH1 0x20 MUL PUSH1 0x20 ADD DUP3 ADD PUSH1 0x40 MSTORE DUP1 ISZERO PUSH2 0xCAA JUMPI DUP2 PUSH1 0x20 ADD PUSH1 0x20 DUP3 MUL DUP1 CALLDATASIZE DUP4 CALLDATACOPY ADD SWAP1 POP JUMPDEST POP SWAP1 POP PUSH1 0x0 JUMPDEST DUP5 MLOAD DUP2 LT ISZERO PUSH2 0xD4F JUMPI PUSH1 0x2 PUSH1 0x0 DUP7 DUP4 DUP2 MLOAD DUP2 LT PUSH2 0xCCF JUMPI PUSH2 0xCCF PUSH2 0x358D JUMP JUMPDEST PUSH1 0x20 MUL PUSH1 0x20 ADD ADD MLOAD PUSH1 0x1 PUSH1 0x1 PUSH1 0xA0 SHL SUB AND PUSH1 0x1 PUSH1 0x1 PUSH1 0xA0 SHL SUB AND DUP2 MSTORE PUSH1 0x20 ADD SWAP1 DUP2 MSTORE PUSH1 0x20 ADD PUSH1 0x0 KECCAK256 PUSH1 0x0 DUP6 DUP4 DUP2 MLOAD DUP2 LT PUSH2 0xD0B JUMPI PUSH2 0xD0B PUSH2 0x358D JUMP JUMPDEST PUSH1 0x20 MUL PUSH1 0x20 ADD ADD MLOAD DUP2 MSTORE PUSH1 0x20 ADD SWAP1 DUP2 MSTORE PUSH1 0x20 ADD PUSH1 0x0 KECCAK256 SLOAD DUP3 DUP3 DUP2 MLOAD DUP2 LT PUSH2 0xD34 JUMPI PUSH2 0xD34 PUSH2 0x358D JUMP JUMPDEST PUSH1 0x20 SWAP1 DUP2 MUL SWAP2 SWAP1 SWAP2 ADD ADD MSTORE PUSH2 0xD48 DUP2 PUSH2 0x3574 JUMP JUMPDEST SWAP1 POP PUSH2 0xCB0 JUMP JUMPDEST POP SWAP4 SWAP3 POP POP POP JUMP JUMPDEST PUSH2 0xD5F PUSH2 0x1A91 JUMP JUMPDEST PUSH2 0xD7B JUMPI PUSH1 0x40 MLOAD PUSH3 0x461BCD PUSH1 0xE5 SHL DUP2 MSTORE PUSH1 0x4 ADD PUSH2 0x870 SWAP1 PUSH2 0x36A8 JUMP JUMPDEST PUSH2 0xD85 DUP3 DUP3 PUSH2 0x1C85 JUMP JUMPDEST POP POP JUMP JUMPDEST CALLER PUSH1 0x1 PUSH1 0x1 PUSH1 0xA0 SHL SUB DUP5 AND DUP2 EQ DUP1 PUSH2 0xDC6 JUMPI POP PUSH1 0x1 PUSH1 0x1 PUSH1 0xA0 SHL SUB DUP1 DUP6 AND PUSH1 0x0 SWAP1 DUP2 MSTORE PUSH1 0x3 PUSH1 0x20 SWAP1 DUP2 MSTORE PUSH1 0x40 DUP1 DUP4 KECCAK256 SWAP4 DUP6 AND DUP4 MSTORE SWAP3 SWAP1 MSTORE KECCAK256 SLOAD PUSH1 0xFF AND JUMPDEST PUSH2 0xDE2 JUMPI PUSH1 0x40 MLOAD PUSH3 0x461BCD PUSH1 0xE5 SHL DUP2 MSTORE PUSH1 0x4 ADD PUSH2 0x870 SWAP1 PUSH2 0x374D JUMP JUMPDEST DUP2 MLOAD DUP4 MLOAD EQ PUSH2 0xE25 JUMPI PUSH1 0x40 MLOAD PUSH3 0x461BCD PUSH1 0xE5 SHL DUP2 MSTORE PUSH1 0x20 PUSH1 0x4 DUP3 ADD MSTORE PUSH1 0xF PUSH1 0x24 DUP3 ADD MSTORE PUSH15 0x98CADCCEE8D040DAD2E6DAC2E8C6D PUSH1 0x8B SHL PUSH1 0x44 DUP3 ADD MSTORE PUSH1 0x64 ADD PUSH2 0x870 JUMP JUMPDEST PUSH1 0x0 JUMPDEST DUP4 MLOAD DUP2 LT ISZERO PUSH2 0xECB JUMPI DUP3 DUP2 DUP2 MLOAD DUP2 LT PUSH2 0xE43 JUMPI PUSH2 0xE43 PUSH2 0x358D JUMP JUMPDEST PUSH1 0x20 MUL PUSH1 0x20 ADD ADD MLOAD PUSH1 0x2 PUSH1 0x0 DUP8 PUSH1 0x1 PUSH1 0x1 PUSH1 0xA0 SHL SUB AND PUSH1 0x1 PUSH1 0x1 PUSH1 0xA0 SHL SUB AND DUP2 MSTORE PUSH1 0x20 ADD SWAP1 DUP2 MSTORE PUSH1 0x20 ADD PUSH1 0x0 KECCAK256 PUSH1 0x0 DUP7 DUP5 DUP2 MLOAD DUP2 LT PUSH2 0xE84 JUMPI PUSH2 0xE84 PUSH2 0x358D JUMP JUMPDEST PUSH1 0x20 MUL PUSH1 0x20 ADD ADD MLOAD DUP2 MSTORE PUSH1 0x20 ADD SWAP1 DUP2 MSTORE PUSH1 0x20 ADD PUSH1 0x0 KECCAK256 SLOAD LT ISZERO PUSH2 0xEB9 JUMPI PUSH1 0x40 MLOAD PUSH3 0x461BCD PUSH1 0xE5 SHL DUP2 MSTORE PUSH1 0x4 ADD PUSH2 0x870 SWAP1 PUSH2 0x3778 JUMP JUMPDEST PUSH2 0xEC4 PUSH1 0x1 DUP3 PUSH2 0x36D0 JUMP JUMPDEST SWAP1 POP PUSH2 0xE28 JUMP JUMPDEST POP PUSH2 0xED7 DUP5 DUP5 DUP5 PUSH2 0x1D09 JUMP JUMPDEST POP POP POP POP JUMP JUMPDEST PUSH2 0xEE5 PUSH2 0x1A91 JUMP JUMPDEST PUSH2 0xF01 JUMPI PUSH1 0x40 MLOAD PUSH3 0x461BCD PUSH1 0xE5 SHL DUP2 MSTORE PUSH1 0x4 ADD PUSH2 0x870 SWAP1 PUSH2 0x36A8 JUMP JUMPDEST PUSH2 0xA63 DUP2 PUSH2 0x1E8B JUMP JUMPDEST PUSH2 0xF12 PUSH2 0x1A91 JUMP JUMPDEST PUSH2 0xF58 JUMPI PUSH1 0x40 MLOAD PUSH3 0x461BCD PUSH1 0xE5 SHL DUP2 MSTORE PUSH1 0x20 PUSH1 0x4 DUP3 ADD MSTORE PUSH1 0x17 PUSH1 0x24 DUP3 ADD MSTORE PUSH23 0x2737BA1030BABA3437B934BD32B2103A379036B4B73A17 PUSH1 0x49 SHL PUSH1 0x44 DUP3 ADD MSTORE PUSH1 0x64 ADD PUSH2 0x870 JUMP JUMPDEST PUSH1 0x0 DUP3 MLOAD GT PUSH2 0xFA0 JUMPI PUSH1 0x40 MLOAD PUSH3 0x461BCD PUSH1 0xE5 SHL DUP2 MSTORE PUSH1 0x20 PUSH1 0x4 DUP3 ADD MSTORE PUSH1 0x14 PUSH1 0x24 DUP3 ADD MSTORE PUSH20 0x26B4B73A34B733903D32B937903A37B5B2B73997 PUSH1 0x61 SHL PUSH1 0x44 DUP3 ADD MSTORE PUSH1 0x64 ADD PUSH2 0x870 JUMP JUMPDEST DUP2 MLOAD DUP4 MLOAD EQ PUSH2 0xFE4 JUMPI PUSH1 0x40 MLOAD PUSH3 0x461BCD PUSH1 0xE5 SHL DUP2 MSTORE PUSH1 0x20 PUSH1 0x4 DUP3 ADD MSTORE PUSH1 0x10 PUSH1 0x24 DUP3 ADD MSTORE PUSH16 0x2632B733BA341036B4B9B6B0BA31B417 PUSH1 0x81 SHL PUSH1 0x44 DUP3 ADD MSTORE PUSH1 0x64 ADD PUSH2 0x870 JUMP JUMPDEST PUSH1 0x0 PUSH2 0xFEF PUSH1 0xC SLOAD SWAP1 JUMP JUMPDEST SWAP1 POP DUP1 PUSH1 0x0 DUP1 JUMPDEST DUP7 MLOAD DUP2 LT ISZERO PUSH2 0x10A8 JUMPI PUSH1 0x0 NOT DUP8 DUP3 DUP2 MLOAD DUP2 LT PUSH2 0x1014 JUMPI PUSH2 0x1014 PUSH2 0x358D JUMP JUMPDEST PUSH1 0x20 MUL PUSH1 0x20 ADD ADD MLOAD SUB PUSH2 0x105E JUMPI DUP4 DUP8 DUP3 DUP2 MLOAD DUP2 LT PUSH2 0x1034 JUMPI PUSH2 0x1034 PUSH2 0x358D JUMP JUMPDEST PUSH1 0x20 SWAP1 DUP2 MUL SWAP2 SWAP1 SWAP2 ADD ADD MSTORE PUSH2 0x104A PUSH1 0x1 DUP6 PUSH2 0x36D0 JUMP JUMPDEST SWAP4 POP PUSH2 0x1057 PUSH1 0x1 DUP4 PUSH2 0x36D0 JUMP JUMPDEST SWAP2 POP PUSH2 0x1096 JUMP JUMPDEST DUP4 DUP8 DUP3 DUP2 MLOAD DUP2 LT PUSH2 0x1071 JUMPI PUSH2 0x1071 PUSH2 0x358D JUMP JUMPDEST PUSH1 0x20 MUL PUSH1 0x20 ADD ADD MLOAD LT PUSH2 0x1096 JUMPI PUSH1 0x40 MLOAD PUSH3 0x461BCD PUSH1 0xE5 SHL DUP2 MSTORE PUSH1 0x4 ADD PUSH2 0x870 SWAP1 PUSH2 0x37A9 JUMP JUMPDEST PUSH2 0x10A1 PUSH1 0x1 DUP3 PUSH2 0x36D0 JUMP JUMPDEST SWAP1 POP PUSH2 0xFF6 JUMP JUMPDEST POP DUP1 ISZERO PUSH2 0x10BD JUMPI PUSH2 0x10BA DUP3 DUP3 DUP7 PUSH2 0x1F67 JUMP JUMPDEST POP POP JUMPDEST DUP3 PUSH1 0xC DUP2 SWAP1 SSTORE POP PUSH2 0x10DF DUP8 DUP8 DUP8 PUSH1 0x40 MLOAD DUP1 PUSH1 0x20 ADD PUSH1 0x40 MSTORE DUP1 PUSH1 0x0 DUP2 MSTORE POP PUSH2 0x1FCB JUMP JUMPDEST POP POP POP POP POP POP POP JUMP JUMPDEST PUSH1 0x1 DUP1 SLOAD PUSH2 0x7CD SWAP1 PUSH2 0x35A3 JUMP JUMPDEST PUSH2 0x10FD PUSH2 0x1A91 JUMP JUMPDEST PUSH2 0x1119 JUMPI PUSH1 0x40 MLOAD PUSH3 0x461BCD PUSH1 0xE5 SHL DUP2 MSTORE PUSH1 0x4 ADD PUSH2 0x870 SWAP1 PUSH2 0x36A8 JUMP JUMPDEST PUSH2 0x1124 DUP4 DUP4 DUP4 PUSH2 0x2114 JUMP JUMPDEST POP POP POP JUMP JUMPDEST DUP2 PUSH2 0x1133 DUP2 PUSH2 0x1B10 JUMP JUMPDEST PUSH2 0x1124 DUP4 DUP4 PUSH2 0x21BC JUMP JUMPDEST PUSH1 0x0 DUP2 MLOAD GT PUSH2 0x115E JUMPI PUSH1 0x40 MLOAD PUSH3 0x461BCD PUSH1 0xE5 SHL DUP2 MSTORE PUSH1 0x4 ADD PUSH2 0x870 SWAP1 PUSH2 0x37CD JUMP JUMPDEST PUSH1 0x10 DUP2 PUSH1 0x40 MLOAD PUSH2 0x116E SWAP2 SWAP1 PUSH2 0x37FC JUMP JUMPDEST SWAP1 DUP2 MSTORE PUSH1 0x20 ADD PUSH1 0x40 MLOAD DUP1 SWAP2 SUB SWAP1 KECCAK256 SLOAD PUSH1 0x0 SUB PUSH2 0x11C2 JUMPI PUSH1 0x40 MLOAD PUSH3 0x461BCD PUSH1 0xE5 SHL DUP2 MSTORE PUSH1 0x20 PUSH1 0x4 DUP3 ADD MSTORE PUSH1 0x13 PUSH1 0x24 DUP3 ADD MSTORE PUSH19 0x10DBD91948191BD95CC81B9BDD08195E1A5CDD PUSH1 0x6A SHL PUSH1 0x44 DUP3 ADD MSTORE PUSH1 0x64 ADD PUSH2 0x870 JUMP JUMPDEST PUSH1 0x13 PUSH1 0x0 PUSH1 0x10 DUP4 PUSH1 0x40 MLOAD PUSH2 0x11D6 SWAP2 SWAP1 PUSH2 0x37FC JUMP JUMPDEST SWAP1 DUP2 MSTORE PUSH1 0x40 DUP1 MLOAD PUSH1 0x20 SWAP3 DUP2 SWAP1 SUB DUP4 ADD SWAP1 KECCAK256 SLOAD DUP4 MSTORE SWAP1 DUP3 ADD SWAP3 SWAP1 SWAP3 MSTORE ADD PUSH1 0x0 KECCAK256 SLOAD PUSH1 0xFF AND ISZERO PUSH2 0x123E JUMPI PUSH1 0x40 MLOAD PUSH3 0x461BCD PUSH1 0xE5 SHL DUP2 MSTORE PUSH1 0x20 PUSH1 0x4 DUP3 ADD MSTORE PUSH1 0x15 PUSH1 0x24 DUP3 ADD MSTORE PUSH21 0x125D195B48185B1C9958591E481C995919595B5959 PUSH1 0x5A SHL PUSH1 0x44 DUP3 ADD MSTORE PUSH1 0x64 ADD PUSH2 0x870 JUMP JUMPDEST PUSH1 0x1 PUSH1 0x13 PUSH1 0x0 PUSH1 0x10 DUP5 PUSH1 0x40 MLOAD PUSH2 0x1254 SWAP2 SWAP1 PUSH2 0x37FC JUMP JUMPDEST SWAP1 DUP2 MSTORE PUSH1 0x20 ADD PUSH1 0x40 MLOAD DUP1 SWAP2 SUB SWAP1 KECCAK256 SLOAD DUP2 MSTORE PUSH1 0x20 ADD SWAP1 DUP2 MSTORE PUSH1 0x20 ADD PUSH1 0x0 KECCAK256 PUSH1 0x0 PUSH2 0x100 EXP DUP2 SLOAD DUP2 PUSH1 0xFF MUL NOT AND SWAP1 DUP4 ISZERO ISZERO MUL OR SWAP1 SSTORE POP PUSH2 0xD85 CALLER PUSH1 0x11 PUSH1 0x0 PUSH1 0x10 DUP6 PUSH1 0x40 MLOAD PUSH2 0x12A0 SWAP2 SWAP1 PUSH2 0x37FC JUMP JUMPDEST SWAP1 DUP2 MSTORE PUSH1 0x20 ADD PUSH1 0x40 MLOAD DUP1 SWAP2 SUB SWAP1 KECCAK256 SLOAD DUP2 MSTORE PUSH1 0x20 ADD SWAP1 DUP2 MSTORE PUSH1 0x20 ADD PUSH1 0x0 KECCAK256 DUP1 SLOAD PUSH2 0x12C8 SWAP1 PUSH2 0x35A3 JUMP JUMPDEST DUP1 PUSH1 0x1F ADD PUSH1 0x20 DUP1 SWAP2 DIV MUL PUSH1 0x20 ADD PUSH1 0x40 MLOAD SWAP1 DUP2 ADD PUSH1 0x40 MSTORE DUP1 SWAP3 SWAP2 SWAP1 DUP2 DUP2 MSTORE PUSH1 0x20 ADD DUP3 DUP1 SLOAD PUSH2 0x12F4 SWAP1 PUSH2 0x35A3 JUMP JUMPDEST DUP1 ISZERO PUSH2 0x1341 JUMPI DUP1 PUSH1 0x1F LT PUSH2 0x1316 JUMPI PUSH2 0x100 DUP1 DUP4 SLOAD DIV MUL DUP4 MSTORE SWAP2 PUSH1 0x20 ADD SWAP2 PUSH2 0x1341 JUMP JUMPDEST DUP3 ADD SWAP2 SWAP1 PUSH1 0x0 MSTORE PUSH1 0x20 PUSH1 0x0 KECCAK256 SWAP1 JUMPDEST DUP2 SLOAD DUP2 MSTORE SWAP1 PUSH1 0x1 ADD SWAP1 PUSH1 0x20 ADD DUP1 DUP4 GT PUSH2 0x1324 JUMPI DUP3 SWAP1 SUB PUSH1 0x1F AND DUP3 ADD SWAP2 JUMPDEST POP POP POP POP POP PUSH1 0x12 PUSH1 0x0 PUSH1 0x10 DUP7 PUSH1 0x40 MLOAD PUSH2 0x135A SWAP2 SWAP1 PUSH2 0x37FC JUMP JUMPDEST SWAP1 DUP2 MSTORE PUSH1 0x20 ADD PUSH1 0x40 MLOAD DUP1 SWAP2 SUB SWAP1 KECCAK256 SLOAD DUP2 MSTORE PUSH1 0x20 ADD SWAP1 DUP2 MSTORE PUSH1 0x20 ADD PUSH1 0x0 KECCAK256 SLOAD PUSH2 0x156A JUMP JUMPDEST PUSH1 0x60 DUP2 PUSH1 0x1 PUSH1 0x1 PUSH1 0x40 SHL SUB DUP2 GT ISZERO PUSH2 0x1397 JUMPI PUSH2 0x1397 PUSH2 0x2D17 JUMP JUMPDEST PUSH1 0x40 MLOAD SWAP1 DUP1 DUP3 MSTORE DUP1 PUSH1 0x20 MUL PUSH1 0x20 ADD DUP3 ADD PUSH1 0x40 MSTORE DUP1 ISZERO PUSH2 0x13CA JUMPI DUP2 PUSH1 0x20 ADD JUMPDEST PUSH1 0x60 DUP2 MSTORE PUSH1 0x20 ADD SWAP1 PUSH1 0x1 SWAP1 SUB SWAP1 DUP2 PUSH2 0x13B5 JUMPI SWAP1 POP JUMPDEST POP SWAP1 POP PUSH1 0x0 JUMPDEST DUP3 DUP2 LT ISZERO PUSH2 0x146A JUMPI PUSH2 0x143A ADDRESS DUP6 DUP6 DUP5 DUP2 DUP2 LT PUSH2 0x13EE JUMPI PUSH2 0x13EE PUSH2 0x358D JUMP JUMPDEST SWAP1 POP PUSH1 0x20 MUL DUP2 ADD SWAP1 PUSH2 0x1400 SWAP2 SWAP1 PUSH2 0x3818 JUMP JUMPDEST DUP1 DUP1 PUSH1 0x1F ADD PUSH1 0x20 DUP1 SWAP2 DIV MUL PUSH1 0x20 ADD PUSH1 0x40 MLOAD SWAP1 DUP2 ADD PUSH1 0x40 MSTORE DUP1 SWAP4 SWAP3 SWAP2 SWAP1 DUP2 DUP2 MSTORE PUSH1 0x20 ADD DUP4 DUP4 DUP1 DUP3 DUP5 CALLDATACOPY PUSH1 0x0 SWAP3 ADD SWAP2 SWAP1 SWAP2 MSTORE POP PUSH2 0x226B SWAP3 POP POP POP JUMP JUMPDEST DUP3 DUP3 DUP2 MLOAD DUP2 LT PUSH2 0x144C JUMPI PUSH2 0x144C PUSH2 0x358D JUMP JUMPDEST PUSH1 0x20 MUL PUSH1 0x20 ADD ADD DUP2 SWAP1 MSTORE POP DUP1 DUP1 PUSH2 0x1462 SWAP1 PUSH2 0x3574 JUMP JUMPDEST SWAP2 POP POP PUSH2 0x13D0 JUMP JUMPDEST POP SWAP3 SWAP2 POP POP JUMP JUMPDEST PUSH1 0x0 DUP1 PUSH2 0x147D PUSH1 0xC SLOAD SWAP1 JUMP JUMPDEST SWAP1 POP PUSH1 0x0 NOT DUP6 SUB PUSH2 0x14B3 JUMPI DUP1 SWAP2 POP PUSH1 0x1 PUSH1 0xC PUSH1 0x0 DUP3 DUP3 SLOAD PUSH2 0x149E SWAP2 SWAP1 PUSH2 0x36D0 JUMP JUMPDEST SWAP1 SWAP2 SSTORE POP PUSH2 0x14AE SWAP1 POP DUP2 DUP6 PUSH2 0x2290 JUMP JUMPDEST PUSH2 0x14D6 JUMP JUMPDEST DUP1 DUP6 LT PUSH2 0x14D2 JUMPI PUSH1 0x40 MLOAD PUSH3 0x461BCD PUSH1 0xE5 SHL DUP2 MSTORE PUSH1 0x4 ADD PUSH2 0x870 SWAP1 PUSH2 0x37A9 JUMP JUMPDEST DUP5 SWAP2 POP JUMPDEST PUSH2 0xB5F DUP7 DUP4 DUP6 PUSH1 0x40 MLOAD DUP1 PUSH1 0x20 ADD PUSH1 0x40 MSTORE DUP1 PUSH1 0x0 DUP2 MSTORE POP PUSH2 0x22A8 JUMP JUMPDEST PUSH1 0x0 JUMPDEST DUP3 MLOAD DUP2 LT ISZERO PUSH2 0x1124 JUMPI DUP2 DUP2 DUP2 MLOAD DUP2 LT PUSH2 0x150F JUMPI PUSH2 0x150F PUSH2 0x358D JUMP JUMPDEST PUSH1 0x20 MUL PUSH1 0x20 ADD ADD MLOAD PUSH1 0xF PUSH1 0x0 DUP6 DUP5 DUP2 MLOAD DUP2 LT PUSH2 0x152D JUMPI PUSH2 0x152D PUSH2 0x358D JUMP JUMPDEST PUSH1 0x20 MUL PUSH1 0x20 ADD ADD MLOAD DUP2 MSTORE PUSH1 0x20 ADD SWAP1 DUP2 MSTORE PUSH1 0x20 ADD PUSH1 0x0 KECCAK256 PUSH1 0x0 DUP3 DUP3 SLOAD PUSH2 0x1552 SWAP2 SWAP1 PUSH2 0x36D0 JUMP JUMPDEST SWAP1 SWAP2 SSTORE POP DUP2 SWAP1 POP PUSH2 0x1562 DUP2 PUSH2 0x3574 JUMP JUMPDEST SWAP2 POP POP PUSH2 0x14F4 JUMP JUMPDEST PUSH1 0x0 DUP1 DUP4 MLOAD GT PUSH2 0x158C JUMPI PUSH1 0x40 MLOAD PUSH3 0x461BCD PUSH1 0xE5 SHL DUP2 MSTORE PUSH1 0x4 ADD PUSH2 0x870 SWAP1 PUSH2 0x35DD JUMP JUMPDEST PUSH1 0x0 DUP3 GT PUSH2 0x15AC JUMPI PUSH1 0x40 MLOAD PUSH3 0x461BCD PUSH1 0xE5 SHL DUP2 MSTORE PUSH1 0x4 ADD PUSH2 0x870 SWAP1 PUSH2 0x3610 JUMP JUMPDEST PUSH1 0x1 PUSH1 0x1 PUSH1 0xA0 SHL SUB DUP5 AND PUSH2 0x15D2 JUMPI PUSH1 0x40 MLOAD PUSH3 0x461BCD PUSH1 0xE5 SHL DUP2 MSTORE PUSH1 0x4 ADD PUSH2 0x870 SWAP1 PUSH2 0x3647 JUMP JUMPDEST PUSH1 0x0 PUSH2 0x15DD PUSH1 0xE SLOAD SWAP1 JUMP JUMPDEST SWAP1 POP PUSH2 0x15EE DUP6 PUSH1 0x0 NOT DUP7 PUSH1 0x1 PUSH2 0x1471 JUMP JUMPDEST PUSH1 0x0 DUP2 DUP2 MSTORE PUSH1 0xF PUSH1 0x20 MSTORE PUSH1 0x40 SWAP1 KECCAK256 DUP4 SWAP1 SSTORE PUSH2 0x160D PUSH1 0xE DUP1 SLOAD PUSH1 0x1 ADD SWAP1 SSTORE JUMP JUMPDEST SWAP1 POP JUMPDEST SWAP4 SWAP3 POP POP POP JUMP JUMPDEST PUSH1 0x60 PUSH1 0x0 PUSH2 0x1624 DUP4 PUSH2 0x948 JUMP JUMPDEST PUSH1 0x0 SWAP4 DUP5 MSTORE PUSH1 0xF PUSH1 0x20 MSTORE PUSH1 0x40 SWAP1 SWAP4 KECCAK256 SLOAD SWAP3 SWAP4 SWAP2 POP POP JUMP JUMPDEST PUSH1 0x5 DUP1 SLOAD PUSH2 0x7CD SWAP1 PUSH2 0x35A3 JUMP JUMPDEST DUP5 PUSH1 0x1 PUSH1 0x1 PUSH1 0xA0 SHL SUB DUP2 AND CALLER EQ PUSH2 0x1662 JUMPI PUSH2 0x1662 CALLER PUSH2 0x1B10 JUMP JUMPDEST PUSH2 0xB5F DUP7 DUP7 DUP7 DUP7 DUP7 PUSH2 0x236F JUMP JUMPDEST CALLER PUSH1 0x1 PUSH1 0x1 PUSH1 0xA0 SHL SUB DUP5 AND DUP2 EQ DUP1 PUSH2 0x16AC JUMPI POP PUSH1 0x1 PUSH1 0x1 PUSH1 0xA0 SHL SUB DUP1 DUP6 AND PUSH1 0x0 SWAP1 DUP2 MSTORE PUSH1 0x3 PUSH1 0x20 SWAP1 DUP2 MSTORE PUSH1 0x40 DUP1 DUP4 KECCAK256 SWAP4 DUP6 AND DUP4 MSTORE SWAP3 SWAP1 MSTORE KECCAK256 SLOAD PUSH1 0xFF AND JUMPDEST PUSH2 0x16C8 JUMPI PUSH1 0x40 MLOAD PUSH3 0x461BCD PUSH1 0xE5 SHL DUP2 MSTORE PUSH1 0x4 ADD PUSH2 0x870 SWAP1 PUSH2 0x374D JUMP JUMPDEST PUSH1 0x1 PUSH1 0x1 PUSH1 0xA0 SHL SUB DUP5 AND PUSH1 0x0 SWAP1 DUP2 MSTORE PUSH1 0x2 PUSH1 0x20 SWAP1 DUP2 MSTORE PUSH1 0x40 DUP1 DUP4 KECCAK256 DUP7 DUP5 MSTORE SWAP1 SWAP2 MSTORE SWAP1 KECCAK256 SLOAD DUP3 GT ISZERO PUSH2 0x170B JUMPI PUSH1 0x40 MLOAD PUSH3 0x461BCD PUSH1 0xE5 SHL DUP2 MSTORE PUSH1 0x4 ADD PUSH2 0x870 SWAP1 PUSH2 0x3778 JUMP JUMPDEST PUSH2 0xED7 DUP5 DUP5 DUP5 PUSH2 0x23D2 JUMP JUMPDEST PUSH1 0x60 PUSH2 0x7BA DUP3 PUSH2 0x948 JUMP JUMPDEST PUSH1 0x0 DUP4 MLOAD GT PUSH2 0x1742 JUMPI PUSH1 0x40 MLOAD PUSH3 0x461BCD PUSH1 0xE5 SHL DUP2 MSTORE PUSH1 0x4 ADD PUSH2 0x870 SWAP1 PUSH2 0x37CD JUMP JUMPDEST PUSH1 0x0 DUP3 MLOAD GT PUSH2 0x1763 JUMPI PUSH1 0x40 MLOAD PUSH3 0x461BCD PUSH1 0xE5 SHL DUP2 MSTORE PUSH1 0x4 ADD PUSH2 0x870 SWAP1 PUSH2 0x35DD JUMP JUMPDEST PUSH1 0x0 DUP2 GT PUSH2 0x1783 JUMPI PUSH1 0x40 MLOAD PUSH3 0x461BCD PUSH1 0xE5 SHL DUP2 MSTORE PUSH1 0x4 ADD PUSH2 0x870 SWAP1 PUSH2 0x3610 JUMP JUMPDEST PUSH2 0x1791 PUSH1 0x14 DUP1 SLOAD PUSH1 0x1 ADD SWAP1 SSTORE JUMP JUMPDEST PUSH1 0x0 PUSH2 0x179C PUSH1 0x14 SLOAD SWAP1 JUMP JUMPDEST SWAP1 POP DUP1 PUSH1 0x10 DUP6 PUSH1 0x40 MLOAD PUSH2 0x17AF SWAP2 SWAP1 PUSH2 0x37FC JUMP JUMPDEST SWAP1 DUP2 MSTORE PUSH1 0x40 DUP1 MLOAD PUSH1 0x20 SWAP3 DUP2 SWAP1 SUB DUP4 ADD SWAP1 KECCAK256 SWAP3 SWAP1 SWAP3 SSTORE PUSH1 0x0 DUP4 DUP2 MSTORE PUSH1 0x11 SWAP1 SWAP2 MSTORE KECCAK256 PUSH2 0x17D9 DUP5 DUP3 PUSH2 0x38AB JUMP JUMPDEST POP PUSH1 0x0 SWAP1 DUP2 MSTORE PUSH1 0x12 PUSH1 0x20 MSTORE PUSH1 0x40 SWAP1 KECCAK256 SSTORE POP POP JUMP JUMPDEST PUSH1 0x60 PUSH1 0x0 PUSH2 0x17FA PUSH1 0x9 SLOAD SWAP1 JUMP JUMPDEST SWAP1 POP PUSH1 0x0 PUSH1 0x9 DUP1 SLOAD DUP1 PUSH1 0x20 MUL PUSH1 0x20 ADD PUSH1 0x40 MLOAD SWAP1 DUP2 ADD PUSH1 0x40 MSTORE DUP1 SWAP3 SWAP2 SWAP1 DUP2 DUP2 MSTORE PUSH1 0x20 ADD DUP3 DUP1 SLOAD DUP1 ISZERO PUSH2 0x184A JUMPI PUSH1 0x20 MUL DUP3 ADD SWAP2 SWAP1 PUSH1 0x0 MSTORE PUSH1 0x20 PUSH1 0x0 KECCAK256 SWAP1 JUMPDEST DUP2 SLOAD DUP2 MSTORE PUSH1 0x20 ADD SWAP1 PUSH1 0x1 ADD SWAP1 DUP1 DUP4 GT PUSH2 0x1836 JUMPI JUMPDEST POP POP POP POP POP SWAP1 POP PUSH1 0x0 JUMPDEST DUP3 DUP2 LT ISZERO PUSH2 0x194E JUMPI DUP2 DUP2 DUP2 MLOAD DUP2 LT PUSH2 0x186E JUMPI PUSH2 0x186E PUSH2 0x358D JUMP JUMPDEST PUSH1 0x20 MUL PUSH1 0x20 ADD ADD MLOAD DUP6 LT ISZERO PUSH2 0x193C JUMPI PUSH1 0xA PUSH1 0x0 DUP4 DUP4 DUP2 MLOAD DUP2 LT PUSH2 0x1893 JUMPI PUSH2 0x1893 PUSH2 0x358D JUMP JUMPDEST PUSH1 0x20 MUL PUSH1 0x20 ADD ADD MLOAD DUP2 MSTORE PUSH1 0x20 ADD SWAP1 DUP2 MSTORE PUSH1 0x20 ADD PUSH1 0x0 KECCAK256 DUP1 SLOAD PUSH2 0x18B4 SWAP1 PUSH2 0x35A3 JUMP JUMPDEST DUP1 PUSH1 0x1F ADD PUSH1 0x20 DUP1 SWAP2 DIV MUL PUSH1 0x20 ADD PUSH1 0x40 MLOAD SWAP1 DUP2 ADD PUSH1 0x40 MSTORE DUP1 SWAP3 SWAP2 SWAP1 DUP2 DUP2 MSTORE PUSH1 0x20 ADD DUP3 DUP1 SLOAD PUSH2 0x18E0 SWAP1 PUSH2 0x35A3 JUMP JUMPDEST DUP1 ISZERO PUSH2 0x192D JUMPI DUP1 PUSH1 0x1F LT PUSH2 0x1902 JUMPI PUSH2 0x100 DUP1 DUP4 SLOAD DIV MUL DUP4 MSTORE SWAP2 PUSH1 0x20 ADD SWAP2 PUSH2 0x192D JUMP JUMPDEST DUP3 ADD SWAP2 SWAP1 PUSH1 0x0 MSTORE PUSH1 0x20 PUSH1 0x0 KECCAK256 SWAP1 JUMPDEST DUP2 SLOAD DUP2 MSTORE SWAP1 PUSH1 0x1 ADD SWAP1 PUSH1 0x20 ADD DUP1 DUP4 GT PUSH2 0x1910 JUMPI DUP3 SWAP1 SUB PUSH1 0x1F AND DUP3 ADD SWAP2 JUMPDEST POP POP POP POP POP SWAP4 POP POP POP POP SWAP2 SWAP1 POP JUMP JUMPDEST PUSH2 0x1947 PUSH1 0x1 DUP3 PUSH2 0x36D0 JUMP JUMPDEST SWAP1 POP PUSH2 0x1854 JUMP JUMPDEST POP PUSH1 0x40 MLOAD PUSH3 0x461BCD PUSH1 0xE5 SHL DUP2 MSTORE PUSH1 0x20 PUSH1 0x4 DUP3 ADD MSTORE PUSH1 0xF PUSH1 0x24 DUP3 ADD MSTORE PUSH15 0x125B9D985B1A59081D1BDAD95B9259 PUSH1 0x8A SHL PUSH1 0x44 DUP3 ADD MSTORE PUSH1 0x64 ADD PUSH2 0x870 JUMP JUMPDEST PUSH1 0x60 DUP2 PUSH1 0x0 SUB PUSH2 0x19B0 JUMPI POP POP PUSH1 0x40 DUP1 MLOAD DUP1 DUP3 ADD SWAP1 SWAP2 MSTORE PUSH1 0x1 DUP2 MSTORE PUSH1 0x3 PUSH1 0xFC SHL PUSH1 0x20 DUP3 ADD MSTORE SWAP1 JUMP JUMPDEST DUP2 PUSH1 0x0 JUMPDEST DUP2 ISZERO PUSH2 0x19DA JUMPI DUP1 PUSH2 0x19C4 DUP2 PUSH2 0x3574 JUMP JUMPDEST SWAP2 POP PUSH2 0x19D3 SWAP1 POP PUSH1 0xA DUP4 PUSH2 0x3710 JUMP JUMPDEST SWAP2 POP PUSH2 0x19B4 JUMP JUMPDEST PUSH1 0x0 DUP2 PUSH1 0x1 PUSH1 0x1 PUSH1 0x40 SHL SUB DUP2 GT ISZERO PUSH2 0x19F4 JUMPI PUSH2 0x19F4 PUSH2 0x2D17 JUMP JUMPDEST PUSH1 0x40 MLOAD SWAP1 DUP1 DUP3 MSTORE DUP1 PUSH1 0x1F ADD PUSH1 0x1F NOT AND PUSH1 0x20 ADD DUP3 ADD PUSH1 0x40 MSTORE DUP1 ISZERO PUSH2 0x1A1E JUMPI PUSH1 0x20 DUP3 ADD DUP2 DUP1 CALLDATASIZE DUP4 CALLDATACOPY ADD SWAP1 POP JUMPDEST POP SWAP1 POP JUMPDEST DUP5 ISZERO PUSH2 0x1A89 JUMPI PUSH2 0x1A33 PUSH1 0x1 DUP4 PUSH2 0x396A JUMP JUMPDEST SWAP2 POP PUSH2 0x1A40 PUSH1 0xA DUP7 PUSH2 0x397D JUMP JUMPDEST PUSH2 0x1A4B SWAP1 PUSH1 0x30 PUSH2 0x36D0 JUMP JUMPDEST PUSH1 0xF8 SHL DUP2 DUP4 DUP2 MLOAD DUP2 LT PUSH2 0x1A60 JUMPI PUSH2 0x1A60 PUSH2 0x358D JUMP JUMPDEST PUSH1 0x20 ADD ADD SWAP1 PUSH1 0x1 PUSH1 0x1 PUSH1 0xF8 SHL SUB NOT AND SWAP1 DUP2 PUSH1 0x0 BYTE SWAP1 MSTORE8 POP PUSH2 0x1A82 PUSH1 0xA DUP7 PUSH2 0x3710 JUMP JUMPDEST SWAP5 POP PUSH2 0x1A22 JUMP JUMPDEST SWAP5 SWAP4 POP POP POP POP JUMP JUMPDEST PUSH1 0x0 PUSH2 0x1AA5 PUSH1 0x6 SLOAD PUSH1 0x1 PUSH1 0x1 PUSH1 0xA0 SHL SUB AND SWAP1 JUMP JUMPDEST PUSH1 0x1 PUSH1 0x1 PUSH1 0xA0 SHL SUB AND CALLER PUSH1 0x1 PUSH1 0x1 PUSH1 0xA0 SHL SUB AND EQ SWAP1 POP SWAP1 JUMP JUMPDEST PUSH1 0x6 DUP1 SLOAD PUSH1 0x1 PUSH1 0x1 PUSH1 0xA0 SHL SUB DUP4 DUP2 AND PUSH1 0x1 PUSH1 0x1 PUSH1 0xA0 SHL SUB NOT DUP4 AND DUP2 OR SWAP1 SWAP4 SSTORE PUSH1 0x40 MLOAD SWAP2 AND SWAP2 SWAP1 DUP3 SWAP1 PUSH32 0x8292FCE18FA69EDF4DB7B94EA2E58241DF0AE57F97E0A6C9B29067028BF92D76 SWAP1 PUSH1 0x0 SWAP1 LOG3 POP POP JUMP JUMPDEST PUSH1 0xB SLOAD PUSH1 0xFF AND ISZERO PUSH2 0xA63 JUMPI PUSH14 0xAAEB6D7670E522A718067333CD4E EXTCODESIZE ISZERO PUSH2 0xA63 JUMPI PUSH1 0x40 MLOAD PUSH4 0x3185C44D PUSH1 0xE2 SHL DUP2 MSTORE ADDRESS PUSH1 0x4 DUP3 ADD MSTORE PUSH1 0x1 PUSH1 0x1 PUSH1 0xA0 SHL SUB DUP3 AND PUSH1 0x24 DUP3 ADD MSTORE PUSH14 0xAAEB6D7670E522A718067333CD4E SWAP1 PUSH4 0xC6171134 SWAP1 PUSH1 0x44 ADD PUSH1 0x20 PUSH1 0x40 MLOAD DUP1 DUP4 SUB DUP2 DUP7 GAS STATICCALL ISZERO DUP1 ISZERO PUSH2 0x1B88 JUMPI RETURNDATASIZE PUSH1 0x0 DUP1 RETURNDATACOPY RETURNDATASIZE PUSH1 0x0 REVERT JUMPDEST POP POP POP POP PUSH1 0x40 MLOAD RETURNDATASIZE PUSH1 0x1F NOT PUSH1 0x1F DUP3 ADD AND DUP3 ADD DUP1 PUSH1 0x40 MSTORE POP DUP2 ADD SWAP1 PUSH2 0x1BAC SWAP2 SWAP1 PUSH2 0x3991 JUMP JUMPDEST PUSH2 0xA63 JUMPI PUSH1 0x40 MLOAD PUSH4 0x3B79C773 PUSH1 0xE2 SHL DUP2 MSTORE PUSH1 0x1 PUSH1 0x1 PUSH1 0xA0 SHL SUB DUP3 AND PUSH1 0x4 DUP3 ADD MSTORE PUSH1 0x24 ADD PUSH2 0x870 JUMP JUMPDEST PUSH1 0x1 PUSH1 0x1 PUSH1 0xA0 SHL SUB DUP6 AND CALLER EQ DUP1 PUSH2 0x1C0E JUMPI POP PUSH1 0x1 PUSH1 0x1 PUSH1 0xA0 SHL SUB DUP6 AND PUSH1 0x0 SWAP1 DUP2 MSTORE PUSH1 0x3 PUSH1 0x20 SWAP1 DUP2 MSTORE PUSH1 0x40 DUP1 DUP4 KECCAK256 CALLER DUP5 MSTORE SWAP1 SWAP2 MSTORE SWAP1 KECCAK256 SLOAD PUSH1 0xFF AND JUMPDEST PUSH2 0x1C2A JUMPI PUSH1 0x40 MLOAD PUSH3 0x461BCD PUSH1 0xE5 SHL DUP2 MSTORE PUSH1 0x4 ADD PUSH2 0x870 SWAP1 PUSH2 0x39AE JUMP JUMPDEST PUSH2 0x1C37 DUP6 DUP6 DUP6 DUP6 DUP6 PUSH2 0x24C4 JUMP JUMPDEST POP POP POP POP POP JUMP JUMPDEST PUSH1 0xB DUP1 SLOAD PUSH1 0xFF NOT AND DUP3 ISZERO ISZERO SWAP1 DUP2 OR SWAP1 SWAP2 SSTORE PUSH1 0x40 MLOAD SWAP1 DUP2 MSTORE PUSH32 0x38475885990D8DFE9CA01F0EF160A1B5514426EAB9DDBC953A3353410BA78096 SWAP1 PUSH1 0x20 ADD PUSH1 0x40 MLOAD DUP1 SWAP2 SUB SWAP1 LOG1 POP JUMP JUMPDEST PUSH2 0x2710 DUP2 GT ISZERO PUSH2 0x1CA7 JUMPI PUSH1 0x40 MLOAD PUSH3 0x461BCD PUSH1 0xE5 SHL DUP2 MSTORE PUSH1 0x4 ADD PUSH2 0x870 SWAP1 PUSH2 0x39DA JUMP JUMPDEST PUSH1 0x7 DUP1 SLOAD PUSH1 0x1 PUSH1 0x1 PUSH1 0xA0 SHL SUB DUP5 AND PUSH1 0x1 PUSH1 0x1 PUSH1 0xB0 SHL SUB NOT SWAP1 SWAP2 AND DUP2 OR PUSH1 0x1 PUSH1 0xA0 SHL PUSH2 0xFFFF DUP6 AND MUL OR SWAP1 SWAP2 SSTORE PUSH1 0x40 MLOAD DUP3 DUP2 MSTORE PUSH32 0x90D7EC04BCB8978719414F82E52E4CB651DB41D0E6F8CEA6118C2191E6183ADB SWAP1 PUSH1 0x20 ADD PUSH1 0x40 MLOAD DUP1 SWAP2 SUB SWAP1 LOG2 POP POP JUMP JUMPDEST PUSH1 0x1 PUSH1 0x1 PUSH1 0xA0 SHL SUB DUP4 AND PUSH2 0x1D2F JUMPI PUSH1 0x40 MLOAD PUSH3 0x461BCD PUSH1 0xE5 SHL DUP2 MSTORE PUSH1 0x4 ADD PUSH2 0x870 SWAP1 PUSH2 0x3A03 JUMP JUMPDEST DUP1 MLOAD DUP3 MLOAD EQ PUSH2 0x1D50 JUMPI PUSH1 0x40 MLOAD PUSH3 0x461BCD PUSH1 0xE5 SHL DUP2 MSTORE PUSH1 0x4 ADD PUSH2 0x870 SWAP1 PUSH2 0x3724 JUMP JUMPDEST PUSH1 0x0 CALLER SWAP1 POP PUSH2 0x1D73 DUP2 DUP6 PUSH1 0x0 DUP7 DUP7 PUSH1 0x40 MLOAD DUP1 PUSH1 0x20 ADD PUSH1 0x40 MSTORE DUP1 PUSH1 0x0 DUP2 MSTORE POP PUSH2 0x2665 JUMP JUMPDEST PUSH1 0x0 JUMPDEST DUP4 MLOAD DUP2 LT ISZERO PUSH2 0x1E3E JUMPI PUSH1 0x0 DUP5 DUP3 DUP2 MLOAD DUP2 LT PUSH2 0x1D93 JUMPI PUSH2 0x1D93 PUSH2 0x358D JUMP JUMPDEST PUSH1 0x20 MUL PUSH1 0x20 ADD ADD MLOAD SWAP1 POP PUSH1 0x0 DUP5 DUP4 DUP2 MLOAD DUP2 LT PUSH2 0x1DB1 JUMPI PUSH2 0x1DB1 PUSH2 0x358D JUMP JUMPDEST PUSH1 0x20 SWAP1 DUP2 MUL SWAP2 SWAP1 SWAP2 ADD DUP2 ADD MLOAD PUSH1 0x1 PUSH1 0x1 PUSH1 0xA0 SHL SUB DUP10 AND PUSH1 0x0 SWAP1 DUP2 MSTORE PUSH1 0x2 DUP4 MSTORE PUSH1 0x40 DUP1 DUP3 KECCAK256 DUP7 DUP4 MSTORE SWAP1 SWAP4 MSTORE SWAP2 SWAP1 SWAP2 KECCAK256 SLOAD SWAP1 SWAP2 POP DUP2 DUP2 LT ISZERO PUSH2 0x1E03 JUMPI PUSH1 0x40 MLOAD PUSH3 0x461BCD PUSH1 0xE5 SHL DUP2 MSTORE PUSH1 0x4 ADD PUSH2 0x870 SWAP1 PUSH2 0x3A2B JUMP JUMPDEST PUSH1 0x1 PUSH1 0x1 PUSH1 0xA0 SHL SUB DUP9 AND PUSH1 0x0 SWAP1 DUP2 MSTORE PUSH1 0x2 PUSH1 0x20 SWAP1 DUP2 MSTORE PUSH1 0x40 DUP1 DUP4 KECCAK256 SWAP6 DUP4 MSTORE SWAP5 SWAP1 MSTORE SWAP3 SWAP1 SWAP3 KECCAK256 SWAP2 SUB SWAP1 SSTORE DUP1 PUSH2 0x1E36 DUP2 PUSH2 0x3574 JUMP JUMPDEST SWAP2 POP POP PUSH2 0x1D76 JUMP JUMPDEST POP PUSH1 0x0 PUSH1 0x1 PUSH1 0x1 PUSH1 0xA0 SHL SUB AND DUP5 PUSH1 0x1 PUSH1 0x1 PUSH1 0xA0 SHL SUB AND DUP3 PUSH1 0x1 PUSH1 0x1 PUSH1 0xA0 SHL SUB AND PUSH1 0x0 DUP1 MLOAD PUSH1 0x20 PUSH2 0x3C54 DUP4 CODECOPY DUP2 MLOAD SWAP2 MSTORE DUP7 DUP7 PUSH1 0x40 MLOAD PUSH2 0x1E7D SWAP3 SWAP2 SWAP1 PUSH2 0x3A55 JUMP JUMPDEST PUSH1 0x40 MLOAD DUP1 SWAP2 SUB SWAP1 LOG4 POP POP POP POP JUMP JUMPDEST PUSH1 0x0 PUSH1 0x5 DUP1 SLOAD PUSH2 0x1E9A SWAP1 PUSH2 0x35A3 JUMP JUMPDEST DUP1 PUSH1 0x1F ADD PUSH1 0x20 DUP1 SWAP2 DIV MUL PUSH1 0x20 ADD PUSH1 0x40 MLOAD SWAP1 DUP2 ADD PUSH1 0x40 MSTORE DUP1 SWAP3 SWAP2 SWAP1 DUP2 DUP2 MSTORE PUSH1 0x20 ADD DUP3 DUP1 SLOAD PUSH2 0x1EC6 SWAP1 PUSH2 0x35A3 JUMP JUMPDEST DUP1 ISZERO PUSH2 0x1F13 JUMPI DUP1 PUSH1 0x1F LT PUSH2 0x1EE8 JUMPI PUSH2 0x100 DUP1 DUP4 SLOAD DIV MUL DUP4 MSTORE SWAP2 PUSH1 0x20 ADD SWAP2 PUSH2 0x1F13 JUMP JUMPDEST DUP3 ADD SWAP2 SWAP1 PUSH1 0x0 MSTORE PUSH1 0x20 PUSH1 0x0 KECCAK256 SWAP1 JUMPDEST DUP2 SLOAD DUP2 MSTORE SWAP1 PUSH1 0x1 ADD SWAP1 PUSH1 0x20 ADD DUP1 DUP4 GT PUSH2 0x1EF6 JUMPI DUP3 SWAP1 SUB PUSH1 0x1F AND DUP3 ADD SWAP2 JUMPDEST POP POP POP POP POP SWAP1 POP DUP2 PUSH1 0x5 SWAP1 DUP2 PUSH2 0x1F29 SWAP2 SWAP1 PUSH2 0x38AB JUMP JUMPDEST POP PUSH32 0xC9C7C3FE08B88B4DF9D4D47EF47D2C43D55C025A0BA88CA442580ED9E7348A16 DUP2 DUP4 PUSH1 0x40 MLOAD PUSH2 0x1F5B SWAP3 SWAP2 SWAP1 PUSH2 0x3A7A JUMP JUMPDEST PUSH1 0x40 MLOAD DUP1 SWAP2 SUB SWAP1 LOG1 POP POP JUMP JUMPDEST PUSH1 0x0 DUP1 PUSH2 0x1F74 DUP5 DUP7 PUSH2 0x36D0 JUMP JUMPDEST PUSH1 0x9 DUP1 SLOAD PUSH1 0x1 DUP2 ADD SWAP1 SWAP2 SSTORE PUSH32 0x6E1540171B6C0C960B71A7020D9F60077F6AF931A8BBF590DA0223DACF75C7AF ADD DUP2 SWAP1 SSTORE PUSH1 0x0 DUP2 DUP2 MSTORE PUSH1 0xA PUSH1 0x20 MSTORE PUSH1 0x40 SWAP1 KECCAK256 SWAP1 SWAP3 POP DUP3 SWAP2 POP PUSH2 0x1FC2 DUP5 DUP3 PUSH2 0x38AB JUMP JUMPDEST POP SWAP4 POP SWAP4 SWAP2 POP POP JUMP JUMPDEST PUSH1 0x1 PUSH1 0x1 PUSH1 0xA0 SHL SUB DUP5 AND PUSH2 0x1FF1 JUMPI PUSH1 0x40 MLOAD PUSH3 0x461BCD PUSH1 0xE5 SHL DUP2 MSTORE PUSH1 0x4 ADD PUSH2 0x870 SWAP1 PUSH2 0x3A9F JUMP JUMPDEST DUP2 MLOAD DUP4 MLOAD EQ PUSH2 0x2012 JUMPI PUSH1 0x40 MLOAD PUSH3 0x461BCD PUSH1 0xE5 SHL DUP2 MSTORE PUSH1 0x4 ADD PUSH2 0x870 SWAP1 PUSH2 0x3724 JUMP JUMPDEST CALLER PUSH2 0x2022 DUP2 PUSH1 0x0 DUP8 DUP8 DUP8 DUP8 PUSH2 0x2665 JUMP JUMPDEST PUSH1 0x0 JUMPDEST DUP5 MLOAD DUP2 LT ISZERO PUSH2 0x20BE JUMPI DUP4 DUP2 DUP2 MLOAD DUP2 LT PUSH2 0x2040 JUMPI PUSH2 0x2040 PUSH2 0x358D JUMP JUMPDEST PUSH1 0x20 MUL PUSH1 0x20 ADD ADD MLOAD PUSH1 0x2 PUSH1 0x0 DUP9 PUSH1 0x1 PUSH1 0x1 PUSH1 0xA0 SHL SUB AND PUSH1 0x1 PUSH1 0x1 PUSH1 0xA0 SHL SUB AND DUP2 MSTORE PUSH1 0x20 ADD SWAP1 DUP2 MSTORE PUSH1 0x20 ADD PUSH1 0x0 KECCAK256 PUSH1 0x0 DUP8 DUP5 DUP2 MLOAD DUP2 LT PUSH2 0x2081 JUMPI PUSH2 0x2081 PUSH2 0x358D JUMP JUMPDEST PUSH1 0x20 MUL PUSH1 0x20 ADD ADD MLOAD DUP2 MSTORE PUSH1 0x20 ADD SWAP1 DUP2 MSTORE PUSH1 0x20 ADD PUSH1 0x0 KECCAK256 PUSH1 0x0 DUP3 DUP3 SLOAD PUSH2 0x20A6 SWAP2 SWAP1 PUSH2 0x36D0 JUMP JUMPDEST SWAP1 SWAP2 SSTORE POP DUP2 SWAP1 POP PUSH2 0x20B6 DUP2 PUSH2 0x3574 JUMP JUMPDEST SWAP2 POP POP PUSH2 0x2025 JUMP JUMPDEST POP DUP5 PUSH1 0x1 PUSH1 0x1 PUSH1 0xA0 SHL SUB AND PUSH1 0x0 PUSH1 0x1 PUSH1 0x1 PUSH1 0xA0 SHL SUB AND DUP3 PUSH1 0x1 PUSH1 0x1 PUSH1 0xA0 SHL SUB AND PUSH1 0x0 DUP1 MLOAD PUSH1 0x20 PUSH2 0x3C54 DUP4 CODECOPY DUP2 MLOAD SWAP2 MSTORE DUP8 DUP8 PUSH1 0x40 MLOAD PUSH2 0x20FD SWAP3 SWAP2 SWAP1 PUSH2 0x3A55 JUMP JUMPDEST PUSH1 0x40 MLOAD DUP1 SWAP2 SUB SWAP1 LOG4 PUSH2 0x1C37 DUP2 PUSH1 0x0 DUP8 DUP8 DUP8 DUP8 PUSH2 0x2771 JUMP JUMPDEST PUSH2 0x2710 DUP2 GT ISZERO PUSH2 0x2136 JUMPI PUSH1 0x40 MLOAD PUSH3 0x461BCD PUSH1 0xE5 SHL DUP2 MSTORE PUSH1 0x4 ADD PUSH2 0x870 SWAP1 PUSH2 0x39DA JUMP JUMPDEST PUSH1 0x40 DUP1 MLOAD DUP1 DUP3 ADD DUP3 MSTORE PUSH1 0x1 PUSH1 0x1 PUSH1 0xA0 SHL SUB DUP5 DUP2 AND DUP1 DUP4 MSTORE PUSH1 0x20 DUP1 DUP5 ADD DUP7 DUP2 MSTORE PUSH1 0x0 DUP10 DUP2 MSTORE PUSH1 0x8 DUP4 MSTORE DUP7 SWAP1 KECCAK256 SWAP5 MLOAD DUP6 SLOAD PUSH1 0x1 PUSH1 0x1 PUSH1 0xA0 SHL SUB NOT AND SWAP5 AND SWAP4 SWAP1 SWAP4 OR DUP5 SSTORE SWAP2 MLOAD PUSH1 0x1 SWAP1 SWAP4 ADD SWAP3 SWAP1 SWAP3 SSTORE SWAP2 MLOAD DUP4 DUP2 MSTORE SWAP1 SWAP2 DUP6 SWAP2 PUSH32 0x7365CF4122F072A3365C20D54EFF9B38D73C096C28E1892EC8F5B0E403A0F12D SWAP2 ADD JUMPDEST PUSH1 0x40 MLOAD DUP1 SWAP2 SUB SWAP1 LOG3 POP POP POP JUMP JUMPDEST CALLER PUSH1 0x1 PUSH1 0x1 PUSH1 0xA0 SHL SUB DUP4 AND DUP2 SUB PUSH2 0x2206 JUMPI PUSH1 0x40 MLOAD PUSH3 0x461BCD PUSH1 0xE5 SHL DUP2 MSTORE PUSH1 0x20 PUSH1 0x4 DUP3 ADD MSTORE PUSH1 0xE PUSH1 0x24 DUP3 ADD MSTORE PUSH14 0x20A8282927AB24A723AFA9A2A623 PUSH1 0x91 SHL PUSH1 0x44 DUP3 ADD MSTORE PUSH1 0x64 ADD PUSH2 0x870 JUMP JUMPDEST PUSH1 0x1 PUSH1 0x1 PUSH1 0xA0 SHL SUB DUP2 DUP2 AND PUSH1 0x0 DUP2 DUP2 MSTORE PUSH1 0x3 PUSH1 0x20 SWAP1 DUP2 MSTORE PUSH1 0x40 DUP1 DUP4 KECCAK256 SWAP5 DUP9 AND DUP1 DUP5 MSTORE SWAP5 DUP3 MSTORE SWAP2 DUP3 SWAP1 KECCAK256 DUP1 SLOAD PUSH1 0xFF NOT AND DUP8 ISZERO ISZERO SWAP1 DUP2 OR SWAP1 SWAP2 SSTORE SWAP2 MLOAD SWAP2 DUP3 MSTORE PUSH32 0x17307EAB39AB6107E8899845AD3D59BD9653F200F220920489CA2B5937696C31 SWAP2 ADD PUSH2 0x21AF JUMP JUMPDEST PUSH1 0x60 PUSH2 0x1610 DUP4 DUP4 PUSH1 0x40 MLOAD DUP1 PUSH1 0x60 ADD PUSH1 0x40 MSTORE DUP1 PUSH1 0x27 DUP2 MSTORE PUSH1 0x20 ADD PUSH2 0x3C94 PUSH1 0x27 SWAP2 CODECOPY PUSH2 0x28A2 JUMP JUMPDEST PUSH1 0x0 DUP3 DUP2 MSTORE PUSH1 0x4 PUSH1 0x20 MSTORE PUSH1 0x40 SWAP1 KECCAK256 PUSH2 0x1124 DUP3 DUP3 PUSH2 0x38AB JUMP JUMPDEST PUSH1 0x1 PUSH1 0x1 PUSH1 0xA0 SHL SUB DUP5 AND PUSH2 0x22CE JUMPI PUSH1 0x40 MLOAD PUSH3 0x461BCD PUSH1 0xE5 SHL DUP2 MSTORE PUSH1 0x4 ADD PUSH2 0x870 SWAP1 PUSH2 0x3A9F JUMP JUMPDEST CALLER PUSH2 0x22EE DUP2 PUSH1 0x0 DUP8 PUSH2 0x22DF DUP9 PUSH2 0x297F JUMP JUMPDEST PUSH2 0x22E8 DUP9 PUSH2 0x297F JUMP JUMPDEST DUP8 PUSH2 0x2665 JUMP JUMPDEST PUSH1 0x1 PUSH1 0x1 PUSH1 0xA0 SHL SUB DUP6 AND PUSH1 0x0 SWAP1 DUP2 MSTORE PUSH1 0x2 PUSH1 0x20 SWAP1 DUP2 MSTORE PUSH1 0x40 DUP1 DUP4 KECCAK256 DUP8 DUP5 MSTORE SWAP1 SWAP2 MSTORE DUP2 KECCAK256 DUP1 SLOAD DUP6 SWAP3 SWAP1 PUSH2 0x2321 SWAP1 DUP5 SWAP1 PUSH2 0x36D0 JUMP JUMPDEST SWAP1 SWAP2 SSTORE POP POP PUSH1 0x40 DUP1 MLOAD DUP6 DUP2 MSTORE PUSH1 0x20 DUP2 ADD DUP6 SWAP1 MSTORE PUSH1 0x1 PUSH1 0x1 PUSH1 0xA0 SHL SUB DUP1 DUP9 AND SWAP3 PUSH1 0x0 SWAP3 SWAP2 DUP6 AND SWAP2 PUSH1 0x0 DUP1 MLOAD PUSH1 0x20 PUSH2 0x3C74 DUP4 CODECOPY DUP2 MLOAD SWAP2 MSTORE SWAP2 ADD PUSH1 0x40 MLOAD DUP1 SWAP2 SUB SWAP1 LOG4 PUSH2 0x1C37 DUP2 PUSH1 0x0 DUP8 DUP8 DUP8 DUP8 PUSH2 0x29CA JUMP JUMPDEST PUSH1 0x1 PUSH1 0x1 PUSH1 0xA0 SHL SUB DUP6 AND CALLER EQ DUP1 PUSH2 0x23A9 JUMPI POP PUSH1 0x1 PUSH1 0x1 PUSH1 0xA0 SHL SUB DUP6 AND PUSH1 0x0 SWAP1 DUP2 MSTORE PUSH1 0x3 PUSH1 0x20 SWAP1 DUP2 MSTORE PUSH1 0x40 DUP1 DUP4 KECCAK256 CALLER DUP5 MSTORE SWAP1 SWAP2 MSTORE SWAP1 KECCAK256 SLOAD PUSH1 0xFF AND JUMPDEST PUSH2 0x23C5 JUMPI PUSH1 0x40 MLOAD PUSH3 0x461BCD PUSH1 0xE5 SHL DUP2 MSTORE PUSH1 0x4 ADD PUSH2 0x870 SWAP1 PUSH2 0x39AE JUMP JUMPDEST PUSH2 0x1C37 DUP6 DUP6 DUP6 DUP6 DUP6 PUSH2 0x2A85 JUMP JUMPDEST PUSH1 0x1 PUSH1 0x1 PUSH1 0xA0 SHL SUB DUP4 AND PUSH2 0x23F8 JUMPI PUSH1 0x40 MLOAD PUSH3 0x461BCD PUSH1 0xE5 SHL DUP2 MSTORE PUSH1 0x4 ADD PUSH2 0x870 SWAP1 PUSH2 0x3A03 JUMP JUMPDEST CALLER PUSH2 0x2427 DUP2 DUP6 PUSH1 0x0 PUSH2 0x2409 DUP8 PUSH2 0x297F JUMP JUMPDEST PUSH2 0x2412 DUP8 PUSH2 0x297F JUMP JUMPDEST PUSH1 0x40 MLOAD DUP1 PUSH1 0x20 ADD PUSH1 0x40 MSTORE DUP1 PUSH1 0x0 DUP2 MSTORE POP PUSH2 0x2665 JUMP JUMPDEST PUSH1 0x1 PUSH1 0x1 PUSH1 0xA0 SHL SUB DUP5 AND PUSH1 0x0 SWAP1 DUP2 MSTORE PUSH1 0x2 PUSH1 0x20 SWAP1 DUP2 MSTORE PUSH1 0x40 DUP1 DUP4 KECCAK256 DUP7 DUP5 MSTORE SWAP1 SWAP2 MSTORE SWAP1 KECCAK256 SLOAD DUP3 DUP2 LT ISZERO PUSH2 0x246B JUMPI PUSH1 0x40 MLOAD PUSH3 0x461BCD PUSH1 0xE5 SHL DUP2 MSTORE PUSH1 0x4 ADD PUSH2 0x870 SWAP1 PUSH2 0x3A2B JUMP JUMPDEST PUSH1 0x1 PUSH1 0x1 PUSH1 0xA0 SHL SUB DUP6 DUP2 AND PUSH1 0x0 DUP2 DUP2 MSTORE PUSH1 0x2 PUSH1 0x20 SWAP1 DUP2 MSTORE PUSH1 0x40 DUP1 DUP4 KECCAK256 DUP10 DUP5 MSTORE DUP3 MSTORE DUP1 DUP4 KECCAK256 DUP9 DUP8 SUB SWAP1 SSTORE DUP1 MLOAD DUP10 DUP2 MSTORE SWAP2 DUP3 ADD DUP9 SWAP1 MSTORE SWAP2 SWAP4 DUP7 AND SWAP2 PUSH1 0x0 DUP1 MLOAD PUSH1 0x20 PUSH2 0x3C74 DUP4 CODECOPY DUP2 MLOAD SWAP2 MSTORE SWAP2 ADD PUSH1 0x40 MLOAD DUP1 SWAP2 SUB SWAP1 LOG4 POP POP POP POP POP JUMP JUMPDEST DUP2 MLOAD DUP4 MLOAD EQ PUSH2 0x24E5 JUMPI PUSH1 0x40 MLOAD PUSH3 0x461BCD PUSH1 0xE5 SHL DUP2 MSTORE PUSH1 0x4 ADD PUSH2 0x870 SWAP1 PUSH2 0x3724 JUMP JUMPDEST PUSH1 0x1 PUSH1 0x1 PUSH1 0xA0 SHL SUB DUP5 AND PUSH2 0x250B JUMPI PUSH1 0x40 MLOAD PUSH3 0x461BCD PUSH1 0xE5 SHL DUP2 MSTORE PUSH1 0x4 ADD PUSH2 0x870 SWAP1 PUSH2 0x3A9F JUMP JUMPDEST CALLER PUSH2 0x251A DUP2 DUP8 DUP8 DUP8 DUP8 DUP8 PUSH2 0x2665 JUMP JUMPDEST PUSH1 0x0 JUMPDEST DUP5 MLOAD DUP2 LT ISZERO PUSH2 0x2611 JUMPI PUSH1 0x0 DUP6 DUP3 DUP2 MLOAD DUP2 LT PUSH2 0x253A JUMPI PUSH2 0x253A PUSH2 0x358D JUMP JUMPDEST PUSH1 0x20 MUL PUSH1 0x20 ADD ADD MLOAD SWAP1 POP PUSH1 0x0 DUP6 DUP4 DUP2 MLOAD DUP2 LT PUSH2 0x2558 JUMPI PUSH2 0x2558 PUSH2 0x358D JUMP JUMPDEST PUSH1 0x20 SWAP1 DUP2 MUL SWAP2 SWAP1 SWAP2 ADD DUP2 ADD MLOAD PUSH1 0x1 PUSH1 0x1 PUSH1 0xA0 SHL SUB DUP12 AND PUSH1 0x0 SWAP1 DUP2 MSTORE PUSH1 0x2 DUP4 MSTORE PUSH1 0x40 DUP1 DUP3 KECCAK256 DUP7 DUP4 MSTORE SWAP1 SWAP4 MSTORE SWAP2 SWAP1 SWAP2 KECCAK256 SLOAD SWAP1 SWAP2 POP DUP2 DUP2 LT ISZERO PUSH2 0x25AA JUMPI PUSH1 0x40 MLOAD PUSH3 0x461BCD PUSH1 0xE5 SHL DUP2 MSTORE PUSH1 0x4 ADD PUSH2 0x870 SWAP1 PUSH2 0x3A2B JUMP JUMPDEST PUSH1 0x1 PUSH1 0x1 PUSH1 0xA0 SHL SUB DUP1 DUP12 AND PUSH1 0x0 SWAP1 DUP2 MSTORE PUSH1 0x2 PUSH1 0x20 DUP2 DUP2 MSTORE PUSH1 0x40 DUP1 DUP5 KECCAK256 DUP9 DUP6 MSTORE DUP3 MSTORE DUP1 DUP5 KECCAK256 DUP8 DUP8 SUB SWAP1 SSTORE SWAP4 DUP14 AND DUP4 MSTORE SWAP1 DUP2 MSTORE DUP3 DUP3 KECCAK256 DUP7 DUP4 MSTORE SWAP1 MSTORE SWAP1 DUP2 KECCAK256 DUP1 SLOAD DUP5 SWAP3 SWAP1 PUSH2 0x25F6 SWAP1 DUP5 SWAP1 PUSH2 0x36D0 JUMP JUMPDEST SWAP3 POP POP DUP2 SWAP1 SSTORE POP POP POP POP DUP1 PUSH2 0x260A SWAP1 PUSH2 0x3574 JUMP JUMPDEST SWAP1 POP PUSH2 0x251D JUMP JUMPDEST POP DUP5 PUSH1 0x1 PUSH1 0x1 PUSH1 0xA0 SHL SUB AND DUP7 PUSH1 0x1 PUSH1 0x1 PUSH1 0xA0 SHL SUB AND DUP3 PUSH1 0x1 PUSH1 0x1 PUSH1 0xA0 SHL SUB AND PUSH1 0x0 DUP1 MLOAD PUSH1 0x20 PUSH2 0x3C54 DUP4 CODECOPY DUP2 MLOAD SWAP2 MSTORE DUP8 DUP8 PUSH1 0x40 MLOAD PUSH2 0x264F SWAP3 SWAP2 SWAP1 PUSH2 0x3A55 JUMP JUMPDEST PUSH1 0x40 MLOAD DUP1 SWAP2 SUB SWAP1 LOG4 PUSH2 0xB5F DUP2 DUP8 DUP8 DUP8 DUP8 DUP8 PUSH2 0x2771 JUMP JUMPDEST PUSH1 0x1 PUSH1 0x1 PUSH1 0xA0 SHL SUB DUP6 AND PUSH2 0x26EC JUMPI PUSH1 0x0 JUMPDEST DUP4 MLOAD DUP2 LT ISZERO PUSH2 0x26EA JUMPI DUP3 DUP2 DUP2 MLOAD DUP2 LT PUSH2 0x2691 JUMPI PUSH2 0x2691 PUSH2 0x358D JUMP JUMPDEST PUSH1 0x20 MUL PUSH1 0x20 ADD ADD MLOAD PUSH1 0xD PUSH1 0x0 DUP7 DUP5 DUP2 MLOAD DUP2 LT PUSH2 0x26AF JUMPI PUSH2 0x26AF PUSH2 0x358D JUMP JUMPDEST PUSH1 0x20 MUL PUSH1 0x20 ADD ADD MLOAD DUP2 MSTORE PUSH1 0x20 ADD SWAP1 DUP2 MSTORE PUSH1 0x20 ADD PUSH1 0x0 KECCAK256 PUSH1 0x0 DUP3 DUP3 SLOAD PUSH2 0x26D4 SWAP2 SWAP1 PUSH2 0x36D0 JUMP JUMPDEST SWAP1 SWAP2 SSTORE POP PUSH2 0x26E3 SWAP1 POP DUP2 PUSH2 0x3574 JUMP JUMPDEST SWAP1 POP PUSH2 0x2676 JUMP JUMPDEST POP JUMPDEST PUSH1 0x1 PUSH1 0x1 PUSH1 0xA0 SHL SUB DUP5 AND PUSH2 0xB5F JUMPI PUSH1 0x0 JUMPDEST DUP4 MLOAD DUP2 LT ISZERO PUSH2 0x10DF JUMPI DUP3 DUP2 DUP2 MLOAD DUP2 LT PUSH2 0x2718 JUMPI PUSH2 0x2718 PUSH2 0x358D JUMP JUMPDEST PUSH1 0x20 MUL PUSH1 0x20 ADD ADD MLOAD PUSH1 0xD PUSH1 0x0 DUP7 DUP5 DUP2 MLOAD DUP2 LT PUSH2 0x2736 JUMPI PUSH2 0x2736 PUSH2 0x358D JUMP JUMPDEST PUSH1 0x20 MUL PUSH1 0x20 ADD ADD MLOAD DUP2 MSTORE PUSH1 0x20 ADD SWAP1 DUP2 MSTORE PUSH1 0x20 ADD PUSH1 0x0 KECCAK256 PUSH1 0x0 DUP3 DUP3 SLOAD PUSH2 0x275B SWAP2 SWAP1 PUSH2 0x396A JUMP JUMPDEST SWAP1 SWAP2 SSTORE POP PUSH2 0x276A SWAP1 POP DUP2 PUSH2 0x3574 JUMP JUMPDEST SWAP1 POP PUSH2 0x26FD JUMP JUMPDEST PUSH1 0x1 PUSH1 0x1 PUSH1 0xA0 SHL SUB DUP5 AND EXTCODESIZE ISZERO PUSH2 0xB5F JUMPI PUSH1 0x40 MLOAD PUSH4 0xBC197C81 PUSH1 0xE0 SHL DUP2 MSTORE PUSH1 0x1 PUSH1 0x1 PUSH1 0xA0 SHL SUB DUP6 AND SWAP1 PUSH4 0xBC197C81 SWAP1 PUSH2 0x27B5 SWAP1 DUP10 SWAP1 DUP10 SWAP1 DUP9 SWAP1 DUP9 SWAP1 DUP9 SWAP1 PUSH1 0x4 ADD PUSH2 0x3AC5 JUMP JUMPDEST PUSH1 0x20 PUSH1 0x40 MLOAD DUP1 DUP4 SUB DUP2 PUSH1 0x0 DUP8 GAS CALL SWAP3 POP POP POP DUP1 ISZERO PUSH2 0x27F0 JUMPI POP PUSH1 0x40 DUP1 MLOAD PUSH1 0x1F RETURNDATASIZE SWAP1 DUP2 ADD PUSH1 0x1F NOT AND DUP3 ADD SWAP1 SWAP3 MSTORE PUSH2 0x27ED SWAP2 DUP2 ADD SWAP1 PUSH2 0x3B23 JUMP JUMPDEST PUSH1 0x1 JUMPDEST PUSH2 0x2872 JUMPI PUSH2 0x27FC PUSH2 0x3B40 JUMP JUMPDEST DUP1 PUSH4 0x8C379A0 SUB PUSH2 0x2835 JUMPI POP PUSH2 0x2810 PUSH2 0x3B5C JUMP JUMPDEST DUP1 PUSH2 0x281B JUMPI POP PUSH2 0x2837 JUMP JUMPDEST DUP1 PUSH1 0x40 MLOAD PUSH3 0x461BCD PUSH1 0xE5 SHL DUP2 MSTORE PUSH1 0x4 ADD PUSH2 0x870 SWAP2 SWAP1 PUSH2 0x2D04 JUMP JUMPDEST POP JUMPDEST PUSH1 0x40 MLOAD PUSH3 0x461BCD PUSH1 0xE5 SHL DUP2 MSTORE PUSH1 0x20 PUSH1 0x4 DUP3 ADD MSTORE PUSH1 0x10 PUSH1 0x24 DUP3 ADD MSTORE PUSH16 0x10A2A92198989A9AA922A1A2A4AB22A9 PUSH1 0x81 SHL PUSH1 0x44 DUP3 ADD MSTORE PUSH1 0x64 ADD PUSH2 0x870 JUMP JUMPDEST PUSH1 0x1 PUSH1 0x1 PUSH1 0xE0 SHL SUB NOT DUP2 AND PUSH4 0xBC197C81 PUSH1 0xE0 SHL EQ PUSH2 0x10DF JUMPI PUSH1 0x40 MLOAD PUSH3 0x461BCD PUSH1 0xE5 SHL DUP2 MSTORE PUSH1 0x4 ADD PUSH2 0x870 SWAP1 PUSH2 0x3BE5 JUMP JUMPDEST PUSH1 0x60 PUSH1 0x1 PUSH1 0x1 PUSH1 0xA0 SHL SUB DUP5 AND EXTCODESIZE PUSH2 0x290A JUMPI PUSH1 0x40 MLOAD PUSH3 0x461BCD PUSH1 0xE5 SHL DUP2 MSTORE PUSH1 0x20 PUSH1 0x4 DUP3 ADD MSTORE PUSH1 0x26 PUSH1 0x24 DUP3 ADD MSTORE PUSH32 0x416464726573733A2064656C65676174652063616C6C20746F206E6F6E2D636F PUSH1 0x44 DUP3 ADD MSTORE PUSH6 0x1B9D1C9858DD PUSH1 0xD2 SHL PUSH1 0x64 DUP3 ADD MSTORE PUSH1 0x84 ADD PUSH2 0x870 JUMP JUMPDEST PUSH1 0x0 DUP1 DUP6 PUSH1 0x1 PUSH1 0x1 PUSH1 0xA0 SHL SUB AND DUP6 PUSH1 0x40 MLOAD PUSH2 0x2925 SWAP2 SWAP1 PUSH2 0x37FC JUMP JUMPDEST PUSH1 0x0 PUSH1 0x40 MLOAD DUP1 DUP4 SUB DUP2 DUP6 GAS DELEGATECALL SWAP2 POP POP RETURNDATASIZE DUP1 PUSH1 0x0 DUP2 EQ PUSH2 0x2960 JUMPI PUSH1 0x40 MLOAD SWAP2 POP PUSH1 0x1F NOT PUSH1 0x3F RETURNDATASIZE ADD AND DUP3 ADD PUSH1 0x40 MSTORE RETURNDATASIZE DUP3 MSTORE RETURNDATASIZE PUSH1 0x0 PUSH1 0x20 DUP5 ADD RETURNDATACOPY PUSH2 0x2965 JUMP JUMPDEST PUSH1 0x60 SWAP2 POP JUMPDEST POP SWAP2 POP SWAP2 POP PUSH2 0x2975 DUP3 DUP3 DUP7 PUSH2 0x2B99 JUMP JUMPDEST SWAP7 SWAP6 POP POP POP POP POP POP JUMP JUMPDEST PUSH1 0x40 DUP1 MLOAD PUSH1 0x1 DUP1 DUP3 MSTORE DUP2 DUP4 ADD SWAP1 SWAP3 MSTORE PUSH1 0x60 SWAP2 PUSH1 0x0 SWAP2 SWAP1 PUSH1 0x20 DUP1 DUP4 ADD SWAP1 DUP1 CALLDATASIZE DUP4 CALLDATACOPY ADD SWAP1 POP POP SWAP1 POP DUP3 DUP2 PUSH1 0x0 DUP2 MLOAD DUP2 LT PUSH2 0x29B9 JUMPI PUSH2 0x29B9 PUSH2 0x358D JUMP JUMPDEST PUSH1 0x20 SWAP1 DUP2 MUL SWAP2 SWAP1 SWAP2 ADD ADD MSTORE SWAP3 SWAP2 POP POP JUMP JUMPDEST PUSH1 0x1 PUSH1 0x1 PUSH1 0xA0 SHL SUB DUP5 AND EXTCODESIZE ISZERO PUSH2 0xB5F JUMPI PUSH1 0x40 MLOAD PUSH4 0xF23A6E61 PUSH1 0xE0 SHL DUP2 MSTORE PUSH1 0x1 PUSH1 0x1 PUSH1 0xA0 SHL SUB DUP6 AND SWAP1 PUSH4 0xF23A6E61 SWAP1 PUSH2 0x2A0E SWAP1 DUP10 SWAP1 DUP10 SWAP1 DUP9 SWAP1 DUP9 SWAP1 DUP9 SWAP1 PUSH1 0x4 ADD PUSH2 0x3C0E JUMP JUMPDEST PUSH1 0x20 PUSH1 0x40 MLOAD DUP1 DUP4 SUB DUP2 PUSH1 0x0 DUP8 GAS CALL SWAP3 POP POP POP DUP1 ISZERO PUSH2 0x2A49 JUMPI POP PUSH1 0x40 DUP1 MLOAD PUSH1 0x1F RETURNDATASIZE SWAP1 DUP2 ADD PUSH1 0x1F NOT AND DUP3 ADD SWAP1 SWAP3 MSTORE PUSH2 0x2A46 SWAP2 DUP2 ADD SWAP1 PUSH2 0x3B23 JUMP JUMPDEST PUSH1 0x1 JUMPDEST PUSH2 0x2A55 JUMPI PUSH2 0x27FC PUSH2 0x3B40 JUMP JUMPDEST PUSH1 0x1 PUSH1 0x1 PUSH1 0xE0 SHL SUB NOT DUP2 AND PUSH4 0xF23A6E61 PUSH1 0xE0 SHL EQ PUSH2 0x10DF JUMPI PUSH1 0x40 MLOAD PUSH3 0x461BCD PUSH1 0xE5 SHL DUP2 MSTORE PUSH1 0x4 ADD PUSH2 0x870 SWAP1 PUSH2 0x3BE5 JUMP JUMPDEST PUSH1 0x1 PUSH1 0x1 PUSH1 0xA0 SHL SUB DUP5 AND PUSH2 0x2AAB JUMPI PUSH1 0x40 MLOAD PUSH3 0x461BCD PUSH1 0xE5 SHL DUP2 MSTORE PUSH1 0x4 ADD PUSH2 0x870 SWAP1 PUSH2 0x3A9F JUMP JUMPDEST CALLER PUSH2 0x2ABB DUP2 DUP8 DUP8 PUSH2 0x22DF DUP9 PUSH2 0x297F JUMP JUMPDEST PUSH1 0x1 PUSH1 0x1 PUSH1 0xA0 SHL SUB DUP7 AND PUSH1 0x0 SWAP1 DUP2 MSTORE PUSH1 0x2 PUSH1 0x20 SWAP1 DUP2 MSTORE PUSH1 0x40 DUP1 DUP4 KECCAK256 DUP8 DUP5 MSTORE SWAP1 SWAP2 MSTORE SWAP1 KECCAK256 SLOAD DUP4 DUP2 LT ISZERO PUSH2 0x2AFF JUMPI PUSH1 0x40 MLOAD PUSH3 0x461BCD PUSH1 0xE5 SHL DUP2 MSTORE PUSH1 0x4 ADD PUSH2 0x870 SWAP1 PUSH2 0x3A2B JUMP JUMPDEST PUSH1 0x1 PUSH1 0x1 PUSH1 0xA0 SHL SUB DUP1 DUP9 AND PUSH1 0x0 SWAP1 DUP2 MSTORE PUSH1 0x2 PUSH1 0x20 DUP2 DUP2 MSTORE PUSH1 0x40 DUP1 DUP5 KECCAK256 DUP11 DUP6 MSTORE DUP3 MSTORE DUP1 DUP5 KECCAK256 DUP10 DUP8 SUB SWAP1 SSTORE SWAP4 DUP11 AND DUP4 MSTORE SWAP1 DUP2 MSTORE DUP3 DUP3 KECCAK256 DUP9 DUP4 MSTORE SWAP1 MSTORE SWAP1 DUP2 KECCAK256 DUP1 SLOAD DUP7 SWAP3 SWAP1 PUSH2 0x2B4B SWAP1 DUP5 SWAP1 PUSH2 0x36D0 JUMP JUMPDEST SWAP1 SWAP2 SSTORE POP POP PUSH1 0x40 DUP1 MLOAD DUP7 DUP2 MSTORE PUSH1 0x20 DUP2 ADD DUP7 SWAP1 MSTORE PUSH1 0x1 PUSH1 0x1 PUSH1 0xA0 SHL SUB DUP1 DUP10 AND SWAP3 DUP11 DUP3 AND SWAP3 SWAP2 DUP7 AND SWAP2 PUSH1 0x0 DUP1 MLOAD PUSH1 0x20 PUSH2 0x3C74 DUP4 CODECOPY DUP2 MLOAD SWAP2 MSTORE SWAP2 ADD PUSH1 0x40 MLOAD DUP1 SWAP2 SUB SWAP1 LOG4 PUSH2 0x10DF DUP3 DUP9 DUP9 DUP9 DUP9 DUP9 PUSH2 0x29CA JUMP JUMPDEST PUSH1 0x60 DUP4 ISZERO PUSH2 0x2BA8 JUMPI POP DUP2 PUSH2 0x1610 JUMP JUMPDEST DUP3 MLOAD ISZERO PUSH2 0x2BB8 JUMPI DUP3 MLOAD DUP1 DUP5 PUSH1 0x20 ADD REVERT JUMPDEST DUP2 PUSH1 0x40 MLOAD PUSH3 0x461BCD PUSH1 0xE5 SHL DUP2 MSTORE PUSH1 0x4 ADD PUSH2 0x870 SWAP2 SWAP1 PUSH2 0x2D04 JUMP JUMPDEST DUP1 CALLDATALOAD PUSH1 0x1 PUSH1 0x1 PUSH1 0xA0 SHL SUB DUP2 AND DUP2 EQ PUSH2 0x2BE9 JUMPI PUSH1 0x0 DUP1 REVERT JUMPDEST SWAP2 SWAP1 POP JUMP JUMPDEST PUSH1 0x0 DUP1 PUSH1 0x40 DUP4 DUP6 SUB SLT ISZERO PUSH2 0x2C01 JUMPI PUSH1 0x0 DUP1 REVERT JUMPDEST PUSH2 0x2C0A DUP4 PUSH2 0x2BD2 JUMP JUMPDEST SWAP5 PUSH1 0x20 SWAP4 SWAP1 SWAP4 ADD CALLDATALOAD SWAP4 POP POP POP JUMP JUMPDEST PUSH1 0x0 PUSH1 0x20 DUP3 DUP5 SUB SLT ISZERO PUSH2 0x2C2A JUMPI PUSH1 0x0 DUP1 REVERT JUMPDEST PUSH2 0x1610 DUP3 PUSH2 0x2BD2 JUMP JUMPDEST PUSH1 0x0 DUP2 MLOAD DUP1 DUP5 MSTORE PUSH1 0x20 DUP1 DUP6 ADD SWAP5 POP DUP1 DUP5 ADD PUSH1 0x0 JUMPDEST DUP4 DUP2 LT ISZERO PUSH2 0x2C63 JUMPI DUP2 MLOAD DUP8 MSTORE SWAP6 DUP3 ADD SWAP6 SWAP1 DUP3 ADD SWAP1 PUSH1 0x1 ADD PUSH2 0x2C47 JUMP JUMPDEST POP SWAP5 SWAP6 SWAP5 POP POP POP POP POP JUMP JUMPDEST PUSH1 0x20 DUP2 MSTORE PUSH1 0x0 PUSH2 0x1610 PUSH1 0x20 DUP4 ADD DUP5 PUSH2 0x2C33 JUMP JUMPDEST PUSH1 0x1 PUSH1 0x1 PUSH1 0xE0 SHL SUB NOT DUP2 AND DUP2 EQ PUSH2 0xA63 JUMPI PUSH1 0x0 DUP1 REVERT JUMPDEST PUSH1 0x0 PUSH1 0x20 DUP3 DUP5 SUB SLT ISZERO PUSH2 0x2CA9 JUMPI PUSH1 0x0 DUP1 REVERT JUMPDEST DUP2 CALLDATALOAD PUSH2 0x1610 DUP2 PUSH2 0x2C81 JUMP JUMPDEST PUSH1 0x0 JUMPDEST DUP4 DUP2 LT ISZERO PUSH2 0x2CCF JUMPI DUP2 DUP2 ADD MLOAD DUP4 DUP3 ADD MSTORE PUSH1 0x20 ADD PUSH2 0x2CB7 JUMP JUMPDEST POP POP PUSH1 0x0 SWAP2 ADD MSTORE JUMP JUMPDEST PUSH1 0x0 DUP2 MLOAD DUP1 DUP5 MSTORE PUSH2 0x2CF0 DUP2 PUSH1 0x20 DUP7 ADD PUSH1 0x20 DUP7 ADD PUSH2 0x2CB4 JUMP JUMPDEST PUSH1 0x1F ADD PUSH1 0x1F NOT AND SWAP3 SWAP1 SWAP3 ADD PUSH1 0x20 ADD SWAP3 SWAP2 POP POP JUMP JUMPDEST PUSH1 0x20 DUP2 MSTORE PUSH1 0x0 PUSH2 0x1610 PUSH1 0x20 DUP4 ADD DUP5 PUSH2 0x2CD8 JUMP JUMPDEST PUSH4 0x4E487B71 PUSH1 0xE0 SHL PUSH1 0x0 MSTORE PUSH1 0x41 PUSH1 0x4 MSTORE PUSH1 0x24 PUSH1 0x0 REVERT JUMPDEST PUSH1 0x1F DUP3 ADD PUSH1 0x1F NOT AND DUP2 ADD PUSH1 0x1 PUSH1 0x1 PUSH1 0x40 SHL SUB DUP2 GT DUP3 DUP3 LT OR ISZERO PUSH2 0x2D52 JUMPI PUSH2 0x2D52 PUSH2 0x2D17 JUMP JUMPDEST PUSH1 0x40 MSTORE POP POP JUMP JUMPDEST PUSH1 0x0 DUP3 PUSH1 0x1F DUP4 ADD SLT PUSH2 0x2D6A JUMPI PUSH1 0x0 DUP1 REVERT JUMPDEST DUP2 CALLDATALOAD PUSH1 0x1 PUSH1 0x1 PUSH1 0x40 SHL SUB DUP2 GT ISZERO PUSH2 0x2D83 JUMPI PUSH2 0x2D83 PUSH2 0x2D17 JUMP JUMPDEST PUSH1 0x40 MLOAD PUSH2 0x2D9A PUSH1 0x1F DUP4 ADD PUSH1 0x1F NOT AND PUSH1 0x20 ADD DUP3 PUSH2 0x2D2D JUMP JUMPDEST DUP2 DUP2 MSTORE DUP5 PUSH1 0x20 DUP4 DUP7 ADD ADD GT ISZERO PUSH2 0x2DAF JUMPI PUSH1 0x0 DUP1 REVERT JUMPDEST DUP2 PUSH1 0x20 DUP6 ADD PUSH1 0x20 DUP4 ADD CALLDATACOPY PUSH1 0x0 SWAP2 DUP2 ADD PUSH1 0x20 ADD SWAP2 SWAP1 SWAP2 MSTORE SWAP4 SWAP3 POP POP POP JUMP JUMPDEST PUSH1 0x0 DUP1 PUSH1 0x0 DUP1 PUSH1 0x80 DUP6 DUP8 SUB SLT ISZERO PUSH2 0x2DE2 JUMPI PUSH1 0x0 DUP1 REVERT JUMPDEST PUSH2 0x2DEB DUP6 PUSH2 0x2BD2 JUMP JUMPDEST SWAP4 POP PUSH1 0x20 DUP6 ADD CALLDATALOAD PUSH1 0x1 PUSH1 0x1 PUSH1 0x40 SHL SUB DUP2 GT ISZERO PUSH2 0x2E06 JUMPI PUSH1 0x0 DUP1 REVERT JUMPDEST PUSH2 0x2E12 DUP8 DUP3 DUP9 ADD PUSH2 0x2D59 JUMP JUMPDEST SWAP5 SWAP8 SWAP5 SWAP7 POP POP POP POP PUSH1 0x40 DUP4 ADD CALLDATALOAD SWAP3 PUSH1 0x60 ADD CALLDATALOAD SWAP2 SWAP1 POP JUMP JUMPDEST PUSH1 0x0 PUSH1 0x20 DUP3 DUP5 SUB SLT ISZERO PUSH2 0x2E3B JUMPI PUSH1 0x0 DUP1 REVERT JUMPDEST POP CALLDATALOAD SWAP2 SWAP1 POP JUMP JUMPDEST PUSH1 0x0 DUP1 PUSH1 0x40 DUP4 DUP6 SUB SLT ISZERO PUSH2 0x2E55 JUMPI PUSH1 0x0 DUP1 REVERT JUMPDEST POP POP DUP1 CALLDATALOAD SWAP3 PUSH1 0x20 SWAP1 SWAP2 ADD CALLDATALOAD SWAP2 POP JUMP JUMPDEST PUSH1 0x0 PUSH1 0x1 PUSH1 0x1 PUSH1 0x40 SHL SUB DUP3 GT ISZERO PUSH2 0x2E7D JUMPI PUSH2 0x2E7D PUSH2 0x2D17 JUMP JUMPDEST POP PUSH1 0x5 SHL PUSH1 0x20 ADD SWAP1 JUMP JUMPDEST PUSH1 0x0 DUP3 PUSH1 0x1F DUP4 ADD SLT PUSH2 0x2E98 JUMPI PUSH1 0x0 DUP1 REVERT JUMPDEST DUP2 CALLDATALOAD PUSH1 0x20 PUSH2 0x2EA5 DUP3 PUSH2 0x2E64 JUMP JUMPDEST PUSH1 0x40 MLOAD PUSH2 0x2EB2 DUP3 DUP3 PUSH2 0x2D2D JUMP JUMPDEST DUP4 DUP2 MSTORE PUSH1 0x5 SWAP4 SWAP1 SWAP4 SHL DUP6 ADD DUP3 ADD SWAP3 DUP3 DUP2 ADD SWAP2 POP DUP7 DUP5 GT ISZERO PUSH2 0x2ED2 JUMPI PUSH1 0x0 DUP1 REVERT JUMPDEST DUP3 DUP7 ADD JUMPDEST DUP5 DUP2 LT ISZERO PUSH2 0x2EED JUMPI DUP1 CALLDATALOAD DUP4 MSTORE SWAP2 DUP4 ADD SWAP2 DUP4 ADD PUSH2 0x2ED6 JUMP JUMPDEST POP SWAP7 SWAP6 POP POP POP POP POP POP JUMP JUMPDEST PUSH1 0x0 DUP1 PUSH1 0x0 DUP1 PUSH1 0x0 PUSH1 0xA0 DUP7 DUP9 SUB SLT ISZERO PUSH2 0x2F10 JUMPI PUSH1 0x0 DUP1 REVERT JUMPDEST PUSH2 0x2F19 DUP7 PUSH2 0x2BD2 JUMP JUMPDEST SWAP5 POP PUSH2 0x2F27 PUSH1 0x20 DUP8 ADD PUSH2 0x2BD2 JUMP JUMPDEST SWAP4 POP PUSH1 0x40 DUP7 ADD CALLDATALOAD PUSH1 0x1 PUSH1 0x1 PUSH1 0x40 SHL SUB DUP1 DUP3 GT ISZERO PUSH2 0x2F43 JUMPI PUSH1 0x0 DUP1 REVERT JUMPDEST PUSH2 0x2F4F DUP10 DUP4 DUP11 ADD PUSH2 0x2E87 JUMP JUMPDEST SWAP5 POP PUSH1 0x60 DUP9 ADD CALLDATALOAD SWAP2 POP DUP1 DUP3 GT ISZERO PUSH2 0x2F65 JUMPI PUSH1 0x0 DUP1 REVERT JUMPDEST PUSH2 0x2F71 DUP10 DUP4 DUP11 ADD PUSH2 0x2E87 JUMP JUMPDEST SWAP4 POP PUSH1 0x80 DUP9 ADD CALLDATALOAD SWAP2 POP DUP1 DUP3 GT ISZERO PUSH2 0x2F87 JUMPI PUSH1 0x0 DUP1 REVERT JUMPDEST POP PUSH2 0x2F94 DUP9 DUP3 DUP10 ADD PUSH2 0x2D59 JUMP JUMPDEST SWAP2 POP POP SWAP3 SWAP6 POP SWAP3 SWAP6 SWAP1 SWAP4 POP JUMP JUMPDEST DUP1 ISZERO ISZERO DUP2 EQ PUSH2 0xA63 JUMPI PUSH1 0x0 DUP1 REVERT JUMPDEST PUSH1 0x0 PUSH1 0x20 DUP3 DUP5 SUB SLT ISZERO PUSH2 0x2FC1 JUMPI PUSH1 0x0 DUP1 REVERT JUMPDEST DUP2 CALLDATALOAD PUSH2 0x1610 DUP2 PUSH2 0x2FA1 JUMP JUMPDEST PUSH1 0x0 DUP1 PUSH1 0x40 DUP4 DUP6 SUB SLT ISZERO PUSH2 0x2FDF JUMPI PUSH1 0x0 DUP1 REVERT JUMPDEST DUP3 CALLDATALOAD PUSH1 0x1 PUSH1 0x1 PUSH1 0x40 SHL SUB DUP1 DUP3 GT ISZERO PUSH2 0x2FF6 JUMPI PUSH1 0x0 DUP1 REVERT JUMPDEST DUP2 DUP6 ADD SWAP2 POP DUP6 PUSH1 0x1F DUP4 ADD SLT PUSH2 0x300A JUMPI PUSH1 0x0 DUP1 REVERT JUMPDEST DUP2 CALLDATALOAD PUSH1 0x20 PUSH2 0x3017 DUP3 PUSH2 0x2E64 JUMP JUMPDEST PUSH1 0x40 MLOAD PUSH2 0x3024 DUP3 DUP3 PUSH2 0x2D2D JUMP JUMPDEST DUP4 DUP2 MSTORE PUSH1 0x5 SWAP4 SWAP1 SWAP4 SHL DUP6 ADD DUP3 ADD SWAP3 DUP3 DUP2 ADD SWAP2 POP DUP10 DUP5 GT ISZERO PUSH2 0x3044 JUMPI PUSH1 0x0 DUP1 REVERT JUMPDEST SWAP5 DUP3 ADD SWAP5 JUMPDEST DUP4 DUP7 LT ISZERO PUSH2 0x3069 JUMPI PUSH2 0x305A DUP7 PUSH2 0x2BD2 JUMP JUMPDEST DUP3 MSTORE SWAP5 DUP3 ADD SWAP5 SWAP1 DUP3 ADD SWAP1 PUSH2 0x3049 JUMP JUMPDEST SWAP7 POP POP DUP7 ADD CALLDATALOAD SWAP3 POP POP DUP1 DUP3 GT ISZERO PUSH2 0x307F JUMPI PUSH1 0x0 DUP1 REVERT JUMPDEST POP PUSH2 0x308C DUP6 DUP3 DUP7 ADD PUSH2 0x2E87 JUMP JUMPDEST SWAP2 POP POP SWAP3 POP SWAP3 SWAP1 POP JUMP JUMPDEST PUSH1 0x0 DUP1 PUSH1 0x0 PUSH1 0x60 DUP5 DUP7 SUB SLT ISZERO PUSH2 0x30AB JUMPI PUSH1 0x0 DUP1 REVERT JUMPDEST PUSH2 0x30B4 DUP5 PUSH2 0x2BD2 JUMP JUMPDEST SWAP3 POP PUSH1 0x20 DUP5 ADD CALLDATALOAD PUSH1 0x1 PUSH1 0x1 PUSH1 0x40 SHL SUB DUP1 DUP3 GT ISZERO PUSH2 0x30D0 JUMPI PUSH1 0x0 DUP1 REVERT JUMPDEST PUSH2 0x30DC DUP8 DUP4 DUP9 ADD PUSH2 0x2E87 JUMP JUMPDEST SWAP4 POP PUSH1 0x40 DUP7 ADD CALLDATALOAD SWAP2 POP DUP1 DUP3 GT ISZERO PUSH2 0x30F2 JUMPI PUSH1 0x0 DUP1 REVERT JUMPDEST POP PUSH2 0x30FF DUP7 DUP3 DUP8 ADD PUSH2 0x2E87 JUMP JUMPDEST SWAP2 POP POP SWAP3 POP SWAP3 POP SWAP3 JUMP JUMPDEST PUSH1 0x0 PUSH1 0x20 DUP3 DUP5 SUB SLT ISZERO PUSH2 0x311B JUMPI PUSH1 0x0 DUP1 REVERT JUMPDEST DUP2 CALLDATALOAD PUSH1 0x1 PUSH1 0x1 PUSH1 0x40 SHL SUB DUP2 GT ISZERO PUSH2 0x3131 JUMPI PUSH1 0x0 DUP1 REVERT JUMPDEST PUSH2 0x1A89 DUP5 DUP3 DUP6 ADD PUSH2 0x2D59 JUMP JUMPDEST PUSH1 0x0 DUP1 PUSH1 0x0 DUP1 PUSH1 0x80 DUP6 DUP8 SUB SLT ISZERO PUSH2 0x3153 JUMPI PUSH1 0x0 DUP1 REVERT JUMPDEST PUSH2 0x315C DUP6 PUSH2 0x2BD2 JUMP JUMPDEST SWAP4 POP PUSH1 0x20 DUP6 ADD CALLDATALOAD PUSH1 0x1 PUSH1 0x1 PUSH1 0x40 SHL SUB DUP1 DUP3 GT ISZERO PUSH2 0x3178 JUMPI PUSH1 0x0 DUP1 REVERT JUMPDEST PUSH2 0x3184 DUP9 DUP4 DUP10 ADD PUSH2 0x2E87 JUMP JUMPDEST SWAP5 POP PUSH1 0x40 DUP8 ADD CALLDATALOAD SWAP2 POP DUP1 DUP3 GT ISZERO PUSH2 0x319A JUMPI PUSH1 0x0 DUP1 REVERT JUMPDEST PUSH2 0x31A6 DUP9 DUP4 DUP10 ADD PUSH2 0x2E87 JUMP JUMPDEST SWAP4 POP PUSH1 0x60 DUP8 ADD CALLDATALOAD SWAP2 POP DUP1 DUP3 GT ISZERO PUSH2 0x31BC JUMPI PUSH1 0x0 DUP1 REVERT JUMPDEST POP PUSH2 0x31C9 DUP8 DUP3 DUP9 ADD PUSH2 0x2D59 JUMP JUMPDEST SWAP2 POP POP SWAP3 SWAP6 SWAP2 SWAP5 POP SWAP3 POP JUMP JUMPDEST PUSH1 0x0 DUP1 PUSH1 0x0 PUSH1 0x60 DUP5 DUP7 SUB SLT ISZERO PUSH2 0x31EA JUMPI PUSH1 0x0 DUP1 REVERT JUMPDEST DUP4 CALLDATALOAD SWAP3 POP PUSH2 0x31FA PUSH1 0x20 DUP6 ADD PUSH2 0x2BD2 JUMP JUMPDEST SWAP2 POP PUSH1 0x40 DUP5 ADD CALLDATALOAD SWAP1 POP SWAP3 POP SWAP3 POP SWAP3 JUMP JUMPDEST PUSH1 0x0 DUP1 PUSH1 0x40 DUP4 DUP6 SUB SLT ISZERO PUSH2 0x321D JUMPI PUSH1 0x0 DUP1 REVERT JUMPDEST PUSH2 0x3226 DUP4 PUSH2 0x2BD2 JUMP JUMPDEST SWAP2 POP PUSH1 0x20 DUP4 ADD CALLDATALOAD PUSH2 0x3236 DUP2 PUSH2 0x2FA1 JUMP JUMPDEST DUP1 SWAP2 POP POP SWAP3 POP SWAP3 SWAP1 POP JUMP JUMPDEST PUSH1 0x0 DUP1 PUSH1 0x20 DUP4 DUP6 SUB SLT ISZERO PUSH2 0x3254 JUMPI PUSH1 0x0 DUP1 REVERT JUMPDEST DUP3 CALLDATALOAD PUSH1 0x1 PUSH1 0x1 PUSH1 0x40 SHL SUB DUP1 DUP3 GT ISZERO PUSH2 0x326B JUMPI PUSH1 0x0 DUP1 REVERT JUMPDEST DUP2 DUP6 ADD SWAP2 POP DUP6 PUSH1 0x1F DUP4 ADD SLT PUSH2 0x327F JUMPI PUSH1 0x0 DUP1 REVERT JUMPDEST DUP2 CALLDATALOAD DUP2 DUP2 GT ISZERO PUSH2 0x328E JUMPI PUSH1 0x0 DUP1 REVERT JUMPDEST DUP7 PUSH1 0x20 DUP3 PUSH1 0x5 SHL DUP6 ADD ADD GT ISZERO PUSH2 0x32A3 JUMPI PUSH1 0x0 DUP1 REVERT JUMPDEST PUSH1 0x20 SWAP3 SWAP1 SWAP3 ADD SWAP7 SWAP2 SWAP6 POP SWAP1 SWAP4 POP POP POP POP JUMP JUMPDEST PUSH1 0x0 PUSH1 0x20 DUP1 DUP4 ADD DUP2 DUP5 MSTORE DUP1 DUP6 MLOAD DUP1 DUP4 MSTORE PUSH1 0x40 DUP7 ADD SWAP2 POP PUSH1 0x40 DUP2 PUSH1 0x5 SHL DUP8 ADD ADD SWAP3 POP DUP4 DUP8 ADD PUSH1 0x0 JUMPDEST DUP3 DUP2 LT ISZERO PUSH2 0x330A JUMPI PUSH1 0x3F NOT DUP9 DUP7 SUB ADD DUP5 MSTORE PUSH2 0x32F8 DUP6 DUP4 MLOAD PUSH2 0x2CD8 JUMP JUMPDEST SWAP5 POP SWAP3 DUP6 ADD SWAP3 SWAP1 DUP6 ADD SWAP1 PUSH1 0x1 ADD PUSH2 0x32DC JUMP JUMPDEST POP SWAP3 SWAP8 SWAP7 POP POP POP POP POP POP POP JUMP JUMPDEST PUSH1 0x0 DUP1 PUSH1 0x0 DUP1 PUSH1 0x80 DUP6 DUP8 SUB SLT ISZERO PUSH2 0x332D JUMPI PUSH1 0x0 DUP1 REVERT JUMPDEST PUSH2 0x3336 DUP6 PUSH2 0x2BD2 JUMP JUMPDEST SWAP4 POP PUSH1 0x20 DUP6 ADD CALLDATALOAD SWAP3 POP PUSH1 0x40 DUP6 ADD CALLDATALOAD PUSH1 0x1 PUSH1 0x1 PUSH1 0x40 SHL SUB DUP2 GT ISZERO PUSH2 0x3358 JUMPI PUSH1 0x0 DUP1 REVERT JUMPDEST PUSH2 0x3364 DUP8 DUP3 DUP9 ADD PUSH2 0x2D59 JUMP JUMPDEST SWAP5 SWAP8 SWAP4 SWAP7 POP SWAP4 SWAP5 PUSH1 0x60 ADD CALLDATALOAD SWAP4 POP POP POP JUMP JUMPDEST PUSH1 0x0 DUP1 PUSH1 0x40 DUP4 DUP6 SUB SLT ISZERO PUSH2 0x3388 JUMPI PUSH1 0x0 DUP1 REVERT JUMPDEST DUP3 CALLDATALOAD PUSH1 0x1 PUSH1 0x1 PUSH1 0x40 SHL SUB DUP1 DUP3 GT ISZERO PUSH2 0x339F JUMPI PUSH1 0x0 DUP1 REVERT JUMPDEST PUSH2 0x33AB DUP7 DUP4 DUP8 ADD PUSH2 0x2E87 JUMP JUMPDEST SWAP4 POP PUSH1 0x20 DUP6 ADD CALLDATALOAD SWAP2 POP DUP1 DUP3 GT ISZERO PUSH2 0x307F JUMPI PUSH1 0x0 DUP1 REVERT JUMPDEST PUSH1 0x0 DUP1 PUSH1 0x0 PUSH1 0x60 DUP5 DUP7 SUB SLT ISZERO PUSH2 0x33D6 JUMPI PUSH1 0x0 DUP1 REVERT JUMPDEST PUSH2 0x33DF DUP5 PUSH2 0x2BD2 JUMP JUMPDEST SWAP3 POP PUSH1 0x20 DUP5 ADD CALLDATALOAD PUSH1 0x1 PUSH1 0x1 PUSH1 0x40 SHL SUB DUP2 GT ISZERO PUSH2 0x33FA JUMPI PUSH1 0x0 DUP1 REVERT JUMPDEST PUSH2 0x3406 DUP7 DUP3 DUP8 ADD PUSH2 0x2D59 JUMP JUMPDEST SWAP3 POP POP PUSH1 0x40 DUP5 ADD CALLDATALOAD SWAP1 POP SWAP3 POP SWAP3 POP SWAP3 JUMP JUMPDEST PUSH1 0x40 DUP2 MSTORE PUSH1 0x0 PUSH2 0x342A PUSH1 0x40 DUP4 ADD DUP6 PUSH2 0x2CD8 JUMP JUMPDEST SWAP1 POP DUP3 PUSH1 0x20 DUP4 ADD MSTORE SWAP4 SWAP3 POP POP POP JUMP JUMPDEST PUSH1 0x0 DUP1 PUSH1 0x40 DUP4 DUP6 SUB SLT ISZERO PUSH2 0x344C JUMPI PUSH1 0x0 DUP1 REVERT JUMPDEST PUSH2 0x3455 DUP4 PUSH2 0x2BD2 JUMP JUMPDEST SWAP2 POP PUSH2 0x3463 PUSH1 0x20 DUP5 ADD PUSH2 0x2BD2 JUMP JUMPDEST SWAP1 POP SWAP3 POP SWAP3 SWAP1 POP JUMP JUMPDEST PUSH1 0x0 DUP1 PUSH1 0x0 DUP1 PUSH1 0x0 PUSH1 0xA0 DUP7 DUP9 SUB SLT ISZERO PUSH2 0x3484 JUMPI PUSH1 0x0 DUP1 REVERT JUMPDEST PUSH2 0x348D DUP7 PUSH2 0x2BD2 JUMP JUMPDEST SWAP5 POP PUSH2 0x349B PUSH1 0x20 DUP8 ADD PUSH2 0x2BD2 JUMP JUMPDEST SWAP4 POP PUSH1 0x40 DUP7 ADD CALLDATALOAD SWAP3 POP PUSH1 0x60 DUP7 ADD CALLDATALOAD SWAP2 POP PUSH1 0x80 DUP7 ADD CALLDATALOAD PUSH1 0x1 PUSH1 0x1 PUSH1 0x40 SHL SUB DUP2 GT ISZERO PUSH2 0x34C4 JUMPI PUSH1 0x0 DUP1 REVERT JUMPDEST PUSH2 0x2F94 DUP9 DUP3 DUP10 ADD PUSH2 0x2D59 JUMP JUMPDEST PUSH1 0x0 DUP1 PUSH1 0x0 PUSH1 0x60 DUP5 DUP7 SUB SLT ISZERO PUSH2 0x34E5 JUMPI PUSH1 0x0 DUP1 REVERT JUMPDEST PUSH2 0x34EE DUP5 PUSH2 0x2BD2 JUMP JUMPDEST SWAP6 PUSH1 0x20 DUP6 ADD CALLDATALOAD SWAP6 POP PUSH1 0x40 SWAP1 SWAP5 ADD CALLDATALOAD SWAP4 SWAP3 POP POP POP JUMP JUMPDEST PUSH1 0x0 DUP1 PUSH1 0x0 PUSH1 0x60 DUP5 DUP7 SUB SLT ISZERO PUSH2 0x3518 JUMPI PUSH1 0x0 DUP1 REVERT JUMPDEST DUP4 CALLDATALOAD PUSH1 0x1 PUSH1 0x1 PUSH1 0x40 SHL SUB DUP1 DUP3 GT ISZERO PUSH2 0x352F JUMPI PUSH1 0x0 DUP1 REVERT JUMPDEST PUSH2 0x353B DUP8 DUP4 DUP9 ADD PUSH2 0x2D59 JUMP JUMPDEST SWAP5 POP PUSH1 0x20 DUP7 ADD CALLDATALOAD SWAP2 POP DUP1 DUP3 GT ISZERO PUSH2 0x3551 JUMPI PUSH1 0x0 DUP1 REVERT JUMPDEST POP PUSH2 0x3406 DUP7 DUP3 DUP8 ADD PUSH2 0x2D59 JUMP JUMPDEST PUSH4 0x4E487B71 PUSH1 0xE0 SHL PUSH1 0x0 MSTORE PUSH1 0x11 PUSH1 0x4 MSTORE PUSH1 0x24 PUSH1 0x0 REVERT JUMPDEST PUSH1 0x0 PUSH1 0x1 DUP3 ADD PUSH2 0x3586 JUMPI PUSH2 0x3586 PUSH2 0x355E JUMP JUMPDEST POP PUSH1 0x1 ADD SWAP1 JUMP JUMPDEST PUSH4 0x4E487B71 PUSH1 0xE0 SHL PUSH1 0x0 MSTORE PUSH1 0x32 PUSH1 0x4 MSTORE PUSH1 0x24 PUSH1 0x0 REVERT JUMPDEST PUSH1 0x1 DUP2 DUP2 SHR SWAP1 DUP3 AND DUP1 PUSH2 0x35B7 JUMPI PUSH1 0x7F DUP3 AND SWAP2 POP JUMPDEST PUSH1 0x20 DUP3 LT DUP2 SUB PUSH2 0x35D7 JUMPI PUSH4 0x4E487B71 PUSH1 0xE0 SHL PUSH1 0x0 MSTORE PUSH1 0x22 PUSH1 0x4 MSTORE PUSH1 0x24 PUSH1 0x0 REVERT JUMPDEST POP SWAP2 SWAP1 POP JUMP JUMPDEST PUSH1 0x20 DUP1 DUP3 MSTORE PUSH1 0x19 SWAP1 DUP3 ADD MSTORE PUSH25 0x13595D1859185D18481B5D5CDD081899481C1C9BDD9A591959 PUSH1 0x3A SHL PUSH1 0x40 DUP3 ADD MSTORE PUSH1 0x60 ADD SWAP1 JUMP JUMPDEST PUSH1 0x20 DUP1 DUP3 MSTORE PUSH1 0x1B SWAP1 DUP3 ADD MSTORE PUSH32 0x457870657269656E6365206D7573742062652070726F76696465640000000000 PUSH1 0x40 DUP3 ADD MSTORE PUSH1 0x60 ADD SWAP1 JUMP JUMPDEST PUSH1 0x20 DUP1 DUP3 MSTORE PUSH1 0x18 SWAP1 DUP3 ADD MSTORE PUSH24 0x1058D8DBDD5B9D081B5D5CDD081899481C1C9BDD9A591959 PUSH1 0x42 SHL PUSH1 0x40 DUP3 ADD MSTORE PUSH1 0x60 ADD SWAP1 JUMP JUMPDEST PUSH1 0x0 DUP4 MLOAD PUSH2 0x368B DUP2 DUP5 PUSH1 0x20 DUP9 ADD PUSH2 0x2CB4 JUMP JUMPDEST DUP4 MLOAD SWAP1 DUP4 ADD SWAP1 PUSH2 0x369F DUP2 DUP4 PUSH1 0x20 DUP9 ADD PUSH2 0x2CB4 JUMP JUMPDEST ADD SWAP5 SWAP4 POP POP POP POP JUMP JUMPDEST PUSH1 0x20 DUP1 DUP3 MSTORE PUSH1 0xE SWAP1 DUP3 ADD MSTORE PUSH14 0x139BDD08185D5D1A1BDC9A5E9959 PUSH1 0x92 SHL PUSH1 0x40 DUP3 ADD MSTORE PUSH1 0x60 ADD SWAP1 JUMP JUMPDEST DUP1 DUP3 ADD DUP1 DUP3 GT ISZERO PUSH2 0x7BA JUMPI PUSH2 0x7BA PUSH2 0x355E JUMP JUMPDEST DUP1 DUP3 MUL DUP2 ISZERO DUP3 DUP3 DIV DUP5 EQ OR PUSH2 0x7BA JUMPI PUSH2 0x7BA PUSH2 0x355E JUMP JUMPDEST PUSH4 0x4E487B71 PUSH1 0xE0 SHL PUSH1 0x0 MSTORE PUSH1 0x12 PUSH1 0x4 MSTORE PUSH1 0x24 PUSH1 0x0 REVERT JUMPDEST PUSH1 0x0 DUP3 PUSH2 0x371F JUMPI PUSH2 0x371F PUSH2 0x36FA JUMP JUMPDEST POP DIV SWAP1 JUMP JUMPDEST PUSH1 0x20 DUP1 DUP3 MSTORE PUSH1 0xF SWAP1 DUP3 ADD MSTORE PUSH15 0x988A9C8EA890BE9A92A69A82A8869 PUSH1 0x8B SHL PUSH1 0x40 DUP3 ADD MSTORE PUSH1 0x60 ADD SWAP1 JUMP JUMPDEST PUSH1 0x20 DUP1 DUP3 MSTORE PUSH1 0x11 SWAP1 DUP3 ADD MSTORE PUSH17 0x2AB730B8383937BB32B21031B0B63632B9 PUSH1 0x79 SHL PUSH1 0x40 DUP3 ADD MSTORE PUSH1 0x60 ADD SWAP1 JUMP JUMPDEST PUSH1 0x20 DUP1 DUP3 MSTORE PUSH1 0x17 SWAP1 DUP3 ADD MSTORE PUSH23 0x139BDD08195B9BDD59DA081D1BDAD95B9CC81BDDDB9959 PUSH1 0x4A SHL PUSH1 0x40 DUP3 ADD MSTORE PUSH1 0x60 ADD SWAP1 JUMP JUMPDEST PUSH1 0x20 DUP1 DUP3 MSTORE PUSH1 0xA SWAP1 DUP3 ADD MSTORE PUSH10 0x1A5B9D985B1A59081A59 PUSH1 0xB2 SHL PUSH1 0x40 DUP3 ADD MSTORE PUSH1 0x60 ADD SWAP1 JUMP JUMPDEST PUSH1 0x20 DUP1 DUP3 MSTORE PUSH1 0x15 SWAP1 DUP3 ADD MSTORE PUSH21 0x10DBD919481B5D5CDD081899481C1C9BDD9A591959 PUSH1 0x5A SHL PUSH1 0x40 DUP3 ADD MSTORE PUSH1 0x60 ADD SWAP1 JUMP JUMPDEST PUSH1 0x0 DUP3 MLOAD PUSH2 0x380E DUP2 DUP5 PUSH1 0x20 DUP8 ADD PUSH2 0x2CB4 JUMP JUMPDEST SWAP2 SWAP1 SWAP2 ADD SWAP3 SWAP2 POP POP JUMP JUMPDEST PUSH1 0x0 DUP1 DUP4 CALLDATALOAD PUSH1 0x1E NOT DUP5 CALLDATASIZE SUB ADD DUP2 SLT PUSH2 0x382F JUMPI PUSH1 0x0 DUP1 REVERT JUMPDEST DUP4 ADD DUP1 CALLDATALOAD SWAP2 POP PUSH1 0x1 PUSH1 0x1 PUSH1 0x40 SHL SUB DUP3 GT ISZERO PUSH2 0x3849 JUMPI PUSH1 0x0 DUP1 REVERT JUMPDEST PUSH1 0x20 ADD SWAP2 POP CALLDATASIZE DUP2 SWAP1 SUB DUP3 SGT ISZERO PUSH2 0x385E JUMPI PUSH1 0x0 DUP1 REVERT JUMPDEST SWAP3 POP SWAP3 SWAP1 POP JUMP JUMPDEST PUSH1 0x1F DUP3 GT ISZERO PUSH2 0x1124 JUMPI PUSH1 0x0 DUP2 DUP2 MSTORE PUSH1 0x20 DUP2 KECCAK256 PUSH1 0x1F DUP6 ADD PUSH1 0x5 SHR DUP2 ADD PUSH1 0x20 DUP7 LT ISZERO PUSH2 0x388C JUMPI POP DUP1 JUMPDEST PUSH1 0x1F DUP6 ADD PUSH1 0x5 SHR DUP3 ADD SWAP2 POP JUMPDEST DUP2 DUP2 LT ISZERO PUSH2 0xB5F JUMPI DUP3 DUP2 SSTORE PUSH1 0x1 ADD PUSH2 0x3898 JUMP JUMPDEST DUP2 MLOAD PUSH1 0x1 PUSH1 0x1 PUSH1 0x40 SHL SUB DUP2 GT ISZERO PUSH2 0x38C4 JUMPI PUSH2 0x38C4 PUSH2 0x2D17 JUMP JUMPDEST PUSH2 0x38D8 DUP2 PUSH2 0x38D2 DUP5 SLOAD PUSH2 0x35A3 JUMP JUMPDEST DUP5 PUSH2 0x3865 JUMP JUMPDEST PUSH1 0x20 DUP1 PUSH1 0x1F DUP4 GT PUSH1 0x1 DUP2 EQ PUSH2 0x390D JUMPI PUSH1 0x0 DUP5 ISZERO PUSH2 0x38F5 JUMPI POP DUP6 DUP4 ADD MLOAD JUMPDEST PUSH1 0x0 NOT PUSH1 0x3 DUP7 SWAP1 SHL SHR NOT AND PUSH1 0x1 DUP6 SWAP1 SHL OR DUP6 SSTORE PUSH2 0xB5F JUMP JUMPDEST PUSH1 0x0 DUP6 DUP2 MSTORE PUSH1 0x20 DUP2 KECCAK256 PUSH1 0x1F NOT DUP7 AND SWAP2 JUMPDEST DUP3 DUP2 LT ISZERO PUSH2 0x393C JUMPI DUP9 DUP7 ADD MLOAD DUP3 SSTORE SWAP5 DUP5 ADD SWAP5 PUSH1 0x1 SWAP1 SWAP2 ADD SWAP1 DUP5 ADD PUSH2 0x391D JUMP JUMPDEST POP DUP6 DUP3 LT ISZERO PUSH2 0x395A JUMPI DUP8 DUP6 ADD MLOAD PUSH1 0x0 NOT PUSH1 0x3 DUP9 SWAP1 SHL PUSH1 0xF8 AND SHR NOT AND DUP2 SSTORE JUMPDEST POP POP POP POP POP PUSH1 0x1 SWAP1 DUP2 SHL ADD SWAP1 SSTORE POP JUMP JUMPDEST DUP2 DUP2 SUB DUP2 DUP2 GT ISZERO PUSH2 0x7BA JUMPI PUSH2 0x7BA PUSH2 0x355E JUMP JUMPDEST PUSH1 0x0 DUP3 PUSH2 0x398C JUMPI PUSH2 0x398C PUSH2 0x36FA JUMP JUMPDEST POP MOD SWAP1 JUMP JUMPDEST PUSH1 0x0 PUSH1 0x20 DUP3 DUP5 SUB SLT ISZERO PUSH2 0x39A3 JUMPI PUSH1 0x0 DUP1 REVERT JUMPDEST DUP2 MLOAD PUSH2 0x1610 DUP2 PUSH2 0x2FA1 JUMP JUMPDEST PUSH1 0x20 DUP1 DUP3 MSTORE PUSH1 0x12 SWAP1 DUP3 ADD MSTORE PUSH18 0x853D5D3915497D3D497D054141493D59151 PUSH1 0x72 SHL PUSH1 0x40 DUP3 ADD MSTORE PUSH1 0x60 ADD SWAP1 JUMP JUMPDEST PUSH1 0x20 DUP1 DUP3 MSTORE PUSH1 0xF SWAP1 DUP3 ADD MSTORE PUSH15 0x45786365656473206D617820627073 PUSH1 0x88 SHL PUSH1 0x40 DUP3 ADD MSTORE PUSH1 0x60 ADD SWAP1 JUMP JUMPDEST PUSH1 0x20 DUP1 DUP3 MSTORE PUSH1 0xE SWAP1 DUP3 ADD MSTORE PUSH14 0x232927A6AFAD22A927AFA0A22229 PUSH1 0x91 SHL PUSH1 0x40 DUP3 ADD MSTORE PUSH1 0x60 ADD SWAP1 JUMP JUMPDEST PUSH1 0x20 DUP1 DUP3 MSTORE PUSH1 0x10 SWAP1 DUP3 ADD MSTORE PUSH16 0x125394D551919250D251539517D09053 PUSH1 0x82 SHL PUSH1 0x40 DUP3 ADD MSTORE PUSH1 0x60 ADD SWAP1 JUMP JUMPDEST PUSH1 0x40 DUP2 MSTORE PUSH1 0x0 PUSH2 0x3A68 PUSH1 0x40 DUP4 ADD DUP6 PUSH2 0x2C33 JUMP JUMPDEST DUP3 DUP2 SUB PUSH1 0x20 DUP5 ADD MSTORE PUSH2 0x93F DUP2 DUP6 PUSH2 0x2C33 JUMP JUMPDEST PUSH1 0x40 DUP2 MSTORE PUSH1 0x0 PUSH2 0x3A8D PUSH1 0x40 DUP4 ADD DUP6 PUSH2 0x2CD8 JUMP JUMPDEST DUP3 DUP2 SUB PUSH1 0x20 DUP5 ADD MSTORE PUSH2 0x93F DUP2 DUP6 PUSH2 0x2CD8 JUMP JUMPDEST PUSH1 0x20 DUP1 DUP3 MSTORE PUSH1 0xC SWAP1 DUP3 ADD MSTORE PUSH12 0x2A27AFAD22A927AFA0A22229 PUSH1 0xA1 SHL PUSH1 0x40 DUP3 ADD MSTORE PUSH1 0x60 ADD SWAP1 JUMP JUMPDEST PUSH1 0x1 PUSH1 0x1 PUSH1 0xA0 SHL SUB DUP7 DUP2 AND DUP3 MSTORE DUP6 AND PUSH1 0x20 DUP3 ADD MSTORE PUSH1 0xA0 PUSH1 0x40 DUP3 ADD DUP2 SWAP1 MSTORE PUSH1 0x0 SWAP1 PUSH2 0x3AF1 SWAP1 DUP4 ADD DUP7 PUSH2 0x2C33 JUMP JUMPDEST DUP3 DUP2 SUB PUSH1 0x60 DUP5 ADD MSTORE PUSH2 0x3B03 DUP2 DUP7 PUSH2 0x2C33 JUMP JUMPDEST SWAP1 POP DUP3 DUP2 SUB PUSH1 0x80 DUP5 ADD MSTORE PUSH2 0x3B17 DUP2 DUP6 PUSH2 0x2CD8 JUMP JUMPDEST SWAP9 SWAP8 POP POP POP POP POP POP POP POP JUMP JUMPDEST PUSH1 0x0 PUSH1 0x20 DUP3 DUP5 SUB SLT ISZERO PUSH2 0x3B35 JUMPI PUSH1 0x0 DUP1 REVERT JUMPDEST DUP2 MLOAD PUSH2 0x1610 DUP2 PUSH2 0x2C81 JUMP JUMPDEST PUSH1 0x0 PUSH1 0x3 RETURNDATASIZE GT ISZERO PUSH2 0x3B59 JUMPI PUSH1 0x4 PUSH1 0x0 DUP1 RETURNDATACOPY POP PUSH1 0x0 MLOAD PUSH1 0xE0 SHR JUMPDEST SWAP1 JUMP JUMPDEST PUSH1 0x0 PUSH1 0x44 RETURNDATASIZE LT ISZERO PUSH2 0x3B6A JUMPI SWAP1 JUMP JUMPDEST PUSH1 0x40 MLOAD PUSH1 0x3 NOT RETURNDATASIZE DUP2 ADD PUSH1 0x4 DUP4 RETURNDATACOPY DUP2 MLOAD RETURNDATASIZE PUSH1 0x1 PUSH1 0x1 PUSH1 0x40 SHL SUB DUP2 PUSH1 0x24 DUP5 ADD GT DUP2 DUP5 GT OR ISZERO PUSH2 0x3B99 JUMPI POP POP POP POP POP SWAP1 JUMP JUMPDEST DUP3 DUP6 ADD SWAP2 POP DUP2 MLOAD DUP2 DUP2 GT ISZERO PUSH2 0x3BB1 JUMPI POP POP POP POP POP POP SWAP1 JUMP JUMPDEST DUP5 RETURNDATASIZE DUP8 ADD ADD PUSH1 0x20 DUP3 DUP6 ADD ADD GT ISZERO PUSH2 0x3BCB JUMPI POP POP POP POP POP POP SWAP1 JUMP JUMPDEST PUSH2 0x3BDA PUSH1 0x20 DUP3 DUP7 ADD ADD DUP8 PUSH2 0x2D2D JUMP JUMPDEST POP SWAP1 SWAP6 SWAP5 POP POP POP POP POP JUMP JUMPDEST PUSH1 0x20 DUP1 DUP3 MSTORE PUSH1 0xF SWAP1 DUP3 ADD MSTORE PUSH15 0x1513D2D15394D7D491529150D51151 PUSH1 0x8A SHL PUSH1 0x40 DUP3 ADD MSTORE PUSH1 0x60 ADD SWAP1 JUMP JUMPDEST PUSH1 0x1 PUSH1 0x1 PUSH1 0xA0 SHL SUB DUP7 DUP2 AND DUP3 MSTORE DUP6 AND PUSH1 0x20 DUP3 ADD MSTORE PUSH1 0x40 DUP2 ADD DUP5 SWAP1 MSTORE PUSH1 0x60 DUP2 ADD DUP4 SWAP1 MSTORE PUSH1 0xA0 PUSH1 0x80 DUP3 ADD DUP2 SWAP1 MSTORE PUSH1 0x0 SWAP1 PUSH2 0x3C48 SWAP1 DUP4 ADD DUP5 PUSH2 0x2CD8 JUMP JUMPDEST SWAP8 SWAP7 POP POP POP POP POP POP POP JUMP INVALID 0x4A CODECOPY 0xDC MOD 0xD4 0xC0 0xDB 0xC6 0x4B PUSH17 0xAF90FD698A233A518AA5D07E595D983B8C SDIV 0x26 0xC8 0xF7 0xFB 0xC3 0xD5 DUP2 PUSH9 0xC5AE7397731D063D5B 0xBF RETURNDATASIZE PUSH6 0x7854427343F4 0xC0 DUP4 0x24 0xF PUSH27 0xACAA2D0F62416464726573733A206C6F772D6C6576656C2064656C PUSH6 0x676174652063 PUSH2 0x6C6C KECCAK256 PUSH7 0x61696C6564A264 PUSH10 0x70667358221220954ECF 0xAE 0xDB 0xED 0xA8 DUP3 0xC3 0xE6 0xDF RETURNDATASIZE 0xE7 0xDE CALLER 0x4E SLT 0xBD 0xB2 LOG4 DUP5 0xAB OR SWAP5 PUSH7 0x9DDD659210ECBB PUSH5 0x736F6C6343 STOP ADDMOD GT STOP CALLER "},"methodIdentifiers":{"OPERATOR_FILTER_REGISTRY()":"41f43434","balanceOf(address,uint256)":"00fdd58e","balanceOfBatch(address[],uint256[])":"4e1273f4","batchMintTo(address,uint256[],uint256[],string)":"949c09f7","burn(address,uint256,uint256)":"f5298aca","burnBatch(address,uint256[],uint256[])":"6b20c454","contractURI()":"e8a3d485","createRedeemableItem(string,string,uint256)":"fc2c738d","experience(uint256)":"d3e97165","getBaseURICount()":"63b45e2d","getBatchIdAtIndex(uint256)":"2419f51b","getBokemon(uint256)":"ce5f036a","getBokemonPerUser(address)":"0134671b","getBokemonUri(uint256)":"f8508a0b","getDefaultRoyaltyInfo()":"b24f2d39","getRoyaltyInfoForToken(uint256)":"4cc157df","increaseExperience(uint256,uint256)":"243a7c7b","increaseExperienceBatch(uint256[],uint256[])":"b4f09b98","isApprovedForAll(address,address)":"e985e9c5","mint(address,string,uint256)":"ba7aef43","mintSimilar(address,string,uint256,uint256)":"0cb0fc4d","mintTo(address,uint256,string,uint256)":"b03f4528","multicall(bytes[])":"ac9650d8","name()":"06fdde03","nextTokenIdToMint()":"3b1475a7","operatorRestriction()":"504c6e01","owner()":"8da5cb5b","redeemItem(string)":"ac60345b","royaltyInfo(uint256,uint256)":"2a55205a","safeBatchTransferFrom(address,address,uint256[],uint256[],bytes)":"2eb2c2d6","safeTransferFrom(address,address,uint256,uint256,bytes)":"f242432a","setApprovalForAll(address,bool)":"a22cb465","setContractURI(string)":"938e3d7b","setDefaultRoyaltyInfo(address,uint256)":"600dd5ea","setOperatorRestriction(bool)":"32f0cd64","setOwner(address)":"13af4035","setRoyaltyInfoForToken(uint256,address,uint256)":"9bcf7a15","supportsInterface(bytes4)":"01ffc9a7","symbol()":"95d89b41","totalSupply(uint256)":"bd85b039","uri(uint256)":"0e89341c"}}}}}